{"abi":[{"inputs":[{"internalType":"uint256","name":"minimum","type":"uint256"},{"internalType":"string","name":"description","type":"string"}],"name":"createCampaign","outputs":[],"stateMutability":"nonpayable","type":"function"},{"inputs":[{"internalType":"uint256","name":"","type":"uint256"}],"name":"deployedCampaigns","outputs":[{"internalType":"address payable","name":"","type":"address"}],"stateMutability":"view","type":"function"},{"inputs":[],"name":"getDeployedCampaigns","outputs":[{"internalType":"address payable[]","name":"","type":"address[]"}],"stateMutability":"view","type":"function"}],"devdoc":{"kind":"dev","methods":{},"version":1},"evm":{"assembly":"    /* \"Campaign.sol\":58:486  contract CampaignFactory {... */\n  mstore(0x40, 0x80)\n  callvalue\n  dup1\n  iszero\n  tag_1\n  jumpi\n  0x00\n  dup1\n  revert\ntag_1:\n  pop\n  dataSize(sub_0)\n  dup1\n  dataOffset(sub_0)\n  0x00\n  codecopy\n  0x00\n  return\nstop\n\nsub_0: assembly {\n        /* \"Campaign.sol\":58:486  contract CampaignFactory {... */\n      mstore(0x40, 0x80)\n      callvalue\n      dup1\n      iszero\n      tag_1\n      jumpi\n      0x00\n      dup1\n      revert\n    tag_1:\n      pop\n      jumpi(tag_2, lt(calldatasize, 0x04))\n      shr(0xe0, calldataload(0x00))\n      dup1\n      0x339d50a5\n      eq\n      tag_3\n      jumpi\n      dup1\n      0x4220d656\n      eq\n      tag_4\n      jumpi\n      dup1\n      0x4acb9d4f\n      eq\n      tag_5\n      jumpi\n    tag_2:\n      0x00\n      dup1\n      revert\n        /* \"Campaign.sol\":89:131  address payable[] public deployedCampaigns */\n    tag_3:\n      tag_6\n      0x04\n      dup1\n      calldatasize\n      sub\n      dup2\n      add\n      swap1\n      tag_7\n      swap2\n      swap1\n      tag_8\n      jump\t// in\n    tag_7:\n      tag_9\n      jump\t// in\n    tag_6:\n      mload(0x40)\n      tag_10\n      swap2\n      swap1\n      tag_11\n      jump\t// in\n    tag_10:\n      mload(0x40)\n      dup1\n      swap2\n      sub\n      swap1\n      return\n        /* \"Campaign.sol\":138:358  function createCampaign(uint minimum, string memory description) public {... */\n    tag_4:\n      tag_12\n      0x04\n      dup1\n      calldatasize\n      sub\n      dup2\n      add\n      swap1\n      tag_13\n      swap2\n      swap1\n      tag_14\n      jump\t// in\n    tag_13:\n      tag_15\n      jump\t// in\n    tag_12:\n      stop\n        /* \"Campaign.sol\":364:484  function getDeployedCampaigns() public view returns (address payable[] memory) {... */\n    tag_5:\n      tag_16\n      tag_17\n      jump\t// in\n    tag_16:\n      mload(0x40)\n      tag_18\n      swap2\n      swap1\n      tag_19\n      jump\t// in\n    tag_18:\n      mload(0x40)\n      dup1\n      swap2\n      sub\n      swap1\n      return\n        /* \"Campaign.sol\":89:131  address payable[] public deployedCampaigns */\n    tag_9:\n      0x00\n      dup2\n      dup2\n      sload\n      dup2\n      lt\n      tag_20\n      jumpi\n      0x00\n      dup1\n      revert\n    tag_20:\n      swap1\n      0x00\n      mstore\n      keccak256(0x00, 0x20)\n      add\n      0x00\n      swap2\n      pop\n      sload\n      swap1\n      0x0100\n      exp\n      swap1\n      div\n      0xffffffffffffffffffffffffffffffffffffffff\n      and\n      dup2\n      jump\t// out\n        /* \"Campaign.sol\":138:358  function createCampaign(uint minimum, string memory description) public {... */\n    tag_15:\n        /* \"Campaign.sol\":220:239  address newCampaign */\n      0x00\n        /* \"Campaign.sol\":263:270  minimum */\n      dup3\n        /* \"Campaign.sol\":272:282  msg.sender */\n      caller\n        /* \"Campaign.sol\":284:295  description */\n      dup4\n        /* \"Campaign.sol\":250:296  new Campaign(minimum, msg.sender, description) */\n      mload(0x40)\n      tag_23\n      swap1\n      tag_24\n      jump\t// in\n    tag_23:\n      tag_25\n      swap4\n      swap3\n      swap2\n      swap1\n      tag_26\n      jump\t// in\n    tag_25:\n      mload(0x40)\n      dup1\n      swap2\n      sub\n      swap1\n      0x00\n      create\n      dup1\n      iszero\n      dup1\n      iszero\n      tag_27\n      jumpi\n      returndatasize\n      0x00\n      dup1\n      returndatacopy\n      revert(0x00, returndatasize)\n    tag_27:\n      pop\n        /* \"Campaign.sol\":220:297  address newCampaign = address(new Campaign(minimum, msg.sender, description)) */\n      swap1\n      pop\n        /* \"Campaign.sol\":307:324  deployedCampaigns */\n      0x00\n        /* \"Campaign.sol\":338:349  newCampaign */\n      dup2\n        /* \"Campaign.sol\":307:351  deployedCampaigns.push(payable(newCampaign)) */\n      swap1\n      dup1\n      0x01\n      dup2\n      sload\n      add\n      dup1\n      dup3\n      sstore\n      dup1\n      swap2\n      pop\n      pop\n      0x01\n      swap1\n      sub\n      swap1\n      0x00\n      mstore\n      keccak256(0x00, 0x20)\n      add\n      0x00\n      swap1\n      swap2\n      swap1\n      swap2\n      swap1\n      swap2\n      0x0100\n      exp\n      dup2\n      sload\n      dup2\n      0xffffffffffffffffffffffffffffffffffffffff\n      mul\n      not\n      and\n      swap1\n      dup4\n      0xffffffffffffffffffffffffffffffffffffffff\n      and\n      mul\n      or\n      swap1\n      sstore\n      pop\n        /* \"Campaign.sol\":210:358  {... */\n      pop\n        /* \"Campaign.sol\":138:358  function createCampaign(uint minimum, string memory description) public {... */\n      pop\n      pop\n      jump\t// out\n        /* \"Campaign.sol\":364:484  function getDeployedCampaigns() public view returns (address payable[] memory) {... */\n    tag_17:\n        /* \"Campaign.sol\":417:441  address payable[] memory */\n      0x60\n        /* \"Campaign.sol\":460:477  deployedCampaigns */\n      0x00\n        /* \"Campaign.sol\":453:477  return deployedCampaigns */\n      dup1\n      sload\n      dup1\n      0x20\n      mul\n      0x20\n      add\n      mload(0x40)\n      swap1\n      dup2\n      add\n      0x40\n      mstore\n      dup1\n      swap3\n      swap2\n      swap1\n      dup2\n      dup2\n      mstore\n      0x20\n      add\n      dup3\n      dup1\n      sload\n      dup1\n      iszero\n      tag_30\n      jumpi\n      0x20\n      mul\n      dup3\n      add\n      swap2\n      swap1\n      0x00\n      mstore\n      keccak256(0x00, 0x20)\n      swap1\n    tag_31:\n      dup2\n      0x00\n      swap1\n      sload\n      swap1\n      0x0100\n      exp\n      swap1\n      div\n      0xffffffffffffffffffffffffffffffffffffffff\n      and\n      0xffffffffffffffffffffffffffffffffffffffff\n      and\n      dup2\n      mstore\n      0x20\n      add\n      swap1\n      0x01\n      add\n      swap1\n      dup1\n      dup4\n      gt\n      tag_31\n      jumpi\n    tag_30:\n      pop\n      pop\n      pop\n      pop\n      pop\n      swap1\n      pop\n        /* \"Campaign.sol\":364:484  function getDeployedCampaigns() public view returns (address payable[] memory) {... */\n      swap1\n      jump\t// out\n    tag_24:\n      dataSize(sub_0)\n      dup1\n      dataOffset(sub_0)\n      dup4\n      codecopy\n      add\n      swap1\n      jump\t// out\n        /* \"#utility.yul\":7:82   */\n    tag_32:\n        /* \"#utility.yul\":40:46   */\n      0x00\n        /* \"#utility.yul\":73:75   */\n      0x40\n        /* \"#utility.yul\":67:76   */\n      mload\n        /* \"#utility.yul\":57:76   */\n      swap1\n      pop\n        /* \"#utility.yul\":7:82   */\n      swap1\n      jump\t// out\n        /* \"#utility.yul\":88:205   */\n    tag_33:\n        /* \"#utility.yul\":197:198   */\n      0x00\n        /* \"#utility.yul\":194:195   */\n      dup1\n        /* \"#utility.yul\":187:199   */\n      revert\n        /* \"#utility.yul\":211:328   */\n    tag_34:\n        /* \"#utility.yul\":320:321   */\n      0x00\n        /* \"#utility.yul\":317:318   */\n      dup1\n        /* \"#utility.yul\":310:322   */\n      revert\n        /* \"#utility.yul\":334:411   */\n    tag_35:\n        /* \"#utility.yul\":371:378   */\n      0x00\n        /* \"#utility.yul\":400:405   */\n      dup2\n        /* \"#utility.yul\":389:405   */\n      swap1\n      pop\n        /* \"#utility.yul\":334:411   */\n      swap2\n      swap1\n      pop\n      jump\t// out\n        /* \"#utility.yul\":417:539   */\n    tag_36:\n        /* \"#utility.yul\":490:514   */\n      tag_71\n        /* \"#utility.yul\":508:513   */\n      dup2\n        /* \"#utility.yul\":490:514   */\n      tag_35\n      jump\t// in\n    tag_71:\n        /* \"#utility.yul\":483:488   */\n      dup2\n        /* \"#utility.yul\":480:515   */\n      eq\n        /* \"#utility.yul\":470:533   */\n      tag_72\n      jumpi\n        /* \"#utility.yul\":529:530   */\n      0x00\n        /* \"#utility.yul\":526:527   */\n      dup1\n        /* \"#utility.yul\":519:531   */\n      revert\n        /* \"#utility.yul\":470:533   */\n    tag_72:\n        /* \"#utility.yul\":417:539   */\n      pop\n      jump\t// out\n        /* \"#utility.yul\":545:684   */\n    tag_37:\n        /* \"#utility.yul\":591:596   */\n      0x00\n        /* \"#utility.yul\":629:635   */\n      dup2\n        /* \"#utility.yul\":616:636   */\n      calldataload\n        /* \"#utility.yul\":607:636   */\n      swap1\n      pop\n        /* \"#utility.yul\":645:678   */\n      tag_74\n        /* \"#utility.yul\":672:677   */\n      dup2\n        /* \"#utility.yul\":645:678   */\n      tag_36\n      jump\t// in\n    tag_74:\n        /* \"#utility.yul\":545:684   */\n      swap3\n      swap2\n      pop\n      pop\n      jump\t// out\n        /* \"#utility.yul\":690:1019   */\n    tag_8:\n        /* \"#utility.yul\":749:755   */\n      0x00\n        /* \"#utility.yul\":798:800   */\n      0x20\n        /* \"#utility.yul\":786:795   */\n      dup3\n        /* \"#utility.yul\":777:784   */\n      dup5\n        /* \"#utility.yul\":773:796   */\n      sub\n        /* \"#utility.yul\":769:801   */\n      slt\n        /* \"#utility.yul\":766:885   */\n      iszero\n      tag_76\n      jumpi\n        /* \"#utility.yul\":804:883   */\n      tag_77\n      tag_33\n      jump\t// in\n    tag_77:\n        /* \"#utility.yul\":766:885   */\n    tag_76:\n        /* \"#utility.yul\":924:925   */\n      0x00\n        /* \"#utility.yul\":949:1002   */\n      tag_78\n        /* \"#utility.yul\":994:1001   */\n      dup5\n        /* \"#utility.yul\":985:991   */\n      dup3\n        /* \"#utility.yul\":974:983   */\n      dup6\n        /* \"#utility.yul\":970:992   */\n      add\n        /* \"#utility.yul\":949:1002   */\n      tag_37\n      jump\t// in\n    tag_78:\n        /* \"#utility.yul\":939:1002   */\n      swap2\n      pop\n        /* \"#utility.yul\":895:1012   */\n      pop\n        /* \"#utility.yul\":690:1019   */\n      swap3\n      swap2\n      pop\n      pop\n      jump\t// out\n        /* \"#utility.yul\":1025:1151   */\n    tag_38:\n        /* \"#utility.yul\":1062:1069   */\n      0x00\n        /* \"#utility.yul\":1102:1144   */\n      0xffffffffffffffffffffffffffffffffffffffff\n        /* \"#utility.yul\":1095:1100   */\n      dup3\n        /* \"#utility.yul\":1091:1145   */\n      and\n        /* \"#utility.yul\":1080:1145   */\n      swap1\n      pop\n        /* \"#utility.yul\":1025:1151   */\n      swap2\n      swap1\n      pop\n      jump\t// out\n        /* \"#utility.yul\":1157:1261   */\n    tag_39:\n        /* \"#utility.yul\":1202:1209   */\n      0x00\n        /* \"#utility.yul\":1231:1255   */\n      tag_81\n        /* \"#utility.yul\":1249:1254   */\n      dup3\n        /* \"#utility.yul\":1231:1255   */\n      tag_38\n      jump\t// in\n    tag_81:\n        /* \"#utility.yul\":1220:1255   */\n      swap1\n      pop\n        /* \"#utility.yul\":1157:1261   */\n      swap2\n      swap1\n      pop\n      jump\t// out\n        /* \"#utility.yul\":1267:1409   */\n    tag_40:\n        /* \"#utility.yul\":1370:1402   */\n      tag_83\n        /* \"#utility.yul\":1396:1401   */\n      dup2\n        /* \"#utility.yul\":1370:1402   */\n      tag_39\n      jump\t// in\n    tag_83:\n        /* \"#utility.yul\":1365:1368   */\n      dup3\n        /* \"#utility.yul\":1358:1403   */\n      mstore\n        /* \"#utility.yul\":1267:1409   */\n      pop\n      pop\n      jump\t// out\n        /* \"#utility.yul\":1415:1669   */\n    tag_11:\n        /* \"#utility.yul\":1524:1528   */\n      0x00\n        /* \"#utility.yul\":1562:1564   */\n      0x20\n        /* \"#utility.yul\":1551:1560   */\n      dup3\n        /* \"#utility.yul\":1547:1565   */\n      add\n        /* \"#utility.yul\":1539:1565   */\n      swap1\n      pop\n        /* \"#utility.yul\":1575:1662   */\n      tag_85\n        /* \"#utility.yul\":1659:1660   */\n      0x00\n        /* \"#utility.yul\":1648:1657   */\n      dup4\n        /* \"#utility.yul\":1644:1661   */\n      add\n        /* \"#utility.yul\":1635:1641   */\n      dup5\n        /* \"#utility.yul\":1575:1662   */\n      tag_40\n      jump\t// in\n    tag_85:\n        /* \"#utility.yul\":1415:1669   */\n      swap3\n      swap2\n      pop\n      pop\n      jump\t// out\n        /* \"#utility.yul\":1675:1792   */\n    tag_41:\n        /* \"#utility.yul\":1784:1785   */\n      0x00\n        /* \"#utility.yul\":1781:1782   */\n      dup1\n        /* \"#utility.yul\":1774:1786   */\n      revert\n        /* \"#utility.yul\":1798:1915   */\n    tag_42:\n        /* \"#utility.yul\":1907:1908   */\n      0x00\n        /* \"#utility.yul\":1904:1905   */\n      dup1\n        /* \"#utility.yul\":1897:1909   */\n      revert\n        /* \"#utility.yul\":1921:2023   */\n    tag_43:\n        /* \"#utility.yul\":1962:1968   */\n      0x00\n        /* \"#utility.yul\":2013:2015   */\n      0x1f\n        /* \"#utility.yul\":2009:2016   */\n      not\n        /* \"#utility.yul\":2004:2006   */\n      0x1f\n        /* \"#utility.yul\":1997:2002   */\n      dup4\n        /* \"#utility.yul\":1993:2007   */\n      add\n        /* \"#utility.yul\":1989:2017   */\n      and\n        /* \"#utility.yul\":1979:2017   */\n      swap1\n      pop\n        /* \"#utility.yul\":1921:2023   */\n      swap2\n      swap1\n      pop\n      jump\t// out\n        /* \"#utility.yul\":2029:2209   */\n    tag_44:\n        /* \"#utility.yul\":2077:2154   */\n      0x4e487b7100000000000000000000000000000000000000000000000000000000\n        /* \"#utility.yul\":2074:2075   */\n      0x00\n        /* \"#utility.yul\":2067:2155   */\n      mstore\n        /* \"#utility.yul\":2174:2178   */\n      0x41\n        /* \"#utility.yul\":2171:2172   */\n      0x04\n        /* \"#utility.yul\":2164:2179   */\n      mstore\n        /* \"#utility.yul\":2198:2202   */\n      0x24\n        /* \"#utility.yul\":2195:2196   */\n      0x00\n        /* \"#utility.yul\":2188:2203   */\n      revert\n        /* \"#utility.yul\":2215:2496   */\n    tag_45:\n        /* \"#utility.yul\":2298:2325   */\n      tag_91\n        /* \"#utility.yul\":2320:2324   */\n      dup3\n        /* \"#utility.yul\":2298:2325   */\n      tag_43\n      jump\t// in\n    tag_91:\n        /* \"#utility.yul\":2290:2296   */\n      dup2\n        /* \"#utility.yul\":2286:2326   */\n      add\n        /* \"#utility.yul\":2428:2434   */\n      dup2\n        /* \"#utility.yul\":2416:2426   */\n      dup2\n        /* \"#utility.yul\":2413:2435   */\n      lt\n        /* \"#utility.yul\":2392:2410   */\n      0xffffffffffffffff\n        /* \"#utility.yul\":2380:2390   */\n      dup3\n        /* \"#utility.yul\":2377:2411   */\n      gt\n        /* \"#utility.yul\":2374:2436   */\n      or\n        /* \"#utility.yul\":2371:2459   */\n      iszero\n      tag_92\n      jumpi\n        /* \"#utility.yul\":2439:2457   */\n      tag_93\n      tag_44\n      jump\t// in\n    tag_93:\n        /* \"#utility.yul\":2371:2459   */\n    tag_92:\n        /* \"#utility.yul\":2479:2489   */\n      dup1\n        /* \"#utility.yul\":2475:2477   */\n      0x40\n        /* \"#utility.yul\":2468:2490   */\n      mstore\n        /* \"#utility.yul\":2258:2496   */\n      pop\n        /* \"#utility.yul\":2215:2496   */\n      pop\n      pop\n      jump\t// out\n        /* \"#utility.yul\":2502:2631   */\n    tag_46:\n        /* \"#utility.yul\":2536:2542   */\n      0x00\n        /* \"#utility.yul\":2563:2583   */\n      tag_95\n      tag_32\n      jump\t// in\n    tag_95:\n        /* \"#utility.yul\":2553:2583   */\n      swap1\n      pop\n        /* \"#utility.yul\":2592:2625   */\n      tag_96\n        /* \"#utility.yul\":2620:2624   */\n      dup3\n        /* \"#utility.yul\":2612:2618   */\n      dup3\n        /* \"#utility.yul\":2592:2625   */\n      tag_45\n      jump\t// in\n    tag_96:\n        /* \"#utility.yul\":2502:2631   */\n      swap2\n      swap1\n      pop\n      jump\t// out\n        /* \"#utility.yul\":2637:2945   */\n    tag_47:\n        /* \"#utility.yul\":2699:2703   */\n      0x00\n        /* \"#utility.yul\":2789:2807   */\n      0xffffffffffffffff\n        /* \"#utility.yul\":2781:2787   */\n      dup3\n        /* \"#utility.yul\":2778:2808   */\n      gt\n        /* \"#utility.yul\":2775:2831   */\n      iszero\n      tag_98\n      jumpi\n        /* \"#utility.yul\":2811:2829   */\n      tag_99\n      tag_44\n      jump\t// in\n    tag_99:\n        /* \"#utility.yul\":2775:2831   */\n    tag_98:\n        /* \"#utility.yul\":2849:2878   */\n      tag_100\n        /* \"#utility.yul\":2871:2877   */\n      dup3\n        /* \"#utility.yul\":2849:2878   */\n      tag_43\n      jump\t// in\n    tag_100:\n        /* \"#utility.yul\":2841:2878   */\n      swap1\n      pop\n        /* \"#utility.yul\":2933:2937   */\n      0x20\n        /* \"#utility.yul\":2927:2931   */\n      dup2\n        /* \"#utility.yul\":2923:2938   */\n      add\n        /* \"#utility.yul\":2915:2938   */\n      swap1\n      pop\n        /* \"#utility.yul\":2637:2945   */\n      swap2\n      swap1\n      pop\n      jump\t// out\n        /* \"#utility.yul\":2951:3105   */\n    tag_48:\n        /* \"#utility.yul\":3035:3041   */\n      dup3\n        /* \"#utility.yul\":3030:3033   */\n      dup2\n        /* \"#utility.yul\":3025:3028   */\n      dup4\n        /* \"#utility.yul\":3012:3042   */\n      calldatacopy\n        /* \"#utility.yul\":3097:3098   */\n      0x00\n        /* \"#utility.yul\":3088:3094   */\n      dup4\n        /* \"#utility.yul\":3083:3086   */\n      dup4\n        /* \"#utility.yul\":3079:3095   */\n      add\n        /* \"#utility.yul\":3072:3099   */\n      mstore\n        /* \"#utility.yul\":2951:3105   */\n      pop\n      pop\n      pop\n      jump\t// out\n        /* \"#utility.yul\":3111:3523   */\n    tag_49:\n        /* \"#utility.yul\":3189:3194   */\n      0x00\n        /* \"#utility.yul\":3214:3280   */\n      tag_103\n        /* \"#utility.yul\":3230:3279   */\n      tag_104\n        /* \"#utility.yul\":3272:3278   */\n      dup5\n        /* \"#utility.yul\":3230:3279   */\n      tag_47\n      jump\t// in\n    tag_104:\n        /* \"#utility.yul\":3214:3280   */\n      tag_46\n      jump\t// in\n    tag_103:\n        /* \"#utility.yul\":3205:3280   */\n      swap1\n      pop\n        /* \"#utility.yul\":3303:3309   */\n      dup3\n        /* \"#utility.yul\":3296:3301   */\n      dup2\n        /* \"#utility.yul\":3289:3310   */\n      mstore\n        /* \"#utility.yul\":3341:3345   */\n      0x20\n        /* \"#utility.yul\":3334:3339   */\n      dup2\n        /* \"#utility.yul\":3330:3346   */\n      add\n        /* \"#utility.yul\":3379:3382   */\n      dup5\n        /* \"#utility.yul\":3370:3376   */\n      dup5\n        /* \"#utility.yul\":3365:3368   */\n      dup5\n        /* \"#utility.yul\":3361:3377   */\n      add\n        /* \"#utility.yul\":3358:3383   */\n      gt\n        /* \"#utility.yul\":3355:3467   */\n      iszero\n      tag_105\n      jumpi\n        /* \"#utility.yul\":3386:3465   */\n      tag_106\n      tag_42\n      jump\t// in\n    tag_106:\n        /* \"#utility.yul\":3355:3467   */\n    tag_105:\n        /* \"#utility.yul\":3476:3517   */\n      tag_107\n        /* \"#utility.yul\":3510:3516   */\n      dup5\n        /* \"#utility.yul\":3505:3508   */\n      dup3\n        /* \"#utility.yul\":3500:3503   */\n      dup6\n        /* \"#utility.yul\":3476:3517   */\n      tag_48\n      jump\t// in\n    tag_107:\n        /* \"#utility.yul\":3195:3523   */\n      pop\n        /* \"#utility.yul\":3111:3523   */\n      swap4\n      swap3\n      pop\n      pop\n      pop\n      jump\t// out\n        /* \"#utility.yul\":3543:3883   */\n    tag_50:\n        /* \"#utility.yul\":3599:3604   */\n      0x00\n        /* \"#utility.yul\":3648:3651   */\n      dup3\n        /* \"#utility.yul\":3641:3645   */\n      0x1f\n        /* \"#utility.yul\":3633:3639   */\n      dup4\n        /* \"#utility.yul\":3629:3646   */\n      add\n        /* \"#utility.yul\":3625:3652   */\n      slt\n        /* \"#utility.yul\":3615:3737   */\n      tag_109\n      jumpi\n        /* \"#utility.yul\":3656:3735   */\n      tag_110\n      tag_41\n      jump\t// in\n    tag_110:\n        /* \"#utility.yul\":3615:3737   */\n    tag_109:\n        /* \"#utility.yul\":3773:3779   */\n      dup2\n        /* \"#utility.yul\":3760:3780   */\n      calldataload\n        /* \"#utility.yul\":3798:3877   */\n      tag_111\n        /* \"#utility.yul\":3873:3876   */\n      dup5\n        /* \"#utility.yul\":3865:3871   */\n      dup3\n        /* \"#utility.yul\":3858:3862   */\n      0x20\n        /* \"#utility.yul\":3850:3856   */\n      dup7\n        /* \"#utility.yul\":3846:3863   */\n      add\n        /* \"#utility.yul\":3798:3877   */\n      tag_49\n      jump\t// in\n    tag_111:\n        /* \"#utility.yul\":3789:3877   */\n      swap2\n      pop\n        /* \"#utility.yul\":3605:3883   */\n      pop\n        /* \"#utility.yul\":3543:3883   */\n      swap3\n      swap2\n      pop\n      pop\n      jump\t// out\n        /* \"#utility.yul\":3889:4543   */\n    tag_14:\n        /* \"#utility.yul\":3967:3973   */\n      0x00\n        /* \"#utility.yul\":3975:3981   */\n      dup1\n        /* \"#utility.yul\":4024:4026   */\n      0x40\n        /* \"#utility.yul\":4012:4021   */\n      dup4\n        /* \"#utility.yul\":4003:4010   */\n      dup6\n        /* \"#utility.yul\":3999:4022   */\n      sub\n        /* \"#utility.yul\":3995:4027   */\n      slt\n        /* \"#utility.yul\":3992:4111   */\n      iszero\n      tag_113\n      jumpi\n        /* \"#utility.yul\":4030:4109   */\n      tag_114\n      tag_33\n      jump\t// in\n    tag_114:\n        /* \"#utility.yul\":3992:4111   */\n    tag_113:\n        /* \"#utility.yul\":4150:4151   */\n      0x00\n        /* \"#utility.yul\":4175:4228   */\n      tag_115\n        /* \"#utility.yul\":4220:4227   */\n      dup6\n        /* \"#utility.yul\":4211:4217   */\n      dup3\n        /* \"#utility.yul\":4200:4209   */\n      dup7\n        /* \"#utility.yul\":4196:4218   */\n      add\n        /* \"#utility.yul\":4175:4228   */\n      tag_37\n      jump\t// in\n    tag_115:\n        /* \"#utility.yul\":4165:4228   */\n      swap3\n      pop\n        /* \"#utility.yul\":4121:4238   */\n      pop\n        /* \"#utility.yul\":4305:4307   */\n      0x20\n        /* \"#utility.yul\":4294:4303   */\n      dup4\n        /* \"#utility.yul\":4290:4308   */\n      add\n        /* \"#utility.yul\":4277:4309   */\n      calldataload\n        /* \"#utility.yul\":4336:4354   */\n      0xffffffffffffffff\n        /* \"#utility.yul\":4328:4334   */\n      dup2\n        /* \"#utility.yul\":4325:4355   */\n      gt\n        /* \"#utility.yul\":4322:4439   */\n      iszero\n      tag_116\n      jumpi\n        /* \"#utility.yul\":4358:4437   */\n      tag_117\n      tag_34\n      jump\t// in\n    tag_117:\n        /* \"#utility.yul\":4322:4439   */\n    tag_116:\n        /* \"#utility.yul\":4463:4526   */\n      tag_118\n        /* \"#utility.yul\":4518:4525   */\n      dup6\n        /* \"#utility.yul\":4509:4515   */\n      dup3\n        /* \"#utility.yul\":4498:4507   */\n      dup7\n        /* \"#utility.yul\":4494:4516   */\n      add\n        /* \"#utility.yul\":4463:4526   */\n      tag_50\n      jump\t// in\n    tag_118:\n        /* \"#utility.yul\":4453:4526   */\n      swap2\n      pop\n        /* \"#utility.yul\":4248:4536   */\n      pop\n        /* \"#utility.yul\":3889:4543   */\n      swap3\n      pop\n      swap3\n      swap1\n      pop\n      jump\t// out\n        /* \"#utility.yul\":4549:4671   */\n    tag_51:\n        /* \"#utility.yul\":4624:4630   */\n      0x00\n        /* \"#utility.yul\":4658:4663   */\n      dup2\n        /* \"#utility.yul\":4652:4664   */\n      mload\n        /* \"#utility.yul\":4642:4664   */\n      swap1\n      pop\n        /* \"#utility.yul\":4549:4671   */\n      swap2\n      swap1\n      pop\n      jump\t// out\n        /* \"#utility.yul\":4677:4869   */\n    tag_52:\n        /* \"#utility.yul\":4784:4795   */\n      0x00\n        /* \"#utility.yul\":4818:4824   */\n      dup3\n        /* \"#utility.yul\":4813:4816   */\n      dup3\n        /* \"#utility.yul\":4806:4825   */\n      mstore\n        /* \"#utility.yul\":4858:4862   */\n      0x20\n        /* \"#utility.yul\":4853:4856   */\n      dup3\n        /* \"#utility.yul\":4849:4863   */\n      add\n        /* \"#utility.yul\":4834:4863   */\n      swap1\n      pop\n        /* \"#utility.yul\":4677:4869   */\n      swap3\n      swap2\n      pop\n      pop\n      jump\t// out\n        /* \"#utility.yul\":4875:5015   */\n    tag_53:\n        /* \"#utility.yul\":4950:4954   */\n      0x00\n        /* \"#utility.yul\":4973:4976   */\n      dup2\n        /* \"#utility.yul\":4965:4976   */\n      swap1\n      pop\n        /* \"#utility.yul\":5003:5007   */\n      0x20\n        /* \"#utility.yul\":4998:5001   */\n      dup3\n        /* \"#utility.yul\":4994:5008   */\n      add\n        /* \"#utility.yul\":4986:5008   */\n      swap1\n      pop\n        /* \"#utility.yul\":4875:5015   */\n      swap2\n      swap1\n      pop\n      jump\t// out\n        /* \"#utility.yul\":5021:5153   */\n    tag_54:\n        /* \"#utility.yul\":5114:5146   */\n      tag_123\n        /* \"#utility.yul\":5140:5145   */\n      dup2\n        /* \"#utility.yul\":5114:5146   */\n      tag_39\n      jump\t// in\n    tag_123:\n        /* \"#utility.yul\":5109:5112   */\n      dup3\n        /* \"#utility.yul\":5102:5147   */\n      mstore\n        /* \"#utility.yul\":5021:5153   */\n      pop\n      pop\n      jump\t// out\n        /* \"#utility.yul\":5159:5370   */\n    tag_55:\n        /* \"#utility.yul\":5244:5254   */\n      0x00\n        /* \"#utility.yul\":5265:5327   */\n      tag_125\n        /* \"#utility.yul\":5323:5326   */\n      dup4\n        /* \"#utility.yul\":5315:5321   */\n      dup4\n        /* \"#utility.yul\":5265:5327   */\n      tag_54\n      jump\t// in\n    tag_125:\n        /* \"#utility.yul\":5359:5363   */\n      0x20\n        /* \"#utility.yul\":5354:5357   */\n      dup4\n        /* \"#utility.yul\":5350:5364   */\n      add\n        /* \"#utility.yul\":5336:5364   */\n      swap1\n      pop\n        /* \"#utility.yul\":5159:5370   */\n      swap3\n      swap2\n      pop\n      pop\n      jump\t// out\n        /* \"#utility.yul\":5376:5497   */\n    tag_56:\n        /* \"#utility.yul\":5454:5458   */\n      0x00\n        /* \"#utility.yul\":5486:5490   */\n      0x20\n        /* \"#utility.yul\":5481:5484   */\n      dup3\n        /* \"#utility.yul\":5477:5491   */\n      add\n        /* \"#utility.yul\":5469:5491   */\n      swap1\n      pop\n        /* \"#utility.yul\":5376:5497   */\n      swap2\n      swap1\n      pop\n      jump\t// out\n        /* \"#utility.yul\":5549:6345   */\n    tag_57:\n        /* \"#utility.yul\":5684:5687   */\n      0x00\n        /* \"#utility.yul\":5713:5775   */\n      tag_128\n        /* \"#utility.yul\":5769:5774   */\n      dup3\n        /* \"#utility.yul\":5713:5775   */\n      tag_51\n      jump\t// in\n    tag_128:\n        /* \"#utility.yul\":5791:5885   */\n      tag_129\n        /* \"#utility.yul\":5878:5884   */\n      dup2\n        /* \"#utility.yul\":5873:5876   */\n      dup6\n        /* \"#utility.yul\":5791:5885   */\n      tag_52\n      jump\t// in\n    tag_129:\n        /* \"#utility.yul\":5784:5885   */\n      swap4\n      pop\n        /* \"#utility.yul\":5909:5973   */\n      tag_130\n        /* \"#utility.yul\":5967:5972   */\n      dup4\n        /* \"#utility.yul\":5909:5973   */\n      tag_53\n      jump\t// in\n    tag_130:\n        /* \"#utility.yul\":5996:6003   */\n      dup1\n        /* \"#utility.yul\":6027:6028   */\n      0x00\n        /* \"#utility.yul\":6012:6320   */\n    tag_131:\n        /* \"#utility.yul\":6037:6043   */\n      dup4\n        /* \"#utility.yul\":6034:6035   */\n      dup2\n        /* \"#utility.yul\":6031:6044   */\n      lt\n        /* \"#utility.yul\":6012:6320   */\n      iszero\n      tag_133\n      jumpi\n        /* \"#utility.yul\":6113:6119   */\n      dup2\n        /* \"#utility.yul\":6107:6120   */\n      mload\n        /* \"#utility.yul\":6140:6219   */\n      tag_134\n        /* \"#utility.yul\":6215:6218   */\n      dup9\n        /* \"#utility.yul\":6200:6213   */\n      dup3\n        /* \"#utility.yul\":6140:6219   */\n      tag_55\n      jump\t// in\n    tag_134:\n        /* \"#utility.yul\":6133:6219   */\n      swap8\n      pop\n        /* \"#utility.yul\":6242:6310   */\n      tag_135\n        /* \"#utility.yul\":6303:6309   */\n      dup4\n        /* \"#utility.yul\":6242:6310   */\n      tag_56\n      jump\t// in\n    tag_135:\n        /* \"#utility.yul\":6232:6310   */\n      swap3\n      pop\n        /* \"#utility.yul\":6072:6320   */\n      pop\n        /* \"#utility.yul\":6059:6060   */\n      0x01\n        /* \"#utility.yul\":6056:6057   */\n      dup2\n        /* \"#utility.yul\":6052:6061   */\n      add\n        /* \"#utility.yul\":6047:6061   */\n      swap1\n      pop\n        /* \"#utility.yul\":6012:6320   */\n      jump(tag_131)\n    tag_133:\n        /* \"#utility.yul\":6016:6030   */\n      pop\n        /* \"#utility.yul\":6336:6339   */\n      dup6\n        /* \"#utility.yul\":6329:6339   */\n      swap4\n      pop\n        /* \"#utility.yul\":5689:6345   */\n      pop\n      pop\n      pop\n        /* \"#utility.yul\":5549:6345   */\n      swap3\n      swap2\n      pop\n      pop\n      jump\t// out\n        /* \"#utility.yul\":6351:6756   */\n    tag_19:\n        /* \"#utility.yul\":6510:6514   */\n      0x00\n        /* \"#utility.yul\":6548:6550   */\n      0x20\n        /* \"#utility.yul\":6537:6546   */\n      dup3\n        /* \"#utility.yul\":6533:6551   */\n      add\n        /* \"#utility.yul\":6525:6551   */\n      swap1\n      pop\n        /* \"#utility.yul\":6597:6606   */\n      dup2\n        /* \"#utility.yul\":6591:6595   */\n      dup2\n        /* \"#utility.yul\":6587:6607   */\n      sub\n        /* \"#utility.yul\":6583:6584   */\n      0x00\n        /* \"#utility.yul\":6572:6581   */\n      dup4\n        /* \"#utility.yul\":6568:6585   */\n      add\n        /* \"#utility.yul\":6561:6608   */\n      mstore\n        /* \"#utility.yul\":6625:6749   */\n      tag_137\n        /* \"#utility.yul\":6744:6748   */\n      dup2\n        /* \"#utility.yul\":6735:6741   */\n      dup5\n        /* \"#utility.yul\":6625:6749   */\n      tag_57\n      jump\t// in\n    tag_137:\n        /* \"#utility.yul\":6617:6749   */\n      swap1\n      pop\n        /* \"#utility.yul\":6351:6756   */\n      swap3\n      swap2\n      pop\n      pop\n      jump\t// out\n        /* \"#utility.yul\":6762:6880   */\n    tag_58:\n        /* \"#utility.yul\":6849:6873   */\n      tag_139\n        /* \"#utility.yul\":6867:6872   */\n      dup2\n        /* \"#utility.yul\":6849:6873   */\n      tag_35\n      jump\t// in\n    tag_139:\n        /* \"#utility.yul\":6844:6847   */\n      dup3\n        /* \"#utility.yul\":6837:6874   */\n      mstore\n        /* \"#utility.yul\":6762:6880   */\n      pop\n      pop\n      jump\t// out\n        /* \"#utility.yul\":6886:6982   */\n    tag_59:\n        /* \"#utility.yul\":6923:6930   */\n      0x00\n        /* \"#utility.yul\":6952:6976   */\n      tag_141\n        /* \"#utility.yul\":6970:6975   */\n      dup3\n        /* \"#utility.yul\":6952:6976   */\n      tag_38\n      jump\t// in\n    tag_141:\n        /* \"#utility.yul\":6941:6976   */\n      swap1\n      pop\n        /* \"#utility.yul\":6886:6982   */\n      swap2\n      swap1\n      pop\n      jump\t// out\n        /* \"#utility.yul\":6988:7106   */\n    tag_60:\n        /* \"#utility.yul\":7075:7099   */\n      tag_143\n        /* \"#utility.yul\":7093:7098   */\n      dup2\n        /* \"#utility.yul\":7075:7099   */\n      tag_59\n      jump\t// in\n    tag_143:\n        /* \"#utility.yul\":7070:7073   */\n      dup3\n        /* \"#utility.yul\":7063:7100   */\n      mstore\n        /* \"#utility.yul\":6988:7106   */\n      pop\n      pop\n      jump\t// out\n        /* \"#utility.yul\":7112:7211   */\n    tag_61:\n        /* \"#utility.yul\":7164:7170   */\n      0x00\n        /* \"#utility.yul\":7198:7203   */\n      dup2\n        /* \"#utility.yul\":7192:7204   */\n      mload\n        /* \"#utility.yul\":7182:7204   */\n      swap1\n      pop\n        /* \"#utility.yul\":7112:7211   */\n      swap2\n      swap1\n      pop\n      jump\t// out\n        /* \"#utility.yul\":7217:7386   */\n    tag_62:\n        /* \"#utility.yul\":7301:7312   */\n      0x00\n        /* \"#utility.yul\":7335:7341   */\n      dup3\n        /* \"#utility.yul\":7330:7333   */\n      dup3\n        /* \"#utility.yul\":7323:7342   */\n      mstore\n        /* \"#utility.yul\":7375:7379   */\n      0x20\n        /* \"#utility.yul\":7370:7373   */\n      dup3\n        /* \"#utility.yul\":7366:7380   */\n      add\n        /* \"#utility.yul\":7351:7380   */\n      swap1\n      pop\n        /* \"#utility.yul\":7217:7386   */\n      swap3\n      swap2\n      pop\n      pop\n      jump\t// out\n        /* \"#utility.yul\":7392:7699   */\n    tag_63:\n        /* \"#utility.yul\":7460:7461   */\n      0x00\n        /* \"#utility.yul\":7470:7583   */\n    tag_147:\n        /* \"#utility.yul\":7484:7490   */\n      dup4\n        /* \"#utility.yul\":7481:7482   */\n      dup2\n        /* \"#utility.yul\":7478:7491   */\n      lt\n        /* \"#utility.yul\":7470:7583   */\n      iszero\n      tag_149\n      jumpi\n        /* \"#utility.yul\":7569:7570   */\n      dup1\n        /* \"#utility.yul\":7564:7567   */\n      dup3\n        /* \"#utility.yul\":7560:7571   */\n      add\n        /* \"#utility.yul\":7554:7572   */\n      mload\n        /* \"#utility.yul\":7550:7551   */\n      dup2\n        /* \"#utility.yul\":7545:7548   */\n      dup5\n        /* \"#utility.yul\":7541:7552   */\n      add\n        /* \"#utility.yul\":7534:7573   */\n      mstore\n        /* \"#utility.yul\":7506:7508   */\n      0x20\n        /* \"#utility.yul\":7503:7504   */\n      dup2\n        /* \"#utility.yul\":7499:7509   */\n      add\n        /* \"#utility.yul\":7494:7509   */\n      swap1\n      pop\n        /* \"#utility.yul\":7470:7583   */\n      jump(tag_147)\n    tag_149:\n        /* \"#utility.yul\":7601:7607   */\n      dup4\n        /* \"#utility.yul\":7598:7599   */\n      dup2\n        /* \"#utility.yul\":7595:7608   */\n      gt\n        /* \"#utility.yul\":7592:7693   */\n      iszero\n      tag_150\n      jumpi\n        /* \"#utility.yul\":7681:7682   */\n      0x00\n        /* \"#utility.yul\":7672:7678   */\n      dup5\n        /* \"#utility.yul\":7667:7670   */\n      dup5\n        /* \"#utility.yul\":7663:7679   */\n      add\n        /* \"#utility.yul\":7656:7683   */\n      mstore\n        /* \"#utility.yul\":7592:7693   */\n    tag_150:\n        /* \"#utility.yul\":7441:7699   */\n      pop\n        /* \"#utility.yul\":7392:7699   */\n      pop\n      pop\n      pop\n      jump\t// out\n        /* \"#utility.yul\":7705:8069   */\n    tag_64:\n        /* \"#utility.yul\":7793:7796   */\n      0x00\n        /* \"#utility.yul\":7821:7860   */\n      tag_152\n        /* \"#utility.yul\":7854:7859   */\n      dup3\n        /* \"#utility.yul\":7821:7860   */\n      tag_61\n      jump\t// in\n    tag_152:\n        /* \"#utility.yul\":7876:7947   */\n      tag_153\n        /* \"#utility.yul\":7940:7946   */\n      dup2\n        /* \"#utility.yul\":7935:7938   */\n      dup6\n        /* \"#utility.yul\":7876:7947   */\n      tag_62\n      jump\t// in\n    tag_153:\n        /* \"#utility.yul\":7869:7947   */\n      swap4\n      pop\n        /* \"#utility.yul\":7956:8008   */\n      tag_154\n        /* \"#utility.yul\":8001:8007   */\n      dup2\n        /* \"#utility.yul\":7996:7999   */\n      dup6\n        /* \"#utility.yul\":7989:7993   */\n      0x20\n        /* \"#utility.yul\":7982:7987   */\n      dup7\n        /* \"#utility.yul\":7978:7994   */\n      add\n        /* \"#utility.yul\":7956:8008   */\n      tag_63\n      jump\t// in\n    tag_154:\n        /* \"#utility.yul\":8033:8062   */\n      tag_155\n        /* \"#utility.yul\":8055:8061   */\n      dup2\n        /* \"#utility.yul\":8033:8062   */\n      tag_43\n      jump\t// in\n    tag_155:\n        /* \"#utility.yul\":8028:8031   */\n      dup5\n        /* \"#utility.yul\":8024:8063   */\n      add\n        /* \"#utility.yul\":8017:8063   */\n      swap2\n      pop\n        /* \"#utility.yul\":7797:8069   */\n      pop\n        /* \"#utility.yul\":7705:8069   */\n      swap3\n      swap2\n      pop\n      pop\n      jump\t// out\n        /* \"#utility.yul\":8075:8608   */\n    tag_26:\n        /* \"#utility.yul\":8244:8248   */\n      0x00\n        /* \"#utility.yul\":8282:8284   */\n      0x60\n        /* \"#utility.yul\":8271:8280   */\n      dup3\n        /* \"#utility.yul\":8267:8285   */\n      add\n        /* \"#utility.yul\":8259:8285   */\n      swap1\n      pop\n        /* \"#utility.yul\":8295:8366   */\n      tag_157\n        /* \"#utility.yul\":8363:8364   */\n      0x00\n        /* \"#utility.yul\":8352:8361   */\n      dup4\n        /* \"#utility.yul\":8348:8365   */\n      add\n        /* \"#utility.yul\":8339:8345   */\n      dup7\n        /* \"#utility.yul\":8295:8366   */\n      tag_58\n      jump\t// in\n    tag_157:\n        /* \"#utility.yul\":8376:8448   */\n      tag_158\n        /* \"#utility.yul\":8444:8446   */\n      0x20\n        /* \"#utility.yul\":8433:8442   */\n      dup4\n        /* \"#utility.yul\":8429:8447   */\n      add\n        /* \"#utility.yul\":8420:8426   */\n      dup6\n        /* \"#utility.yul\":8376:8448   */\n      tag_60\n      jump\t// in\n    tag_158:\n        /* \"#utility.yul\":8495:8504   */\n      dup2\n        /* \"#utility.yul\":8489:8493   */\n      dup2\n        /* \"#utility.yul\":8485:8505   */\n      sub\n        /* \"#utility.yul\":8480:8482   */\n      0x40\n        /* \"#utility.yul\":8469:8478   */\n      dup4\n        /* \"#utility.yul\":8465:8483   */\n      add\n        /* \"#utility.yul\":8458:8506   */\n      mstore\n        /* \"#utility.yul\":8523:8601   */\n      tag_159\n        /* \"#utility.yul\":8596:8600   */\n      dup2\n        /* \"#utility.yul\":8587:8593   */\n      dup5\n        /* \"#utility.yul\":8523:8601   */\n      tag_64\n      jump\t// in\n    tag_159:\n        /* \"#utility.yul\":8515:8601   */\n      swap1\n      pop\n        /* \"#utility.yul\":8075:8608   */\n      swap5\n      swap4\n      pop\n      pop\n      pop\n      pop\n      jump\t// out\n    stop\n\n    sub_0: assembly {\n            /* \"Campaign.sol\":488:2676  contract Campaign {... */\n          mstore(0x40, 0x80)\n            /* \"Campaign.sol\":1003:1168  constructor (uint minimum, address creator, string memory desc) {... */\n          callvalue\n          dup1\n          iszero\n          tag_1\n          jumpi\n          0x00\n          dup1\n          revert\n        tag_1:\n          pop\n          mload(0x40)\n          sub(codesize, bytecodeSize)\n          dup1\n          bytecodeSize\n          dup4\n          codecopy\n          dup2\n          dup2\n          add\n          0x40\n          mstore\n          dup2\n          add\n          swap1\n          tag_2\n          swap2\n          swap1\n          tag_3\n          jump\t// in\n        tag_2:\n            /* \"Campaign.sol\":1087:1094  creator */\n          dup2\n            /* \"Campaign.sol\":1077:1084  manager */\n          0x01\n          0x00\n            /* \"Campaign.sol\":1077:1094  manager = creator */\n          0x0100\n          exp\n          dup2\n          sload\n          dup2\n          0xffffffffffffffffffffffffffffffffffffffff\n          mul\n          not\n          and\n          swap1\n          dup4\n          0xffffffffffffffffffffffffffffffffffffffff\n          and\n          mul\n          or\n          swap1\n          sstore\n          pop\n            /* \"Campaign.sol\":1126:1133  minimum */\n          dup3\n            /* \"Campaign.sol\":1104:1123  minimumContribution */\n          0x03\n            /* \"Campaign.sol\":1104:1133  minimumContribution = minimum */\n          dup2\n          swap1\n          sstore\n          pop\n            /* \"Campaign.sol\":1157:1161  desc */\n          dup1\n            /* \"Campaign.sol\":1143:1154  description */\n          0x02\n            /* \"Campaign.sol\":1143:1161  description = desc */\n          swap1\n          dup1\n          mload\n          swap1\n          0x20\n          add\n          swap1\n          tag_6\n          swap3\n          swap2\n          swap1\n          tag_7\n          jump\t// in\n        tag_6:\n          pop\n            /* \"Campaign.sol\":1003:1168  constructor (uint minimum, address creator, string memory desc) {... */\n          pop\n          pop\n          pop\n            /* \"Campaign.sol\":488:2676  contract Campaign {... */\n          jump(tag_8)\n        tag_7:\n          dup3\n          dup1\n          sload\n          tag_9\n          swap1\n          tag_10\n          jump\t// in\n        tag_9:\n          swap1\n          0x00\n          mstore\n          keccak256(0x00, 0x20)\n          swap1\n          0x1f\n          add\n          0x20\n          swap1\n          div\n          dup2\n          add\n          swap3\n          dup3\n          tag_12\n          jumpi\n          0x00\n          dup6\n          sstore\n          jump(tag_11)\n        tag_12:\n          dup3\n          0x1f\n          lt\n          tag_13\n          jumpi\n          dup1\n          mload\n          not(0xff)\n          and\n          dup4\n          dup1\n          add\n          or\n          dup6\n          sstore\n          jump(tag_11)\n        tag_13:\n          dup3\n          dup1\n          add\n          0x01\n          add\n          dup6\n          sstore\n          dup3\n          iszero\n          tag_11\n          jumpi\n          swap2\n          dup3\n          add\n        tag_14:\n          dup3\n          dup2\n          gt\n          iszero\n          tag_15\n          jumpi\n          dup3\n          mload\n          dup3\n          sstore\n          swap2\n          0x20\n          add\n          swap2\n          swap1\n          0x01\n          add\n          swap1\n          jump(tag_14)\n        tag_15:\n        tag_11:\n          pop\n          swap1\n          pop\n          tag_16\n          swap2\n          swap1\n          tag_17\n          jump\t// in\n        tag_16:\n          pop\n          swap1\n          jump\t// out\n        tag_17:\n        tag_18:\n          dup1\n          dup3\n          gt\n          iszero\n          tag_19\n          jumpi\n          0x00\n          dup2\n          0x00\n          swap1\n          sstore\n          pop\n          0x01\n          add\n          jump(tag_18)\n        tag_19:\n          pop\n          swap1\n          jump\t// out\n            /* \"#utility.yul\":7:82   */\n        tag_20:\n            /* \"#utility.yul\":40:46   */\n          0x00\n            /* \"#utility.yul\":73:75   */\n          0x40\n            /* \"#utility.yul\":67:76   */\n          mload\n            /* \"#utility.yul\":57:76   */\n          swap1\n          pop\n            /* \"#utility.yul\":7:82   */\n          swap1\n          jump\t// out\n            /* \"#utility.yul\":88:205   */\n        tag_21:\n            /* \"#utility.yul\":197:198   */\n          0x00\n            /* \"#utility.yul\":194:195   */\n          dup1\n            /* \"#utility.yul\":187:199   */\n          revert\n            /* \"#utility.yul\":211:328   */\n        tag_22:\n            /* \"#utility.yul\":320:321   */\n          0x00\n            /* \"#utility.yul\":317:318   */\n          dup1\n            /* \"#utility.yul\":310:322   */\n          revert\n            /* \"#utility.yul\":334:411   */\n        tag_23:\n            /* \"#utility.yul\":371:378   */\n          0x00\n            /* \"#utility.yul\":400:405   */\n          dup2\n            /* \"#utility.yul\":389:405   */\n          swap1\n          pop\n            /* \"#utility.yul\":334:411   */\n          swap2\n          swap1\n          pop\n          jump\t// out\n            /* \"#utility.yul\":417:539   */\n        tag_24:\n            /* \"#utility.yul\":490:514   */\n          tag_47\n            /* \"#utility.yul\":508:513   */\n          dup2\n            /* \"#utility.yul\":490:514   */\n          tag_23\n          jump\t// in\n        tag_47:\n            /* \"#utility.yul\":483:488   */\n          dup2\n            /* \"#utility.yul\":480:515   */\n          eq\n            /* \"#utility.yul\":470:533   */\n          tag_48\n          jumpi\n            /* \"#utility.yul\":529:530   */\n          0x00\n            /* \"#utility.yul\":526:527   */\n          dup1\n            /* \"#utility.yul\":519:531   */\n          revert\n            /* \"#utility.yul\":470:533   */\n        tag_48:\n            /* \"#utility.yul\":417:539   */\n          pop\n          jump\t// out\n            /* \"#utility.yul\":545:688   */\n        tag_25:\n            /* \"#utility.yul\":602:607   */\n          0x00\n            /* \"#utility.yul\":633:639   */\n          dup2\n            /* \"#utility.yul\":627:640   */\n          mload\n            /* \"#utility.yul\":618:640   */\n          swap1\n          pop\n            /* \"#utility.yul\":649:682   */\n          tag_50\n            /* \"#utility.yul\":676:681   */\n          dup2\n            /* \"#utility.yul\":649:682   */\n          tag_24\n          jump\t// in\n        tag_50:\n            /* \"#utility.yul\":545:688   */\n          swap3\n          swap2\n          pop\n          pop\n          jump\t// out\n            /* \"#utility.yul\":694:820   */\n        tag_26:\n            /* \"#utility.yul\":731:738   */\n          0x00\n            /* \"#utility.yul\":771:813   */\n          0xffffffffffffffffffffffffffffffffffffffff\n            /* \"#utility.yul\":764:769   */\n          dup3\n            /* \"#utility.yul\":760:814   */\n          and\n            /* \"#utility.yul\":749:814   */\n          swap1\n          pop\n            /* \"#utility.yul\":694:820   */\n          swap2\n          swap1\n          pop\n          jump\t// out\n            /* \"#utility.yul\":826:922   */\n        tag_27:\n            /* \"#utility.yul\":863:870   */\n          0x00\n            /* \"#utility.yul\":892:916   */\n          tag_53\n            /* \"#utility.yul\":910:915   */\n          dup3\n            /* \"#utility.yul\":892:916   */\n          tag_26\n          jump\t// in\n        tag_53:\n            /* \"#utility.yul\":881:916   */\n          swap1\n          pop\n            /* \"#utility.yul\":826:922   */\n          swap2\n          swap1\n          pop\n          jump\t// out\n            /* \"#utility.yul\":928:1050   */\n        tag_28:\n            /* \"#utility.yul\":1001:1025   */\n          tag_55\n            /* \"#utility.yul\":1019:1024   */\n          dup2\n            /* \"#utility.yul\":1001:1025   */\n          tag_27\n          jump\t// in\n        tag_55:\n            /* \"#utility.yul\":994:999   */\n          dup2\n            /* \"#utility.yul\":991:1026   */\n          eq\n            /* \"#utility.yul\":981:1044   */\n          tag_56\n          jumpi\n            /* \"#utility.yul\":1040:1041   */\n          0x00\n            /* \"#utility.yul\":1037:1038   */\n          dup1\n            /* \"#utility.yul\":1030:1042   */\n          revert\n            /* \"#utility.yul\":981:1044   */\n        tag_56:\n            /* \"#utility.yul\":928:1050   */\n          pop\n          jump\t// out\n            /* \"#utility.yul\":1056:1199   */\n        tag_29:\n            /* \"#utility.yul\":1113:1118   */\n          0x00\n            /* \"#utility.yul\":1144:1150   */\n          dup2\n            /* \"#utility.yul\":1138:1151   */\n          mload\n            /* \"#utility.yul\":1129:1151   */\n          swap1\n          pop\n            /* \"#utility.yul\":1160:1193   */\n          tag_58\n            /* \"#utility.yul\":1187:1192   */\n          dup2\n            /* \"#utility.yul\":1160:1193   */\n          tag_28\n          jump\t// in\n        tag_58:\n            /* \"#utility.yul\":1056:1199   */\n          swap3\n          swap2\n          pop\n          pop\n          jump\t// out\n            /* \"#utility.yul\":1205:1322   */\n        tag_30:\n            /* \"#utility.yul\":1314:1315   */\n          0x00\n            /* \"#utility.yul\":1311:1312   */\n          dup1\n            /* \"#utility.yul\":1304:1316   */\n          revert\n            /* \"#utility.yul\":1328:1445   */\n        tag_31:\n            /* \"#utility.yul\":1437:1438   */\n          0x00\n            /* \"#utility.yul\":1434:1435   */\n          dup1\n            /* \"#utility.yul\":1427:1439   */\n          revert\n            /* \"#utility.yul\":1451:1553   */\n        tag_32:\n            /* \"#utility.yul\":1492:1498   */\n          0x00\n            /* \"#utility.yul\":1543:1545   */\n          0x1f\n            /* \"#utility.yul\":1539:1546   */\n          not\n            /* \"#utility.yul\":1534:1536   */\n          0x1f\n            /* \"#utility.yul\":1527:1532   */\n          dup4\n            /* \"#utility.yul\":1523:1537   */\n          add\n            /* \"#utility.yul\":1519:1547   */\n          and\n            /* \"#utility.yul\":1509:1547   */\n          swap1\n          pop\n            /* \"#utility.yul\":1451:1553   */\n          swap2\n          swap1\n          pop\n          jump\t// out\n            /* \"#utility.yul\":1559:1739   */\n        tag_33:\n            /* \"#utility.yul\":1607:1684   */\n          0x4e487b7100000000000000000000000000000000000000000000000000000000\n            /* \"#utility.yul\":1604:1605   */\n          0x00\n            /* \"#utility.yul\":1597:1685   */\n          mstore\n            /* \"#utility.yul\":1704:1708   */\n          0x41\n            /* \"#utility.yul\":1701:1702   */\n          0x04\n            /* \"#utility.yul\":1694:1709   */\n          mstore\n            /* \"#utility.yul\":1728:1732   */\n          0x24\n            /* \"#utility.yul\":1725:1726   */\n          0x00\n            /* \"#utility.yul\":1718:1733   */\n          revert\n            /* \"#utility.yul\":1745:2026   */\n        tag_34:\n            /* \"#utility.yul\":1828:1855   */\n          tag_64\n            /* \"#utility.yul\":1850:1854   */\n          dup3\n            /* \"#utility.yul\":1828:1855   */\n          tag_32\n          jump\t// in\n        tag_64:\n            /* \"#utility.yul\":1820:1826   */\n          dup2\n            /* \"#utility.yul\":1816:1856   */\n          add\n            /* \"#utility.yul\":1958:1964   */\n          dup2\n            /* \"#utility.yul\":1946:1956   */\n          dup2\n            /* \"#utility.yul\":1943:1965   */\n          lt\n            /* \"#utility.yul\":1922:1940   */\n          0xffffffffffffffff\n            /* \"#utility.yul\":1910:1920   */\n          dup3\n            /* \"#utility.yul\":1907:1941   */\n          gt\n            /* \"#utility.yul\":1904:1966   */\n          or\n            /* \"#utility.yul\":1901:1989   */\n          iszero\n          tag_65\n          jumpi\n            /* \"#utility.yul\":1969:1987   */\n          tag_66\n          tag_33\n          jump\t// in\n        tag_66:\n            /* \"#utility.yul\":1901:1989   */\n        tag_65:\n            /* \"#utility.yul\":2009:2019   */\n          dup1\n            /* \"#utility.yul\":2005:2007   */\n          0x40\n            /* \"#utility.yul\":1998:2020   */\n          mstore\n            /* \"#utility.yul\":1788:2026   */\n          pop\n            /* \"#utility.yul\":1745:2026   */\n          pop\n          pop\n          jump\t// out\n            /* \"#utility.yul\":2032:2161   */\n        tag_35:\n            /* \"#utility.yul\":2066:2072   */\n          0x00\n            /* \"#utility.yul\":2093:2113   */\n          tag_68\n          tag_20\n          jump\t// in\n        tag_68:\n            /* \"#utility.yul\":2083:2113   */\n          swap1\n          pop\n            /* \"#utility.yul\":2122:2155   */\n          tag_69\n            /* \"#utility.yul\":2150:2154   */\n          dup3\n            /* \"#utility.yul\":2142:2148   */\n          dup3\n            /* \"#utility.yul\":2122:2155   */\n          tag_34\n          jump\t// in\n        tag_69:\n            /* \"#utility.yul\":2032:2161   */\n          swap2\n          swap1\n          pop\n          jump\t// out\n            /* \"#utility.yul\":2167:2475   */\n        tag_36:\n            /* \"#utility.yul\":2229:2233   */\n          0x00\n            /* \"#utility.yul\":2319:2337   */\n          0xffffffffffffffff\n            /* \"#utility.yul\":2311:2317   */\n          dup3\n            /* \"#utility.yul\":2308:2338   */\n          gt\n            /* \"#utility.yul\":2305:2361   */\n          iszero\n          tag_71\n          jumpi\n            /* \"#utility.yul\":2341:2359   */\n          tag_72\n          tag_33\n          jump\t// in\n        tag_72:\n            /* \"#utility.yul\":2305:2361   */\n        tag_71:\n            /* \"#utility.yul\":2379:2408   */\n          tag_73\n            /* \"#utility.yul\":2401:2407   */\n          dup3\n            /* \"#utility.yul\":2379:2408   */\n          tag_32\n          jump\t// in\n        tag_73:\n            /* \"#utility.yul\":2371:2408   */\n          swap1\n          pop\n            /* \"#utility.yul\":2463:2467   */\n          0x20\n            /* \"#utility.yul\":2457:2461   */\n          dup2\n            /* \"#utility.yul\":2453:2468   */\n          add\n            /* \"#utility.yul\":2445:2468   */\n          swap1\n          pop\n            /* \"#utility.yul\":2167:2475   */\n          swap2\n          swap1\n          pop\n          jump\t// out\n            /* \"#utility.yul\":2481:2788   */\n        tag_37:\n            /* \"#utility.yul\":2549:2550   */\n          0x00\n            /* \"#utility.yul\":2559:2672   */\n        tag_75:\n            /* \"#utility.yul\":2573:2579   */\n          dup4\n            /* \"#utility.yul\":2570:2571   */\n          dup2\n            /* \"#utility.yul\":2567:2580   */\n          lt\n            /* \"#utility.yul\":2559:2672   */\n          iszero\n          tag_77\n          jumpi\n            /* \"#utility.yul\":2658:2659   */\n          dup1\n            /* \"#utility.yul\":2653:2656   */\n          dup3\n            /* \"#utility.yul\":2649:2660   */\n          add\n            /* \"#utility.yul\":2643:2661   */\n          mload\n            /* \"#utility.yul\":2639:2640   */\n          dup2\n            /* \"#utility.yul\":2634:2637   */\n          dup5\n            /* \"#utility.yul\":2630:2641   */\n          add\n            /* \"#utility.yul\":2623:2662   */\n          mstore\n            /* \"#utility.yul\":2595:2597   */\n          0x20\n            /* \"#utility.yul\":2592:2593   */\n          dup2\n            /* \"#utility.yul\":2588:2598   */\n          add\n            /* \"#utility.yul\":2583:2598   */\n          swap1\n          pop\n            /* \"#utility.yul\":2559:2672   */\n          jump(tag_75)\n        tag_77:\n            /* \"#utility.yul\":2690:2696   */\n          dup4\n            /* \"#utility.yul\":2687:2688   */\n          dup2\n            /* \"#utility.yul\":2684:2697   */\n          gt\n            /* \"#utility.yul\":2681:2782   */\n          iszero\n          tag_78\n          jumpi\n            /* \"#utility.yul\":2770:2771   */\n          0x00\n            /* \"#utility.yul\":2761:2767   */\n          dup5\n            /* \"#utility.yul\":2756:2759   */\n          dup5\n            /* \"#utility.yul\":2752:2768   */\n          add\n            /* \"#utility.yul\":2745:2772   */\n          mstore\n            /* \"#utility.yul\":2681:2782   */\n        tag_78:\n            /* \"#utility.yul\":2530:2788   */\n          pop\n            /* \"#utility.yul\":2481:2788   */\n          pop\n          pop\n          pop\n          jump\t// out\n            /* \"#utility.yul\":2794:3215   */\n        tag_38:\n            /* \"#utility.yul\":2883:2888   */\n          0x00\n            /* \"#utility.yul\":2908:2974   */\n          tag_80\n            /* \"#utility.yul\":2924:2973   */\n          tag_81\n            /* \"#utility.yul\":2966:2972   */\n          dup5\n            /* \"#utility.yul\":2924:2973   */\n          tag_36\n          jump\t// in\n        tag_81:\n            /* \"#utility.yul\":2908:2974   */\n          tag_35\n          jump\t// in\n        tag_80:\n            /* \"#utility.yul\":2899:2974   */\n          swap1\n          pop\n            /* \"#utility.yul\":2997:3003   */\n          dup3\n            /* \"#utility.yul\":2990:2995   */\n          dup2\n            /* \"#utility.yul\":2983:3004   */\n          mstore\n            /* \"#utility.yul\":3035:3039   */\n          0x20\n            /* \"#utility.yul\":3028:3033   */\n          dup2\n            /* \"#utility.yul\":3024:3040   */\n          add\n            /* \"#utility.yul\":3073:3076   */\n          dup5\n            /* \"#utility.yul\":3064:3070   */\n          dup5\n            /* \"#utility.yul\":3059:3062   */\n          dup5\n            /* \"#utility.yul\":3055:3071   */\n          add\n            /* \"#utility.yul\":3052:3077   */\n          gt\n            /* \"#utility.yul\":3049:3161   */\n          iszero\n          tag_82\n          jumpi\n            /* \"#utility.yul\":3080:3159   */\n          tag_83\n          tag_31\n          jump\t// in\n        tag_83:\n            /* \"#utility.yul\":3049:3161   */\n        tag_82:\n            /* \"#utility.yul\":3170:3209   */\n          tag_84\n            /* \"#utility.yul\":3202:3208   */\n          dup5\n            /* \"#utility.yul\":3197:3200   */\n          dup3\n            /* \"#utility.yul\":3192:3195   */\n          dup6\n            /* \"#utility.yul\":3170:3209   */\n          tag_37\n          jump\t// in\n        tag_84:\n            /* \"#utility.yul\":2889:3215   */\n          pop\n            /* \"#utility.yul\":2794:3215   */\n          swap4\n          swap3\n          pop\n          pop\n          pop\n          jump\t// out\n            /* \"#utility.yul\":3235:3590   */\n        tag_39:\n            /* \"#utility.yul\":3302:3307   */\n          0x00\n            /* \"#utility.yul\":3351:3354   */\n          dup3\n            /* \"#utility.yul\":3344:3348   */\n          0x1f\n            /* \"#utility.yul\":3336:3342   */\n          dup4\n            /* \"#utility.yul\":3332:3349   */\n          add\n            /* \"#utility.yul\":3328:3355   */\n          slt\n            /* \"#utility.yul\":3318:3440   */\n          tag_86\n          jumpi\n            /* \"#utility.yul\":3359:3438   */\n          tag_87\n          tag_30\n          jump\t// in\n        tag_87:\n            /* \"#utility.yul\":3318:3440   */\n        tag_86:\n            /* \"#utility.yul\":3469:3475   */\n          dup2\n            /* \"#utility.yul\":3463:3476   */\n          mload\n            /* \"#utility.yul\":3494:3584   */\n          tag_88\n            /* \"#utility.yul\":3580:3583   */\n          dup5\n            /* \"#utility.yul\":3572:3578   */\n          dup3\n            /* \"#utility.yul\":3565:3569   */\n          0x20\n            /* \"#utility.yul\":3557:3563   */\n          dup7\n            /* \"#utility.yul\":3553:3570   */\n          add\n            /* \"#utility.yul\":3494:3584   */\n          tag_38\n          jump\t// in\n        tag_88:\n            /* \"#utility.yul\":3485:3584   */\n          swap2\n          pop\n            /* \"#utility.yul\":3308:3590   */\n          pop\n            /* \"#utility.yul\":3235:3590   */\n          swap3\n          swap2\n          pop\n          pop\n          jump\t// out\n            /* \"#utility.yul\":3596:4432   */\n        tag_3:\n            /* \"#utility.yul\":3694:3700   */\n          0x00\n            /* \"#utility.yul\":3702:3708   */\n          dup1\n            /* \"#utility.yul\":3710:3716   */\n          0x00\n            /* \"#utility.yul\":3759:3761   */\n          0x60\n            /* \"#utility.yul\":3747:3756   */\n          dup5\n            /* \"#utility.yul\":3738:3745   */\n          dup7\n            /* \"#utility.yul\":3734:3757   */\n          sub\n            /* \"#utility.yul\":3730:3762   */\n          slt\n            /* \"#utility.yul\":3727:3846   */\n          iszero\n          tag_90\n          jumpi\n            /* \"#utility.yul\":3765:3844   */\n          tag_91\n          tag_21\n          jump\t// in\n        tag_91:\n            /* \"#utility.yul\":3727:3846   */\n        tag_90:\n            /* \"#utility.yul\":3885:3886   */\n          0x00\n            /* \"#utility.yul\":3910:3974   */\n          tag_92\n            /* \"#utility.yul\":3966:3973   */\n          dup7\n            /* \"#utility.yul\":3957:3963   */\n          dup3\n            /* \"#utility.yul\":3946:3955   */\n          dup8\n            /* \"#utility.yul\":3942:3964   */\n          add\n            /* \"#utility.yul\":3910:3974   */\n          tag_25\n          jump\t// in\n        tag_92:\n            /* \"#utility.yul\":3900:3974   */\n          swap4\n          pop\n            /* \"#utility.yul\":3856:3984   */\n          pop\n            /* \"#utility.yul\":4023:4025   */\n          0x20\n            /* \"#utility.yul\":4049:4113   */\n          tag_93\n            /* \"#utility.yul\":4105:4112   */\n          dup7\n            /* \"#utility.yul\":4096:4102   */\n          dup3\n            /* \"#utility.yul\":4085:4094   */\n          dup8\n            /* \"#utility.yul\":4081:4103   */\n          add\n            /* \"#utility.yul\":4049:4113   */\n          tag_29\n          jump\t// in\n        tag_93:\n            /* \"#utility.yul\":4039:4113   */\n          swap3\n          pop\n            /* \"#utility.yul\":3994:4123   */\n          pop\n            /* \"#utility.yul\":4183:4185   */\n          0x40\n            /* \"#utility.yul\":4172:4181   */\n          dup5\n            /* \"#utility.yul\":4168:4186   */\n          add\n            /* \"#utility.yul\":4162:4187   */\n          mload\n            /* \"#utility.yul\":4214:4232   */\n          0xffffffffffffffff\n            /* \"#utility.yul\":4206:4212   */\n          dup2\n            /* \"#utility.yul\":4203:4233   */\n          gt\n            /* \"#utility.yul\":4200:4317   */\n          iszero\n          tag_94\n          jumpi\n            /* \"#utility.yul\":4236:4315   */\n          tag_95\n          tag_22\n          jump\t// in\n        tag_95:\n            /* \"#utility.yul\":4200:4317   */\n        tag_94:\n            /* \"#utility.yul\":4341:4415   */\n          tag_96\n            /* \"#utility.yul\":4407:4414   */\n          dup7\n            /* \"#utility.yul\":4398:4404   */\n          dup3\n            /* \"#utility.yul\":4387:4396   */\n          dup8\n            /* \"#utility.yul\":4383:4405   */\n          add\n            /* \"#utility.yul\":4341:4415   */\n          tag_39\n          jump\t// in\n        tag_96:\n            /* \"#utility.yul\":4331:4415   */\n          swap2\n          pop\n            /* \"#utility.yul\":4133:4425   */\n          pop\n            /* \"#utility.yul\":3596:4432   */\n          swap3\n          pop\n          swap3\n          pop\n          swap3\n          jump\t// out\n            /* \"#utility.yul\":4438:4618   */\n        tag_40:\n            /* \"#utility.yul\":4486:4563   */\n          0x4e487b7100000000000000000000000000000000000000000000000000000000\n            /* \"#utility.yul\":4483:4484   */\n          0x00\n            /* \"#utility.yul\":4476:4564   */\n          mstore\n            /* \"#utility.yul\":4583:4587   */\n          0x22\n            /* \"#utility.yul\":4580:4581   */\n          0x04\n            /* \"#utility.yul\":4573:4588   */\n          mstore\n            /* \"#utility.yul\":4607:4611   */\n          0x24\n            /* \"#utility.yul\":4604:4605   */\n          0x00\n            /* \"#utility.yul\":4597:4612   */\n          revert\n            /* \"#utility.yul\":4624:4944   */\n        tag_10:\n            /* \"#utility.yul\":4668:4674   */\n          0x00\n            /* \"#utility.yul\":4705:4706   */\n          0x02\n            /* \"#utility.yul\":4699:4703   */\n          dup3\n            /* \"#utility.yul\":4695:4707   */\n          div\n            /* \"#utility.yul\":4685:4707   */\n          swap1\n          pop\n            /* \"#utility.yul\":4752:4753   */\n          0x01\n            /* \"#utility.yul\":4746:4750   */\n          dup3\n            /* \"#utility.yul\":4742:4754   */\n          and\n            /* \"#utility.yul\":4773:4791   */\n          dup1\n            /* \"#utility.yul\":4763:4844   */\n          tag_99\n          jumpi\n            /* \"#utility.yul\":4829:4833   */\n          0x7f\n            /* \"#utility.yul\":4821:4827   */\n          dup3\n            /* \"#utility.yul\":4817:4834   */\n          and\n            /* \"#utility.yul\":4807:4834   */\n          swap2\n          pop\n            /* \"#utility.yul\":4763:4844   */\n        tag_99:\n            /* \"#utility.yul\":4891:4893   */\n          0x20\n            /* \"#utility.yul\":4883:4889   */\n          dup3\n            /* \"#utility.yul\":4880:4894   */\n          lt\n            /* \"#utility.yul\":4860:4878   */\n          dup2\n            /* \"#utility.yul\":4857:4895   */\n          eq\n            /* \"#utility.yul\":4854:4938   */\n          iszero\n          tag_100\n          jumpi\n            /* \"#utility.yul\":4910:4928   */\n          tag_101\n          tag_40\n          jump\t// in\n        tag_101:\n            /* \"#utility.yul\":4854:4938   */\n        tag_100:\n            /* \"#utility.yul\":4675:4944   */\n          pop\n            /* \"#utility.yul\":4624:4944   */\n          swap2\n          swap1\n          pop\n          jump\t// out\n            /* \"Campaign.sol\":488:2676  contract Campaign {... */\n        tag_8:\n          dataSize(sub_0)\n          dup1\n          dataOffset(sub_0)\n          0x00\n          codecopy\n          0x00\n          return\n        stop\n\n        sub_0: assembly {\n                /* \"Campaign.sol\":488:2676  contract Campaign {... */\n              mstore(0x40, 0x80)\n              jumpi(tag_1, lt(calldatasize, 0x04))\n              shr(0xe0, calldataload(0x00))\n              dup1\n              0x81d12c58\n              gt\n              tag_14\n              jumpi\n              dup1\n              0x81d12c58\n              eq\n              tag_8\n              jumpi\n              dup1\n              0x82fde093\n              eq\n              tag_9\n              jumpi\n              dup1\n              0x8a9cfd55\n              eq\n              tag_10\n              jumpi\n              dup1\n              0x937e09b1\n              eq\n              tag_11\n              jumpi\n              dup1\n              0xd7bb99ba\n              eq\n              tag_12\n              jumpi\n              dup1\n              0xd7d1bbdb\n              eq\n              tag_13\n              jumpi\n              jump(tag_1)\n            tag_14:\n              dup1\n              0x03441006\n              eq\n              tag_2\n              jumpi\n              dup1\n              0x0a144391\n              eq\n              tag_3\n              jumpi\n              dup1\n              0x3410452a\n              eq\n              tag_4\n              jumpi\n              dup1\n              0x4051ddac\n              eq\n              tag_5\n              jumpi\n              dup1\n              0x481c6a75\n              eq\n              tag_6\n              jumpi\n              dup1\n              0x7284e416\n              eq\n              tag_7\n              jumpi\n            tag_1:\n              0x00\n              dup1\n              revert\n                /* \"Campaign.sol\":1975:2282  function finalizeRequest(uint index) public restricted {... */\n            tag_2:\n              callvalue\n              dup1\n              iszero\n              tag_15\n              jumpi\n              0x00\n              dup1\n              revert\n            tag_15:\n              pop\n              tag_16\n              0x04\n              dup1\n              calldatasize\n              sub\n              dup2\n              add\n              swap1\n              tag_17\n              swap2\n              swap1\n              tag_18\n              jump\t// in\n            tag_17:\n              tag_19\n              jump\t// in\n            tag_16:\n              stop\n                /* \"Campaign.sol\":837:878  mapping(address => bool) public approvers */\n            tag_3:\n              callvalue\n              dup1\n              iszero\n              tag_20\n              jumpi\n              0x00\n              dup1\n              revert\n            tag_20:\n              pop\n              tag_21\n              0x04\n              dup1\n              calldatasize\n              sub\n              dup2\n              add\n              swap1\n              tag_22\n              swap2\n              swap1\n              tag_23\n              jump\t// in\n            tag_22:\n              tag_24\n              jump\t// in\n            tag_21:\n              mload(0x40)\n              tag_25\n              swap2\n              swap1\n              tag_26\n              jump\t// in\n            tag_25:\n              mload(0x40)\n              dup1\n              swap2\n              sub\n              swap1\n              return\n                /* \"Campaign.sol\":2580:2674  function getRequestsCount() public view returns (uint) {... */\n            tag_4:\n              callvalue\n              dup1\n              iszero\n              tag_27\n              jumpi\n              0x00\n              dup1\n              revert\n            tag_27:\n              pop\n              tag_28\n              tag_29\n              jump\t// in\n            tag_28:\n              mload(0x40)\n              tag_30\n              swap2\n              swap1\n              tag_31\n              jump\t// in\n            tag_30:\n              mload(0x40)\n              dup1\n              swap2\n              sub\n              swap1\n              return\n                /* \"Campaign.sol\":2288:2574  function getSummary() public view returns (... */\n            tag_5:\n              callvalue\n              dup1\n              iszero\n              tag_32\n              jumpi\n              0x00\n              dup1\n              revert\n            tag_32:\n              pop\n              tag_33\n              tag_34\n              jump\t// in\n            tag_33:\n              mload(0x40)\n              tag_35\n              swap7\n              swap6\n              swap5\n              swap4\n              swap3\n              swap2\n              swap1\n              tag_36\n              jump\t// in\n            tag_35:\n              mload(0x40)\n              dup1\n              swap2\n              sub\n              swap1\n              return\n                /* \"Campaign.sol\":741:763  address public manager */\n            tag_6:\n              callvalue\n              dup1\n              iszero\n              tag_37\n              jumpi\n              0x00\n              dup1\n              revert\n            tag_37:\n              pop\n              tag_38\n              tag_39\n              jump\t// in\n            tag_38:\n              mload(0x40)\n              tag_40\n              swap2\n              swap1\n              tag_41\n              jump\t// in\n            tag_40:\n              mload(0x40)\n              dup1\n              swap2\n              sub\n              swap1\n              return\n                /* \"Campaign.sol\":769:794  string public description */\n            tag_7:\n              callvalue\n              dup1\n              iszero\n              tag_42\n              jumpi\n              0x00\n              dup1\n              revert\n            tag_42:\n              pop\n              tag_43\n              tag_44\n              jump\t// in\n            tag_43:\n              mload(0x40)\n              tag_45\n              swap2\n              swap1\n              tag_46\n              jump\t// in\n            tag_45:\n              mload(0x40)\n              dup1\n              swap2\n              sub\n              swap1\n              return\n                /* \"Campaign.sol\":710:735  Request[] public requests */\n            tag_8:\n              callvalue\n              dup1\n              iszero\n              tag_47\n              jumpi\n              0x00\n              dup1\n              revert\n            tag_47:\n              pop\n              tag_48\n              0x04\n              dup1\n              calldatasize\n              sub\n              dup2\n              add\n              swap1\n              tag_49\n              swap2\n              swap1\n              tag_18\n              jump\t// in\n            tag_49:\n              tag_50\n              jump\t// in\n            tag_48:\n              mload(0x40)\n              tag_51\n              swap6\n              swap5\n              swap4\n              swap3\n              swap2\n              swap1\n              tag_52\n              jump\t// in\n            tag_51:\n              mload(0x40)\n              dup1\n              swap2\n              sub\n              swap1\n              return\n                /* \"Campaign.sol\":884:910  uint public approversCount */\n            tag_9:\n              callvalue\n              dup1\n              iszero\n              tag_53\n              jumpi\n              0x00\n              dup1\n              revert\n            tag_53:\n              pop\n              tag_54\n              tag_55\n              jump\t// in\n            tag_54:\n              mload(0x40)\n              tag_56\n              swap2\n              swap1\n              tag_31\n              jump\t// in\n            tag_56:\n              mload(0x40)\n              dup1\n              swap2\n              sub\n              swap1\n              return\n                /* \"Campaign.sol\":1339:1692  function createRequest(string memory description, uint value, address recipient) public restricted {... */\n            tag_10:\n              callvalue\n              dup1\n              iszero\n              tag_57\n              jumpi\n              0x00\n              dup1\n              revert\n            tag_57:\n              pop\n              tag_58\n              0x04\n              dup1\n              calldatasize\n              sub\n              dup2\n              add\n              swap1\n              tag_59\n              swap2\n              swap1\n              tag_60\n              jump\t// in\n            tag_59:\n              tag_61\n              jump\t// in\n            tag_58:\n              stop\n                /* \"Campaign.sol\":800:831  uint public minimumContribution */\n            tag_11:\n              callvalue\n              dup1\n              iszero\n              tag_62\n              jumpi\n              0x00\n              dup1\n              revert\n            tag_62:\n              pop\n              tag_63\n              tag_64\n              jump\t// in\n            tag_63:\n              mload(0x40)\n              tag_65\n              swap2\n              swap1\n              tag_31\n              jump\t// in\n            tag_65:\n              mload(0x40)\n              dup1\n              swap2\n              sub\n              swap1\n              return\n                /* \"Campaign.sol\":1174:1333  function contribute() public payable {... */\n            tag_12:\n              tag_66\n              tag_67\n              jump\t// in\n            tag_66:\n              stop\n                /* \"Campaign.sol\":1698:1969  function approveRequest(uint index) public {... */\n            tag_13:\n              callvalue\n              dup1\n              iszero\n              tag_68\n              jumpi\n              0x00\n              dup1\n              revert\n            tag_68:\n              pop\n              tag_69\n              0x04\n              dup1\n              calldatasize\n              sub\n              dup2\n              add\n              swap1\n              tag_70\n              swap2\n              swap1\n              tag_18\n              jump\t// in\n            tag_70:\n              tag_71\n              jump\t// in\n            tag_69:\n              stop\n                /* \"Campaign.sol\":1975:2282  function finalizeRequest(uint index) public restricted {... */\n            tag_19:\n                /* \"Campaign.sol\":971:978  manager */\n              0x01\n              0x00\n              swap1\n              sload\n              swap1\n              0x0100\n              exp\n              swap1\n              div\n              0xffffffffffffffffffffffffffffffffffffffff\n              and\n                /* \"Campaign.sol\":957:978  msg.sender == manager */\n              0xffffffffffffffffffffffffffffffffffffffff\n              and\n                /* \"Campaign.sol\":957:967  msg.sender */\n              caller\n                /* \"Campaign.sol\":957:978  msg.sender == manager */\n              0xffffffffffffffffffffffffffffffffffffffff\n              and\n              eq\n                /* \"Campaign.sol\":949:979  require(msg.sender == manager) */\n              tag_73\n              jumpi\n              0x00\n              dup1\n              revert\n            tag_73:\n                /* \"Campaign.sol\":2040:2063  Request storage request */\n              0x00\n                /* \"Campaign.sol\":2066:2074  requests */\n              dup1\n                /* \"Campaign.sol\":2075:2080  index */\n              dup3\n                /* \"Campaign.sol\":2066:2081  requests[index] */\n              dup2\n              sload\n              dup2\n              lt\n              tag_75\n              jumpi\n              tag_76\n              tag_77\n              jump\t// in\n            tag_76:\n            tag_75:\n              swap1\n              0x00\n              mstore\n              keccak256(0x00, 0x20)\n              swap1\n              0x05\n              mul\n              add\n                /* \"Campaign.sol\":2040:2081  Request storage request = requests[index] */\n              swap1\n              pop\n                /* \"Campaign.sol\":2142:2143  2 */\n              0x02\n                /* \"Campaign.sol\":2125:2139  approversCount */\n              sload(0x05)\n                /* \"Campaign.sol\":2125:2143  approversCount / 2 */\n              tag_79\n              swap2\n              swap1\n              tag_80\n              jump\t// in\n            tag_79:\n                /* \"Campaign.sol\":2100:2107  request */\n              dup2\n                /* \"Campaign.sol\":2100:2121  request.approvalCount */\n              0x03\n              add\n              sload\n                /* \"Campaign.sol\":2100:2144  request.approvalCount > (approversCount / 2) */\n              gt\n                /* \"Campaign.sol\":2092:2145  require(request.approvalCount > (approversCount / 2)) */\n              tag_81\n              jumpi\n              0x00\n              dup1\n              revert\n            tag_81:\n                /* \"Campaign.sol\":2164:2171  request */\n              dup1\n                /* \"Campaign.sol\":2164:2180  request.complete */\n              0x02\n              add\n              0x14\n              swap1\n              sload\n              swap1\n              0x0100\n              exp\n              swap1\n              div\n              0xff\n              and\n                /* \"Campaign.sol\":2163:2180  !request.complete */\n              iszero\n                /* \"Campaign.sol\":2155:2181  require(!request.complete) */\n              tag_82\n              jumpi\n              0x00\n              dup1\n              revert\n            tag_82:\n                /* \"Campaign.sol\":2200:2207  request */\n              dup1\n                /* \"Campaign.sol\":2200:2217  request.recipient */\n              0x02\n              add\n              0x00\n              swap1\n              sload\n              swap1\n              0x0100\n              exp\n              swap1\n              div\n              0xffffffffffffffffffffffffffffffffffffffff\n              and\n                /* \"Campaign.sol\":2192:2227  payable(request.recipient).transfer */\n              0xffffffffffffffffffffffffffffffffffffffff\n              and\n                /* \"Campaign.sol\":2192:2242  payable(request.recipient).transfer(request.value) */\n              0x08fc\n                /* \"Campaign.sol\":2228:2235  request */\n              dup3\n                /* \"Campaign.sol\":2228:2241  request.value */\n              0x01\n              add\n              sload\n                /* \"Campaign.sol\":2192:2242  payable(request.recipient).transfer(request.value) */\n              swap1\n              dup2\n              iszero\n              mul\n              swap1\n              mload(0x40)\n              0x00\n              mload(0x40)\n              dup1\n              dup4\n              sub\n              dup2\n              dup6\n              dup9\n              dup9\n              call\n              swap4\n              pop\n              pop\n              pop\n              pop\n              iszero\n              dup1\n              iszero\n              tag_84\n              jumpi\n              returndatasize\n              0x00\n              dup1\n              returndatacopy\n              revert(0x00, returndatasize)\n            tag_84:\n              pop\n                /* \"Campaign.sol\":2271:2275  true */\n              0x01\n                /* \"Campaign.sol\":2252:2259  request */\n              dup2\n                /* \"Campaign.sol\":2252:2268  request.complete */\n              0x02\n              add\n              0x14\n                /* \"Campaign.sol\":2252:2275  request.complete = true */\n              0x0100\n              exp\n              dup2\n              sload\n              dup2\n              0xff\n              mul\n              not\n              and\n              swap1\n              dup4\n              iszero\n              iszero\n              mul\n              or\n              swap1\n              sstore\n              pop\n                /* \"Campaign.sol\":2030:2282  {... */\n              pop\n                /* \"Campaign.sol\":1975:2282  function finalizeRequest(uint index) public restricted {... */\n              pop\n              jump\t// out\n                /* \"Campaign.sol\":837:878  mapping(address => bool) public approvers */\n            tag_24:\n              mstore(0x20, 0x04)\n              dup1\n              0x00\n              mstore\n              keccak256(0x00, 0x40)\n              0x00\n              swap2\n              pop\n              sload\n              swap1\n              0x0100\n              exp\n              swap1\n              div\n              0xff\n              and\n              dup2\n              jump\t// out\n                /* \"Campaign.sol\":2580:2674  function getRequestsCount() public view returns (uint) {... */\n            tag_29:\n                /* \"Campaign.sol\":2629:2633  uint */\n              0x00\n                /* \"Campaign.sol\":2652:2660  requests */\n              dup1\n                /* \"Campaign.sol\":2652:2667  requests.length */\n              dup1\n              sload\n              swap1\n              pop\n                /* \"Campaign.sol\":2645:2667  return requests.length */\n              swap1\n              pop\n                /* \"Campaign.sol\":2580:2674  function getRequestsCount() public view returns (uint) {... */\n              swap1\n              jump\t// out\n                /* \"Campaign.sol\":2288:2574  function getSummary() public view returns (... */\n            tag_34:\n                /* \"Campaign.sol\":2340:2344  uint */\n              0x00\n                /* \"Campaign.sol\":2346:2350  uint */\n              dup1\n                /* \"Campaign.sol\":2352:2356  uint */\n              0x00\n                /* \"Campaign.sol\":2358:2362  uint */\n              dup1\n                /* \"Campaign.sol\":2364:2371  address */\n              0x00\n                /* \"Campaign.sol\":2373:2386  string memory */\n              0x60\n                /* \"Campaign.sol\":2420:2439  minimumContribution */\n              sload(0x03)\n                /* \"Campaign.sol\":2449:2470  address(this).balance */\n              selfbalance\n                /* \"Campaign.sol\":2480:2488  requests */\n              0x00\n                /* \"Campaign.sol\":2480:2495  requests.length */\n              dup1\n              sload\n              swap1\n              pop\n                /* \"Campaign.sol\":2505:2519  approversCount */\n              sload(0x05)\n                /* \"Campaign.sol\":2529:2536  manager */\n              0x01\n              0x00\n              swap1\n              sload\n              swap1\n              0x0100\n              exp\n              swap1\n              div\n              0xffffffffffffffffffffffffffffffffffffffff\n              and\n                /* \"Campaign.sol\":2546:2557  description */\n              0x02\n                /* \"Campaign.sol\":2403:2567  return (... */\n              dup1\n              dup1\n              sload\n              tag_87\n              swap1\n              tag_88\n              jump\t// in\n            tag_87:\n              dup1\n              0x1f\n              add\n              0x20\n              dup1\n              swap2\n              div\n              mul\n              0x20\n              add\n              mload(0x40)\n              swap1\n              dup2\n              add\n              0x40\n              mstore\n              dup1\n              swap3\n              swap2\n              swap1\n              dup2\n              dup2\n              mstore\n              0x20\n              add\n              dup3\n              dup1\n              sload\n              tag_89\n              swap1\n              tag_88\n              jump\t// in\n            tag_89:\n              dup1\n              iszero\n              tag_90\n              jumpi\n              dup1\n              0x1f\n              lt\n              tag_91\n              jumpi\n              0x0100\n              dup1\n              dup4\n              sload\n              div\n              mul\n              dup4\n              mstore\n              swap2\n              0x20\n              add\n              swap2\n              jump(tag_90)\n            tag_91:\n              dup3\n              add\n              swap2\n              swap1\n              0x00\n              mstore\n              keccak256(0x00, 0x20)\n              swap1\n            tag_92:\n              dup2\n              sload\n              dup2\n              mstore\n              swap1\n              0x01\n              add\n              swap1\n              0x20\n              add\n              dup1\n              dup4\n              gt\n              tag_92\n              jumpi\n              dup3\n              swap1\n              sub\n              0x1f\n              and\n              dup3\n              add\n              swap2\n            tag_90:\n              pop\n              pop\n              pop\n              pop\n              pop\n              swap1\n              pop\n              swap6\n              pop\n              swap6\n              pop\n              swap6\n              pop\n              swap6\n              pop\n              swap6\n              pop\n              swap6\n              pop\n                /* \"Campaign.sol\":2288:2574  function getSummary() public view returns (... */\n              swap1\n              swap2\n              swap3\n              swap4\n              swap5\n              swap6\n              jump\t// out\n                /* \"Campaign.sol\":741:763  address public manager */\n            tag_39:\n              0x01\n              0x00\n              swap1\n              sload\n              swap1\n              0x0100\n              exp\n              swap1\n              div\n              0xffffffffffffffffffffffffffffffffffffffff\n              and\n              dup2\n              jump\t// out\n                /* \"Campaign.sol\":769:794  string public description */\n            tag_44:\n              0x02\n              dup1\n              sload\n              tag_93\n              swap1\n              tag_88\n              jump\t// in\n            tag_93:\n              dup1\n              0x1f\n              add\n              0x20\n              dup1\n              swap2\n              div\n              mul\n              0x20\n              add\n              mload(0x40)\n              swap1\n              dup2\n              add\n              0x40\n              mstore\n              dup1\n              swap3\n              swap2\n              swap1\n              dup2\n              dup2\n              mstore\n              0x20\n              add\n              dup3\n              dup1\n              sload\n              tag_94\n              swap1\n              tag_88\n              jump\t// in\n            tag_94:\n              dup1\n              iszero\n              tag_95\n              jumpi\n              dup1\n              0x1f\n              lt\n              tag_96\n              jumpi\n              0x0100\n              dup1\n              dup4\n              sload\n              div\n              mul\n              dup4\n              mstore\n              swap2\n              0x20\n              add\n              swap2\n              jump(tag_95)\n            tag_96:\n              dup3\n              add\n              swap2\n              swap1\n              0x00\n              mstore\n              keccak256(0x00, 0x20)\n              swap1\n            tag_97:\n              dup2\n              sload\n              dup2\n              mstore\n              swap1\n              0x01\n              add\n              swap1\n              0x20\n              add\n              dup1\n              dup4\n              gt\n              tag_97\n              jumpi\n              dup3\n              swap1\n              sub\n              0x1f\n              and\n              dup3\n              add\n              swap2\n            tag_95:\n              pop\n              pop\n              pop\n              pop\n              pop\n              dup2\n              jump\t// out\n                /* \"Campaign.sol\":710:735  Request[] public requests */\n            tag_50:\n              0x00\n              dup2\n              dup2\n              sload\n              dup2\n              lt\n              tag_98\n              jumpi\n              0x00\n              dup1\n              revert\n            tag_98:\n              swap1\n              0x00\n              mstore\n              keccak256(0x00, 0x20)\n              swap1\n              0x05\n              mul\n              add\n              0x00\n              swap2\n              pop\n              swap1\n              pop\n              dup1\n              0x00\n              add\n              dup1\n              sload\n              tag_100\n              swap1\n              tag_88\n              jump\t// in\n            tag_100:\n              dup1\n              0x1f\n              add\n              0x20\n              dup1\n              swap2\n              div\n              mul\n              0x20\n              add\n              mload(0x40)\n              swap1\n              dup2\n              add\n              0x40\n              mstore\n              dup1\n              swap3\n              swap2\n              swap1\n              dup2\n              dup2\n              mstore\n              0x20\n              add\n              dup3\n              dup1\n              sload\n              tag_101\n              swap1\n              tag_88\n              jump\t// in\n            tag_101:\n              dup1\n              iszero\n              tag_102\n              jumpi\n              dup1\n              0x1f\n              lt\n              tag_103\n              jumpi\n              0x0100\n              dup1\n              dup4\n              sload\n              div\n              mul\n              dup4\n              mstore\n              swap2\n              0x20\n              add\n              swap2\n              jump(tag_102)\n            tag_103:\n              dup3\n              add\n              swap2\n              swap1\n              0x00\n              mstore\n              keccak256(0x00, 0x20)\n              swap1\n            tag_104:\n              dup2\n              sload\n              dup2\n              mstore\n              swap1\n              0x01\n              add\n              swap1\n              0x20\n              add\n              dup1\n              dup4\n              gt\n              tag_104\n              jumpi\n              dup3\n              swap1\n              sub\n              0x1f\n              and\n              dup3\n              add\n              swap2\n            tag_102:\n              pop\n              pop\n              pop\n              pop\n              pop\n              swap1\n              dup1\n              0x01\n              add\n              sload\n              swap1\n              dup1\n              0x02\n              add\n              0x00\n              swap1\n              sload\n              swap1\n              0x0100\n              exp\n              swap1\n              div\n              0xffffffffffffffffffffffffffffffffffffffff\n              and\n              swap1\n              dup1\n              0x02\n              add\n              0x14\n              swap1\n              sload\n              swap1\n              0x0100\n              exp\n              swap1\n              div\n              0xff\n              and\n              swap1\n              dup1\n              0x03\n              add\n              sload\n              swap1\n              pop\n              dup6\n              jump\t// out\n                /* \"Campaign.sol\":884:910  uint public approversCount */\n            tag_55:\n              sload(0x05)\n              dup2\n              jump\t// out\n                /* \"Campaign.sol\":1339:1692  function createRequest(string memory description, uint value, address recipient) public restricted {... */\n            tag_61:\n                /* \"Campaign.sol\":971:978  manager */\n              0x01\n              0x00\n              swap1\n              sload\n              swap1\n              0x0100\n              exp\n              swap1\n              div\n              0xffffffffffffffffffffffffffffffffffffffff\n              and\n                /* \"Campaign.sol\":957:978  msg.sender == manager */\n              0xffffffffffffffffffffffffffffffffffffffff\n              and\n                /* \"Campaign.sol\":957:967  msg.sender */\n              caller\n                /* \"Campaign.sol\":957:978  msg.sender == manager */\n              0xffffffffffffffffffffffffffffffffffffffff\n              and\n              eq\n                /* \"Campaign.sol\":949:979  require(msg.sender == manager) */\n              tag_106\n              jumpi\n              0x00\n              dup1\n              revert\n            tag_106:\n                /* \"Campaign.sol\":1448:1474  Request storage newRequest */\n              0x00\n                /* \"Campaign.sol\":1477:1485  requests */\n              dup1\n                /* \"Campaign.sol\":1477:1492  requests.push() */\n              0x01\n              dup2\n              0x01\n              dup2\n              sload\n              add\n              dup1\n              dup3\n              sstore\n              dup1\n              swap2\n              pop\n              pop\n              sub\n              swap1\n              0x00\n              mstore\n              keccak256(0x00, 0x20)\n              swap1\n              0x05\n              mul\n              add\n                /* \"Campaign.sol\":1448:1492  Request storage newRequest = requests.push() */\n              swap1\n              pop\n                /* \"Campaign.sol\":1527:1538  description */\n              dup4\n                /* \"Campaign.sol\":1502:1512  newRequest */\n              dup2\n                /* \"Campaign.sol\":1502:1524  newRequest.description */\n              0x00\n              add\n                /* \"Campaign.sol\":1502:1538  newRequest.description = description */\n              swap1\n              dup1\n              mload\n              swap1\n              0x20\n              add\n              swap1\n              tag_109\n              swap3\n              swap2\n              swap1\n              tag_110\n              jump\t// in\n            tag_109:\n              pop\n                /* \"Campaign.sol\":1566:1571  value */\n              dup3\n                /* \"Campaign.sol\":1548:1558  newRequest */\n              dup2\n                /* \"Campaign.sol\":1548:1564  newRequest.value */\n              0x01\n              add\n                /* \"Campaign.sol\":1548:1571  newRequest.value= value */\n              dup2\n              swap1\n              sstore\n              pop\n                /* \"Campaign.sol\":1603:1612  recipient */\n              dup2\n                /* \"Campaign.sol\":1581:1591  newRequest */\n              dup2\n                /* \"Campaign.sol\":1581:1601  newRequest.recipient */\n              0x02\n              add\n              0x00\n                /* \"Campaign.sol\":1581:1612  newRequest.recipient= recipient */\n              0x0100\n              exp\n              dup2\n              sload\n              dup2\n              0xffffffffffffffffffffffffffffffffffffffff\n              mul\n              not\n              and\n              swap1\n              dup4\n              0xffffffffffffffffffffffffffffffffffffffff\n              and\n              mul\n              or\n              swap1\n              sstore\n              pop\n                /* \"Campaign.sol\":1643:1648  false */\n              0x00\n                /* \"Campaign.sol\":1622:1632  newRequest */\n              dup2\n                /* \"Campaign.sol\":1622:1641  newRequest.complete */\n              0x02\n              add\n              0x14\n                /* \"Campaign.sol\":1622:1648  newRequest.complete= false */\n              0x0100\n              exp\n              dup2\n              sload\n              dup2\n              0xff\n              mul\n              not\n              and\n              swap1\n              dup4\n              iszero\n              iszero\n              mul\n              or\n              swap1\n              sstore\n              pop\n                /* \"Campaign.sol\":1684:1685  0 */\n              0x00\n                /* \"Campaign.sol\":1658:1668  newRequest */\n              dup2\n                /* \"Campaign.sol\":1658:1682  newRequest.approvalCount */\n              0x03\n              add\n                /* \"Campaign.sol\":1658:1685  newRequest.approvalCount= 0 */\n              dup2\n              swap1\n              sstore\n              pop\n                /* \"Campaign.sol\":1438:1692  {... */\n              pop\n                /* \"Campaign.sol\":1339:1692  function createRequest(string memory description, uint value, address recipient) public restricted {... */\n              pop\n              pop\n              pop\n              jump\t// out\n                /* \"Campaign.sol\":800:831  uint public minimumContribution */\n            tag_64:\n              sload(0x03)\n              dup2\n              jump\t// out\n                /* \"Campaign.sol\":1174:1333  function contribute() public payable {... */\n            tag_67:\n                /* \"Campaign.sol\":1241:1260  minimumContribution */\n              sload(0x03)\n                /* \"Campaign.sol\":1229:1238  msg.value */\n              callvalue\n                /* \"Campaign.sol\":1229:1260  msg.value > minimumContribution */\n              gt\n                /* \"Campaign.sol\":1221:1261  require(msg.value > minimumContribution) */\n              tag_112\n              jumpi\n              0x00\n              dup1\n              revert\n            tag_112:\n                /* \"Campaign.sol\":1296:1300  true */\n              0x01\n                /* \"Campaign.sol\":1272:1281  approvers */\n              0x04\n                /* \"Campaign.sol\":1272:1293  approvers[msg.sender] */\n              0x00\n                /* \"Campaign.sol\":1282:1292  msg.sender */\n              caller\n                /* \"Campaign.sol\":1272:1293  approvers[msg.sender] */\n              0xffffffffffffffffffffffffffffffffffffffff\n              and\n              0xffffffffffffffffffffffffffffffffffffffff\n              and\n              dup2\n              mstore\n              0x20\n              add\n              swap1\n              dup2\n              mstore\n              0x20\n              add\n              0x00\n              keccak256\n              0x00\n                /* \"Campaign.sol\":1272:1300  approvers[msg.sender] = true */\n              0x0100\n              exp\n              dup2\n              sload\n              dup2\n              0xff\n              mul\n              not\n              and\n              swap1\n              dup4\n              iszero\n              iszero\n              mul\n              or\n              swap1\n              sstore\n              pop\n                /* \"Campaign.sol\":1310:1324  approversCount */\n              0x05\n              0x00\n                /* \"Campaign.sol\":1310:1326  approversCount++ */\n              dup2\n              sload\n              dup1\n              swap3\n              swap2\n              swap1\n              tag_113\n              swap1\n              tag_114\n              jump\t// in\n            tag_113:\n              swap2\n              swap1\n              pop\n              sstore\n              pop\n                /* \"Campaign.sol\":1174:1333  function contribute() public payable {... */\n              jump\t// out\n                /* \"Campaign.sol\":1698:1969  function approveRequest(uint index) public {... */\n            tag_71:\n                /* \"Campaign.sol\":1751:1774  Request storage request */\n              0x00\n                /* \"Campaign.sol\":1777:1785  requests */\n              dup1\n                /* \"Campaign.sol\":1786:1791  index */\n              dup3\n                /* \"Campaign.sol\":1777:1792  requests[index] */\n              dup2\n              sload\n              dup2\n              lt\n              tag_116\n              jumpi\n              tag_117\n              tag_77\n              jump\t// in\n            tag_117:\n            tag_116:\n              swap1\n              0x00\n              mstore\n              keccak256(0x00, 0x20)\n              swap1\n              0x05\n              mul\n              add\n                /* \"Campaign.sol\":1751:1792  Request storage request = requests[index] */\n              swap1\n              pop\n                /* \"Campaign.sol\":1811:1820  approvers */\n              0x04\n                /* \"Campaign.sol\":1811:1832  approvers[msg.sender] */\n              0x00\n                /* \"Campaign.sol\":1821:1831  msg.sender */\n              caller\n                /* \"Campaign.sol\":1811:1832  approvers[msg.sender] */\n              0xffffffffffffffffffffffffffffffffffffffff\n              and\n              0xffffffffffffffffffffffffffffffffffffffff\n              and\n              dup2\n              mstore\n              0x20\n              add\n              swap1\n              dup2\n              mstore\n              0x20\n              add\n              0x00\n              keccak256\n              0x00\n              swap1\n              sload\n              swap1\n              0x0100\n              exp\n              swap1\n              div\n              0xff\n              and\n                /* \"Campaign.sol\":1803:1833  require(approvers[msg.sender]) */\n              tag_119\n              jumpi\n              0x00\n              dup1\n              revert\n            tag_119:\n                /* \"Campaign.sol\":1852:1859  request */\n              dup1\n                /* \"Campaign.sol\":1852:1869  request.approvals */\n              0x04\n              add\n                /* \"Campaign.sol\":1852:1881  request.approvals[msg.sender] */\n              0x00\n                /* \"Campaign.sol\":1870:1880  msg.sender */\n              caller\n                /* \"Campaign.sol\":1852:1881  request.approvals[msg.sender] */\n              0xffffffffffffffffffffffffffffffffffffffff\n              and\n              0xffffffffffffffffffffffffffffffffffffffff\n              and\n              dup2\n              mstore\n              0x20\n              add\n              swap1\n              dup2\n              mstore\n              0x20\n              add\n              0x00\n              keccak256\n              0x00\n              swap1\n              sload\n              swap1\n              0x0100\n              exp\n              swap1\n              div\n              0xff\n              and\n                /* \"Campaign.sol\":1851:1881  !request.approvals[msg.sender] */\n              iszero\n                /* \"Campaign.sol\":1843:1882  require(!request.approvals[msg.sender]) */\n              tag_120\n              jumpi\n              0x00\n              dup1\n              revert\n            tag_120:\n                /* \"Campaign.sol\":1925:1929  true */\n              0x01\n                /* \"Campaign.sol\":1893:1900  request */\n              dup2\n                /* \"Campaign.sol\":1893:1910  request.approvals */\n              0x04\n              add\n                /* \"Campaign.sol\":1893:1922  request.approvals[msg.sender] */\n              0x00\n                /* \"Campaign.sol\":1911:1921  msg.sender */\n              caller\n                /* \"Campaign.sol\":1893:1922  request.approvals[msg.sender] */\n              0xffffffffffffffffffffffffffffffffffffffff\n              and\n              0xffffffffffffffffffffffffffffffffffffffff\n              and\n              dup2\n              mstore\n              0x20\n              add\n              swap1\n              dup2\n              mstore\n              0x20\n              add\n              0x00\n              keccak256\n              0x00\n                /* \"Campaign.sol\":1893:1929  request.approvals[msg.sender] = true */\n              0x0100\n              exp\n              dup2\n              sload\n              dup2\n              0xff\n              mul\n              not\n              and\n              swap1\n              dup4\n              iszero\n              iszero\n              mul\n              or\n              swap1\n              sstore\n              pop\n                /* \"Campaign.sol\":1939:1946  request */\n              dup1\n                /* \"Campaign.sol\":1939:1960  request.approvalCount */\n              0x03\n              add\n              0x00\n                /* \"Campaign.sol\":1939:1962  request.approvalCount++ */\n              dup2\n              sload\n              dup1\n              swap3\n              swap2\n              swap1\n              tag_121\n              swap1\n              tag_114\n              jump\t// in\n            tag_121:\n              swap2\n              swap1\n              pop\n              sstore\n              pop\n                /* \"Campaign.sol\":1741:1969  {... */\n              pop\n                /* \"Campaign.sol\":1698:1969  function approveRequest(uint index) public {... */\n              pop\n              jump\t// out\n            tag_110:\n              dup3\n              dup1\n              sload\n              tag_122\n              swap1\n              tag_88\n              jump\t// in\n            tag_122:\n              swap1\n              0x00\n              mstore\n              keccak256(0x00, 0x20)\n              swap1\n              0x1f\n              add\n              0x20\n              swap1\n              div\n              dup2\n              add\n              swap3\n              dup3\n              tag_124\n              jumpi\n              0x00\n              dup6\n              sstore\n              jump(tag_123)\n            tag_124:\n              dup3\n              0x1f\n              lt\n              tag_125\n              jumpi\n              dup1\n              mload\n              not(0xff)\n              and\n              dup4\n              dup1\n              add\n              or\n              dup6\n              sstore\n              jump(tag_123)\n            tag_125:\n              dup3\n              dup1\n              add\n              0x01\n              add\n              dup6\n              sstore\n              dup3\n              iszero\n              tag_123\n              jumpi\n              swap2\n              dup3\n              add\n            tag_126:\n              dup3\n              dup2\n              gt\n              iszero\n              tag_127\n              jumpi\n              dup3\n              mload\n              dup3\n              sstore\n              swap2\n              0x20\n              add\n              swap2\n              swap1\n              0x01\n              add\n              swap1\n              jump(tag_126)\n            tag_127:\n            tag_123:\n              pop\n              swap1\n              pop\n              tag_128\n              swap2\n              swap1\n              tag_129\n              jump\t// in\n            tag_128:\n              pop\n              swap1\n              jump\t// out\n            tag_129:\n            tag_130:\n              dup1\n              dup3\n              gt\n              iszero\n              tag_131\n              jumpi\n              0x00\n              dup2\n              0x00\n              swap1\n              sstore\n              pop\n              0x01\n              add\n              jump(tag_130)\n            tag_131:\n              pop\n              swap1\n              jump\t// out\n                /* \"#utility.yul\":7:82   */\n            tag_132:\n                /* \"#utility.yul\":40:46   */\n              0x00\n                /* \"#utility.yul\":73:75   */\n              0x40\n                /* \"#utility.yul\":67:76   */\n              mload\n                /* \"#utility.yul\":57:76   */\n              swap1\n              pop\n                /* \"#utility.yul\":7:82   */\n              swap1\n              jump\t// out\n                /* \"#utility.yul\":88:205   */\n            tag_133:\n                /* \"#utility.yul\":197:198   */\n              0x00\n                /* \"#utility.yul\":194:195   */\n              dup1\n                /* \"#utility.yul\":187:199   */\n              revert\n                /* \"#utility.yul\":211:328   */\n            tag_134:\n                /* \"#utility.yul\":320:321   */\n              0x00\n                /* \"#utility.yul\":317:318   */\n              dup1\n                /* \"#utility.yul\":310:322   */\n              revert\n                /* \"#utility.yul\":334:411   */\n            tag_135:\n                /* \"#utility.yul\":371:378   */\n              0x00\n                /* \"#utility.yul\":400:405   */\n              dup2\n                /* \"#utility.yul\":389:405   */\n              swap1\n              pop\n                /* \"#utility.yul\":334:411   */\n              swap2\n              swap1\n              pop\n              jump\t// out\n                /* \"#utility.yul\":417:539   */\n            tag_136:\n                /* \"#utility.yul\":490:514   */\n              tag_169\n                /* \"#utility.yul\":508:513   */\n              dup2\n                /* \"#utility.yul\":490:514   */\n              tag_135\n              jump\t// in\n            tag_169:\n                /* \"#utility.yul\":483:488   */\n              dup2\n                /* \"#utility.yul\":480:515   */\n              eq\n                /* \"#utility.yul\":470:533   */\n              tag_170\n              jumpi\n                /* \"#utility.yul\":529:530   */\n              0x00\n                /* \"#utility.yul\":526:527   */\n              dup1\n                /* \"#utility.yul\":519:531   */\n              revert\n                /* \"#utility.yul\":470:533   */\n            tag_170:\n                /* \"#utility.yul\":417:539   */\n              pop\n              jump\t// out\n                /* \"#utility.yul\":545:684   */\n            tag_137:\n                /* \"#utility.yul\":591:596   */\n              0x00\n                /* \"#utility.yul\":629:635   */\n              dup2\n                /* \"#utility.yul\":616:636   */\n              calldataload\n                /* \"#utility.yul\":607:636   */\n              swap1\n              pop\n                /* \"#utility.yul\":645:678   */\n              tag_172\n                /* \"#utility.yul\":672:677   */\n              dup2\n                /* \"#utility.yul\":645:678   */\n              tag_136\n              jump\t// in\n            tag_172:\n                /* \"#utility.yul\":545:684   */\n              swap3\n              swap2\n              pop\n              pop\n              jump\t// out\n                /* \"#utility.yul\":690:1019   */\n            tag_18:\n                /* \"#utility.yul\":749:755   */\n              0x00\n                /* \"#utility.yul\":798:800   */\n              0x20\n                /* \"#utility.yul\":786:795   */\n              dup3\n                /* \"#utility.yul\":777:784   */\n              dup5\n                /* \"#utility.yul\":773:796   */\n              sub\n                /* \"#utility.yul\":769:801   */\n              slt\n                /* \"#utility.yul\":766:885   */\n              iszero\n              tag_174\n              jumpi\n                /* \"#utility.yul\":804:883   */\n              tag_175\n              tag_133\n              jump\t// in\n            tag_175:\n                /* \"#utility.yul\":766:885   */\n            tag_174:\n                /* \"#utility.yul\":924:925   */\n              0x00\n                /* \"#utility.yul\":949:1002   */\n              tag_176\n                /* \"#utility.yul\":994:1001   */\n              dup5\n                /* \"#utility.yul\":985:991   */\n              dup3\n                /* \"#utility.yul\":974:983   */\n              dup6\n                /* \"#utility.yul\":970:992   */\n              add\n                /* \"#utility.yul\":949:1002   */\n              tag_137\n              jump\t// in\n            tag_176:\n                /* \"#utility.yul\":939:1002   */\n              swap2\n              pop\n                /* \"#utility.yul\":895:1012   */\n              pop\n                /* \"#utility.yul\":690:1019   */\n              swap3\n              swap2\n              pop\n              pop\n              jump\t// out\n                /* \"#utility.yul\":1025:1151   */\n            tag_138:\n                /* \"#utility.yul\":1062:1069   */\n              0x00\n                /* \"#utility.yul\":1102:1144   */\n              0xffffffffffffffffffffffffffffffffffffffff\n                /* \"#utility.yul\":1095:1100   */\n              dup3\n                /* \"#utility.yul\":1091:1145   */\n              and\n                /* \"#utility.yul\":1080:1145   */\n              swap1\n              pop\n                /* \"#utility.yul\":1025:1151   */\n              swap2\n              swap1\n              pop\n              jump\t// out\n                /* \"#utility.yul\":1157:1253   */\n            tag_139:\n                /* \"#utility.yul\":1194:1201   */\n              0x00\n                /* \"#utility.yul\":1223:1247   */\n              tag_179\n                /* \"#utility.yul\":1241:1246   */\n              dup3\n                /* \"#utility.yul\":1223:1247   */\n              tag_138\n              jump\t// in\n            tag_179:\n                /* \"#utility.yul\":1212:1247   */\n              swap1\n              pop\n                /* \"#utility.yul\":1157:1253   */\n              swap2\n              swap1\n              pop\n              jump\t// out\n                /* \"#utility.yul\":1259:1381   */\n            tag_140:\n                /* \"#utility.yul\":1332:1356   */\n              tag_181\n                /* \"#utility.yul\":1350:1355   */\n              dup2\n                /* \"#utility.yul\":1332:1356   */\n              tag_139\n              jump\t// in\n            tag_181:\n                /* \"#utility.yul\":1325:1330   */\n              dup2\n                /* \"#utility.yul\":1322:1357   */\n              eq\n                /* \"#utility.yul\":1312:1375   */\n              tag_182\n              jumpi\n                /* \"#utility.yul\":1371:1372   */\n              0x00\n                /* \"#utility.yul\":1368:1369   */\n              dup1\n                /* \"#utility.yul\":1361:1373   */\n              revert\n                /* \"#utility.yul\":1312:1375   */\n            tag_182:\n                /* \"#utility.yul\":1259:1381   */\n              pop\n              jump\t// out\n                /* \"#utility.yul\":1387:1526   */\n            tag_141:\n                /* \"#utility.yul\":1433:1438   */\n              0x00\n                /* \"#utility.yul\":1471:1477   */\n              dup2\n                /* \"#utility.yul\":1458:1478   */\n              calldataload\n                /* \"#utility.yul\":1449:1478   */\n              swap1\n              pop\n                /* \"#utility.yul\":1487:1520   */\n              tag_184\n                /* \"#utility.yul\":1514:1519   */\n              dup2\n                /* \"#utility.yul\":1487:1520   */\n              tag_140\n              jump\t// in\n            tag_184:\n                /* \"#utility.yul\":1387:1526   */\n              swap3\n              swap2\n              pop\n              pop\n              jump\t// out\n                /* \"#utility.yul\":1532:1861   */\n            tag_23:\n                /* \"#utility.yul\":1591:1597   */\n              0x00\n                /* \"#utility.yul\":1640:1642   */\n              0x20\n                /* \"#utility.yul\":1628:1637   */\n              dup3\n                /* \"#utility.yul\":1619:1626   */\n              dup5\n                /* \"#utility.yul\":1615:1638   */\n              sub\n                /* \"#utility.yul\":1611:1643   */\n              slt\n                /* \"#utility.yul\":1608:1727   */\n              iszero\n              tag_186\n              jumpi\n                /* \"#utility.yul\":1646:1725   */\n              tag_187\n              tag_133\n              jump\t// in\n            tag_187:\n                /* \"#utility.yul\":1608:1727   */\n            tag_186:\n                /* \"#utility.yul\":1766:1767   */\n              0x00\n                /* \"#utility.yul\":1791:1844   */\n              tag_188\n                /* \"#utility.yul\":1836:1843   */\n              dup5\n                /* \"#utility.yul\":1827:1833   */\n              dup3\n                /* \"#utility.yul\":1816:1825   */\n              dup6\n                /* \"#utility.yul\":1812:1834   */\n              add\n                /* \"#utility.yul\":1791:1844   */\n              tag_141\n              jump\t// in\n            tag_188:\n                /* \"#utility.yul\":1781:1844   */\n              swap2\n              pop\n                /* \"#utility.yul\":1737:1854   */\n              pop\n                /* \"#utility.yul\":1532:1861   */\n              swap3\n              swap2\n              pop\n              pop\n              jump\t// out\n                /* \"#utility.yul\":1867:1957   */\n            tag_142:\n                /* \"#utility.yul\":1901:1908   */\n              0x00\n                /* \"#utility.yul\":1944:1949   */\n              dup2\n                /* \"#utility.yul\":1937:1950   */\n              iszero\n                /* \"#utility.yul\":1930:1951   */\n              iszero\n                /* \"#utility.yul\":1919:1951   */\n              swap1\n              pop\n                /* \"#utility.yul\":1867:1957   */\n              swap2\n              swap1\n              pop\n              jump\t// out\n                /* \"#utility.yul\":1963:2072   */\n            tag_143:\n                /* \"#utility.yul\":2044:2065   */\n              tag_191\n                /* \"#utility.yul\":2059:2064   */\n              dup2\n                /* \"#utility.yul\":2044:2065   */\n              tag_142\n              jump\t// in\n            tag_191:\n                /* \"#utility.yul\":2039:2042   */\n              dup3\n                /* \"#utility.yul\":2032:2066   */\n              mstore\n                /* \"#utility.yul\":1963:2072   */\n              pop\n              pop\n              jump\t// out\n                /* \"#utility.yul\":2078:2288   */\n            tag_26:\n                /* \"#utility.yul\":2165:2169   */\n              0x00\n                /* \"#utility.yul\":2203:2205   */\n              0x20\n                /* \"#utility.yul\":2192:2201   */\n              dup3\n                /* \"#utility.yul\":2188:2206   */\n              add\n                /* \"#utility.yul\":2180:2206   */\n              swap1\n              pop\n                /* \"#utility.yul\":2216:2281   */\n              tag_193\n                /* \"#utility.yul\":2278:2279   */\n              0x00\n                /* \"#utility.yul\":2267:2276   */\n              dup4\n                /* \"#utility.yul\":2263:2280   */\n              add\n                /* \"#utility.yul\":2254:2260   */\n              dup5\n                /* \"#utility.yul\":2216:2281   */\n              tag_143\n              jump\t// in\n            tag_193:\n                /* \"#utility.yul\":2078:2288   */\n              swap3\n              swap2\n              pop\n              pop\n              jump\t// out\n                /* \"#utility.yul\":2294:2412   */\n            tag_144:\n                /* \"#utility.yul\":2381:2405   */\n              tag_195\n                /* \"#utility.yul\":2399:2404   */\n              dup2\n                /* \"#utility.yul\":2381:2405   */\n              tag_135\n              jump\t// in\n            tag_195:\n                /* \"#utility.yul\":2376:2379   */\n              dup3\n                /* \"#utility.yul\":2369:2406   */\n              mstore\n                /* \"#utility.yul\":2294:2412   */\n              pop\n              pop\n              jump\t// out\n                /* \"#utility.yul\":2418:2640   */\n            tag_31:\n                /* \"#utility.yul\":2511:2515   */\n              0x00\n                /* \"#utility.yul\":2549:2551   */\n              0x20\n                /* \"#utility.yul\":2538:2547   */\n              dup3\n                /* \"#utility.yul\":2534:2552   */\n              add\n                /* \"#utility.yul\":2526:2552   */\n              swap1\n              pop\n                /* \"#utility.yul\":2562:2633   */\n              tag_197\n                /* \"#utility.yul\":2630:2631   */\n              0x00\n                /* \"#utility.yul\":2619:2628   */\n              dup4\n                /* \"#utility.yul\":2615:2632   */\n              add\n                /* \"#utility.yul\":2606:2612   */\n              dup5\n                /* \"#utility.yul\":2562:2633   */\n              tag_144\n              jump\t// in\n            tag_197:\n                /* \"#utility.yul\":2418:2640   */\n              swap3\n              swap2\n              pop\n              pop\n              jump\t// out\n                /* \"#utility.yul\":2646:2764   */\n            tag_145:\n                /* \"#utility.yul\":2733:2757   */\n              tag_199\n                /* \"#utility.yul\":2751:2756   */\n              dup2\n                /* \"#utility.yul\":2733:2757   */\n              tag_139\n              jump\t// in\n            tag_199:\n                /* \"#utility.yul\":2728:2731   */\n              dup3\n                /* \"#utility.yul\":2721:2758   */\n              mstore\n                /* \"#utility.yul\":2646:2764   */\n              pop\n              pop\n              jump\t// out\n                /* \"#utility.yul\":2770:2869   */\n            tag_146:\n                /* \"#utility.yul\":2822:2828   */\n              0x00\n                /* \"#utility.yul\":2856:2861   */\n              dup2\n                /* \"#utility.yul\":2850:2862   */\n              mload\n                /* \"#utility.yul\":2840:2862   */\n              swap1\n              pop\n                /* \"#utility.yul\":2770:2869   */\n              swap2\n              swap1\n              pop\n              jump\t// out\n                /* \"#utility.yul\":2875:3044   */\n            tag_147:\n                /* \"#utility.yul\":2959:2970   */\n              0x00\n                /* \"#utility.yul\":2993:2999   */\n              dup3\n                /* \"#utility.yul\":2988:2991   */\n              dup3\n                /* \"#utility.yul\":2981:3000   */\n              mstore\n                /* \"#utility.yul\":3033:3037   */\n              0x20\n                /* \"#utility.yul\":3028:3031   */\n              dup3\n                /* \"#utility.yul\":3024:3038   */\n              add\n                /* \"#utility.yul\":3009:3038   */\n              swap1\n              pop\n                /* \"#utility.yul\":2875:3044   */\n              swap3\n              swap2\n              pop\n              pop\n              jump\t// out\n                /* \"#utility.yul\":3050:3357   */\n            tag_148:\n                /* \"#utility.yul\":3118:3119   */\n              0x00\n                /* \"#utility.yul\":3128:3241   */\n            tag_203:\n                /* \"#utility.yul\":3142:3148   */\n              dup4\n                /* \"#utility.yul\":3139:3140   */\n              dup2\n                /* \"#utility.yul\":3136:3149   */\n              lt\n                /* \"#utility.yul\":3128:3241   */\n              iszero\n              tag_205\n              jumpi\n                /* \"#utility.yul\":3227:3228   */\n              dup1\n                /* \"#utility.yul\":3222:3225   */\n              dup3\n                /* \"#utility.yul\":3218:3229   */\n              add\n                /* \"#utility.yul\":3212:3230   */\n              mload\n                /* \"#utility.yul\":3208:3209   */\n              dup2\n                /* \"#utility.yul\":3203:3206   */\n              dup5\n                /* \"#utility.yul\":3199:3210   */\n              add\n                /* \"#utility.yul\":3192:3231   */\n              mstore\n                /* \"#utility.yul\":3164:3166   */\n              0x20\n                /* \"#utility.yul\":3161:3162   */\n              dup2\n                /* \"#utility.yul\":3157:3167   */\n              add\n                /* \"#utility.yul\":3152:3167   */\n              swap1\n              pop\n                /* \"#utility.yul\":3128:3241   */\n              jump(tag_203)\n            tag_205:\n                /* \"#utility.yul\":3259:3265   */\n              dup4\n                /* \"#utility.yul\":3256:3257   */\n              dup2\n                /* \"#utility.yul\":3253:3266   */\n              gt\n                /* \"#utility.yul\":3250:3351   */\n              iszero\n              tag_206\n              jumpi\n                /* \"#utility.yul\":3339:3340   */\n              0x00\n                /* \"#utility.yul\":3330:3336   */\n              dup5\n                /* \"#utility.yul\":3325:3328   */\n              dup5\n                /* \"#utility.yul\":3321:3337   */\n              add\n                /* \"#utility.yul\":3314:3341   */\n              mstore\n                /* \"#utility.yul\":3250:3351   */\n            tag_206:\n                /* \"#utility.yul\":3099:3357   */\n              pop\n                /* \"#utility.yul\":3050:3357   */\n              pop\n              pop\n              pop\n              jump\t// out\n                /* \"#utility.yul\":3363:3465   */\n            tag_149:\n                /* \"#utility.yul\":3404:3410   */\n              0x00\n                /* \"#utility.yul\":3455:3457   */\n              0x1f\n                /* \"#utility.yul\":3451:3458   */\n              not\n                /* \"#utility.yul\":3446:3448   */\n              0x1f\n                /* \"#utility.yul\":3439:3444   */\n              dup4\n                /* \"#utility.yul\":3435:3449   */\n              add\n                /* \"#utility.yul\":3431:3459   */\n              and\n                /* \"#utility.yul\":3421:3459   */\n              swap1\n              pop\n                /* \"#utility.yul\":3363:3465   */\n              swap2\n              swap1\n              pop\n              jump\t// out\n                /* \"#utility.yul\":3471:3835   */\n            tag_150:\n                /* \"#utility.yul\":3559:3562   */\n              0x00\n                /* \"#utility.yul\":3587:3626   */\n              tag_209\n                /* \"#utility.yul\":3620:3625   */\n              dup3\n                /* \"#utility.yul\":3587:3626   */\n              tag_146\n              jump\t// in\n            tag_209:\n                /* \"#utility.yul\":3642:3713   */\n              tag_210\n                /* \"#utility.yul\":3706:3712   */\n              dup2\n                /* \"#utility.yul\":3701:3704   */\n              dup6\n                /* \"#utility.yul\":3642:3713   */\n              tag_147\n              jump\t// in\n            tag_210:\n                /* \"#utility.yul\":3635:3713   */\n              swap4\n              pop\n                /* \"#utility.yul\":3722:3774   */\n              tag_211\n                /* \"#utility.yul\":3767:3773   */\n              dup2\n                /* \"#utility.yul\":3762:3765   */\n              dup6\n                /* \"#utility.yul\":3755:3759   */\n              0x20\n                /* \"#utility.yul\":3748:3753   */\n              dup7\n                /* \"#utility.yul\":3744:3760   */\n              add\n                /* \"#utility.yul\":3722:3774   */\n              tag_148\n              jump\t// in\n            tag_211:\n                /* \"#utility.yul\":3799:3828   */\n              tag_212\n                /* \"#utility.yul\":3821:3827   */\n              dup2\n                /* \"#utility.yul\":3799:3828   */\n              tag_149\n              jump\t// in\n            tag_212:\n                /* \"#utility.yul\":3794:3797   */\n              dup5\n                /* \"#utility.yul\":3790:3829   */\n              add\n                /* \"#utility.yul\":3783:3829   */\n              swap2\n              pop\n                /* \"#utility.yul\":3563:3835   */\n              pop\n                /* \"#utility.yul\":3471:3835   */\n              swap3\n              swap2\n              pop\n              pop\n              jump\t// out\n                /* \"#utility.yul\":3841:4707   */\n            tag_36:\n                /* \"#utility.yul\":4094:4098   */\n              0x00\n                /* \"#utility.yul\":4132:4135   */\n              0xc0\n                /* \"#utility.yul\":4121:4130   */\n              dup3\n                /* \"#utility.yul\":4117:4136   */\n              add\n                /* \"#utility.yul\":4109:4136   */\n              swap1\n              pop\n                /* \"#utility.yul\":4146:4217   */\n              tag_214\n                /* \"#utility.yul\":4214:4215   */\n              0x00\n                /* \"#utility.yul\":4203:4212   */\n              dup4\n                /* \"#utility.yul\":4199:4216   */\n              add\n                /* \"#utility.yul\":4190:4196   */\n              dup10\n                /* \"#utility.yul\":4146:4217   */\n              tag_144\n              jump\t// in\n            tag_214:\n                /* \"#utility.yul\":4227:4299   */\n              tag_215\n                /* \"#utility.yul\":4295:4297   */\n              0x20\n                /* \"#utility.yul\":4284:4293   */\n              dup4\n                /* \"#utility.yul\":4280:4298   */\n              add\n                /* \"#utility.yul\":4271:4277   */\n              dup9\n                /* \"#utility.yul\":4227:4299   */\n              tag_144\n              jump\t// in\n            tag_215:\n                /* \"#utility.yul\":4309:4381   */\n              tag_216\n                /* \"#utility.yul\":4377:4379   */\n              0x40\n                /* \"#utility.yul\":4366:4375   */\n              dup4\n                /* \"#utility.yul\":4362:4380   */\n              add\n                /* \"#utility.yul\":4353:4359   */\n              dup8\n                /* \"#utility.yul\":4309:4381   */\n              tag_144\n              jump\t// in\n            tag_216:\n                /* \"#utility.yul\":4391:4463   */\n              tag_217\n                /* \"#utility.yul\":4459:4461   */\n              0x60\n                /* \"#utility.yul\":4448:4457   */\n              dup4\n                /* \"#utility.yul\":4444:4462   */\n              add\n                /* \"#utility.yul\":4435:4441   */\n              dup7\n                /* \"#utility.yul\":4391:4463   */\n              tag_144\n              jump\t// in\n            tag_217:\n                /* \"#utility.yul\":4473:4546   */\n              tag_218\n                /* \"#utility.yul\":4541:4544   */\n              0x80\n                /* \"#utility.yul\":4530:4539   */\n              dup4\n                /* \"#utility.yul\":4526:4545   */\n              add\n                /* \"#utility.yul\":4517:4523   */\n              dup6\n                /* \"#utility.yul\":4473:4546   */\n              tag_145\n              jump\t// in\n            tag_218:\n                /* \"#utility.yul\":4594:4603   */\n              dup2\n                /* \"#utility.yul\":4588:4592   */\n              dup2\n                /* \"#utility.yul\":4584:4604   */\n              sub\n                /* \"#utility.yul\":4578:4581   */\n              0xa0\n                /* \"#utility.yul\":4567:4576   */\n              dup4\n                /* \"#utility.yul\":4563:4582   */\n              add\n                /* \"#utility.yul\":4556:4605   */\n              mstore\n                /* \"#utility.yul\":4622:4700   */\n              tag_219\n                /* \"#utility.yul\":4695:4699   */\n              dup2\n                /* \"#utility.yul\":4686:4692   */\n              dup5\n                /* \"#utility.yul\":4622:4700   */\n              tag_150\n              jump\t// in\n            tag_219:\n                /* \"#utility.yul\":4614:4700   */\n              swap1\n              pop\n                /* \"#utility.yul\":3841:4707   */\n              swap8\n              swap7\n              pop\n              pop\n              pop\n              pop\n              pop\n              pop\n              pop\n              jump\t// out\n                /* \"#utility.yul\":4713:4935   */\n            tag_41:\n                /* \"#utility.yul\":4806:4810   */\n              0x00\n                /* \"#utility.yul\":4844:4846   */\n              0x20\n                /* \"#utility.yul\":4833:4842   */\n              dup3\n                /* \"#utility.yul\":4829:4847   */\n              add\n                /* \"#utility.yul\":4821:4847   */\n              swap1\n              pop\n                /* \"#utility.yul\":4857:4928   */\n              tag_221\n                /* \"#utility.yul\":4925:4926   */\n              0x00\n                /* \"#utility.yul\":4914:4923   */\n              dup4\n                /* \"#utility.yul\":4910:4927   */\n              add\n                /* \"#utility.yul\":4901:4907   */\n              dup5\n                /* \"#utility.yul\":4857:4928   */\n              tag_145\n              jump\t// in\n            tag_221:\n                /* \"#utility.yul\":4713:4935   */\n              swap3\n              swap2\n              pop\n              pop\n              jump\t// out\n                /* \"#utility.yul\":4941:5254   */\n            tag_46:\n                /* \"#utility.yul\":5054:5058   */\n              0x00\n                /* \"#utility.yul\":5092:5094   */\n              0x20\n                /* \"#utility.yul\":5081:5090   */\n              dup3\n                /* \"#utility.yul\":5077:5095   */\n              add\n                /* \"#utility.yul\":5069:5095   */\n              swap1\n              pop\n                /* \"#utility.yul\":5141:5150   */\n              dup2\n                /* \"#utility.yul\":5135:5139   */\n              dup2\n                /* \"#utility.yul\":5131:5151   */\n              sub\n                /* \"#utility.yul\":5127:5128   */\n              0x00\n                /* \"#utility.yul\":5116:5125   */\n              dup4\n                /* \"#utility.yul\":5112:5129   */\n              add\n                /* \"#utility.yul\":5105:5152   */\n              mstore\n                /* \"#utility.yul\":5169:5247   */\n              tag_223\n                /* \"#utility.yul\":5242:5246   */\n              dup2\n                /* \"#utility.yul\":5233:5239   */\n              dup5\n                /* \"#utility.yul\":5169:5247   */\n              tag_150\n              jump\t// in\n            tag_223:\n                /* \"#utility.yul\":5161:5247   */\n              swap1\n              pop\n                /* \"#utility.yul\":4941:5254   */\n              swap3\n              swap2\n              pop\n              pop\n              jump\t// out\n                /* \"#utility.yul\":5260:6003   */\n            tag_52:\n                /* \"#utility.yul\":5479:5483   */\n              0x00\n                /* \"#utility.yul\":5517:5520   */\n              0xa0\n                /* \"#utility.yul\":5506:5515   */\n              dup3\n                /* \"#utility.yul\":5502:5521   */\n              add\n                /* \"#utility.yul\":5494:5521   */\n              swap1\n              pop\n                /* \"#utility.yul\":5567:5576   */\n              dup2\n                /* \"#utility.yul\":5561:5565   */\n              dup2\n                /* \"#utility.yul\":5557:5577   */\n              sub\n                /* \"#utility.yul\":5553:5554   */\n              0x00\n                /* \"#utility.yul\":5542:5551   */\n              dup4\n                /* \"#utility.yul\":5538:5555   */\n              add\n                /* \"#utility.yul\":5531:5578   */\n              mstore\n                /* \"#utility.yul\":5595:5673   */\n              tag_225\n                /* \"#utility.yul\":5668:5672   */\n              dup2\n                /* \"#utility.yul\":5659:5665   */\n              dup9\n                /* \"#utility.yul\":5595:5673   */\n              tag_150\n              jump\t// in\n            tag_225:\n                /* \"#utility.yul\":5587:5673   */\n              swap1\n              pop\n                /* \"#utility.yul\":5683:5755   */\n              tag_226\n                /* \"#utility.yul\":5751:5753   */\n              0x20\n                /* \"#utility.yul\":5740:5749   */\n              dup4\n                /* \"#utility.yul\":5736:5754   */\n              add\n                /* \"#utility.yul\":5727:5733   */\n              dup8\n                /* \"#utility.yul\":5683:5755   */\n              tag_144\n              jump\t// in\n            tag_226:\n                /* \"#utility.yul\":5765:5837   */\n              tag_227\n                /* \"#utility.yul\":5833:5835   */\n              0x40\n                /* \"#utility.yul\":5822:5831   */\n              dup4\n                /* \"#utility.yul\":5818:5836   */\n              add\n                /* \"#utility.yul\":5809:5815   */\n              dup7\n                /* \"#utility.yul\":5765:5837   */\n              tag_145\n              jump\t// in\n            tag_227:\n                /* \"#utility.yul\":5847:5913   */\n              tag_228\n                /* \"#utility.yul\":5909:5911   */\n              0x60\n                /* \"#utility.yul\":5898:5907   */\n              dup4\n                /* \"#utility.yul\":5894:5912   */\n              add\n                /* \"#utility.yul\":5885:5891   */\n              dup6\n                /* \"#utility.yul\":5847:5913   */\n              tag_143\n              jump\t// in\n            tag_228:\n                /* \"#utility.yul\":5923:5996   */\n              tag_229\n                /* \"#utility.yul\":5991:5994   */\n              0x80\n                /* \"#utility.yul\":5980:5989   */\n              dup4\n                /* \"#utility.yul\":5976:5995   */\n              add\n                /* \"#utility.yul\":5967:5973   */\n              dup5\n                /* \"#utility.yul\":5923:5996   */\n              tag_144\n              jump\t// in\n            tag_229:\n                /* \"#utility.yul\":5260:6003   */\n              swap7\n              swap6\n              pop\n              pop\n              pop\n              pop\n              pop\n              pop\n              jump\t// out\n                /* \"#utility.yul\":6009:6126   */\n            tag_151:\n                /* \"#utility.yul\":6118:6119   */\n              0x00\n                /* \"#utility.yul\":6115:6116   */\n              dup1\n                /* \"#utility.yul\":6108:6120   */\n              revert\n                /* \"#utility.yul\":6132:6249   */\n            tag_152:\n                /* \"#utility.yul\":6241:6242   */\n              0x00\n                /* \"#utility.yul\":6238:6239   */\n              dup1\n                /* \"#utility.yul\":6231:6243   */\n              revert\n                /* \"#utility.yul\":6255:6435   */\n            tag_153:\n                /* \"#utility.yul\":6303:6380   */\n              0x4e487b7100000000000000000000000000000000000000000000000000000000\n                /* \"#utility.yul\":6300:6301   */\n              0x00\n                /* \"#utility.yul\":6293:6381   */\n              mstore\n                /* \"#utility.yul\":6400:6404   */\n              0x41\n                /* \"#utility.yul\":6397:6398   */\n              0x04\n                /* \"#utility.yul\":6390:6405   */\n              mstore\n                /* \"#utility.yul\":6424:6428   */\n              0x24\n                /* \"#utility.yul\":6421:6422   */\n              0x00\n                /* \"#utility.yul\":6414:6429   */\n              revert\n                /* \"#utility.yul\":6441:6722   */\n            tag_154:\n                /* \"#utility.yul\":6524:6551   */\n              tag_234\n                /* \"#utility.yul\":6546:6550   */\n              dup3\n                /* \"#utility.yul\":6524:6551   */\n              tag_149\n              jump\t// in\n            tag_234:\n                /* \"#utility.yul\":6516:6522   */\n              dup2\n                /* \"#utility.yul\":6512:6552   */\n              add\n                /* \"#utility.yul\":6654:6660   */\n              dup2\n                /* \"#utility.yul\":6642:6652   */\n              dup2\n                /* \"#utility.yul\":6639:6661   */\n              lt\n                /* \"#utility.yul\":6618:6636   */\n              0xffffffffffffffff\n                /* \"#utility.yul\":6606:6616   */\n              dup3\n                /* \"#utility.yul\":6603:6637   */\n              gt\n                /* \"#utility.yul\":6600:6662   */\n              or\n                /* \"#utility.yul\":6597:6685   */\n              iszero\n              tag_235\n              jumpi\n                /* \"#utility.yul\":6665:6683   */\n              tag_236\n              tag_153\n              jump\t// in\n            tag_236:\n                /* \"#utility.yul\":6597:6685   */\n            tag_235:\n                /* \"#utility.yul\":6705:6715   */\n              dup1\n                /* \"#utility.yul\":6701:6703   */\n              0x40\n                /* \"#utility.yul\":6694:6716   */\n              mstore\n                /* \"#utility.yul\":6484:6722   */\n              pop\n                /* \"#utility.yul\":6441:6722   */\n              pop\n              pop\n              jump\t// out\n                /* \"#utility.yul\":6728:6857   */\n            tag_155:\n                /* \"#utility.yul\":6762:6768   */\n              0x00\n                /* \"#utility.yul\":6789:6809   */\n              tag_238\n              tag_132\n              jump\t// in\n            tag_238:\n                /* \"#utility.yul\":6779:6809   */\n              swap1\n              pop\n                /* \"#utility.yul\":6818:6851   */\n              tag_239\n                /* \"#utility.yul\":6846:6850   */\n              dup3\n                /* \"#utility.yul\":6838:6844   */\n              dup3\n                /* \"#utility.yul\":6818:6851   */\n              tag_154\n              jump\t// in\n            tag_239:\n                /* \"#utility.yul\":6728:6857   */\n              swap2\n              swap1\n              pop\n              jump\t// out\n                /* \"#utility.yul\":6863:7171   */\n            tag_156:\n                /* \"#utility.yul\":6925:6929   */\n              0x00\n                /* \"#utility.yul\":7015:7033   */\n              0xffffffffffffffff\n                /* \"#utility.yul\":7007:7013   */\n              dup3\n                /* \"#utility.yul\":7004:7034   */\n              gt\n                /* \"#utility.yul\":7001:7057   */\n              iszero\n              tag_241\n              jumpi\n                /* \"#utility.yul\":7037:7055   */\n              tag_242\n              tag_153\n              jump\t// in\n            tag_242:\n                /* \"#utility.yul\":7001:7057   */\n            tag_241:\n                /* \"#utility.yul\":7075:7104   */\n              tag_243\n                /* \"#utility.yul\":7097:7103   */\n              dup3\n                /* \"#utility.yul\":7075:7104   */\n              tag_149\n              jump\t// in\n            tag_243:\n                /* \"#utility.yul\":7067:7104   */\n              swap1\n              pop\n                /* \"#utility.yul\":7159:7163   */\n              0x20\n                /* \"#utility.yul\":7153:7157   */\n              dup2\n                /* \"#utility.yul\":7149:7164   */\n              add\n                /* \"#utility.yul\":7141:7164   */\n              swap1\n              pop\n                /* \"#utility.yul\":6863:7171   */\n              swap2\n              swap1\n              pop\n              jump\t// out\n                /* \"#utility.yul\":7177:7331   */\n            tag_157:\n                /* \"#utility.yul\":7261:7267   */\n              dup3\n                /* \"#utility.yul\":7256:7259   */\n              dup2\n                /* \"#utility.yul\":7251:7254   */\n              dup4\n                /* \"#utility.yul\":7238:7268   */\n              calldatacopy\n                /* \"#utility.yul\":7323:7324   */\n              0x00\n                /* \"#utility.yul\":7314:7320   */\n              dup4\n                /* \"#utility.yul\":7309:7312   */\n              dup4\n                /* \"#utility.yul\":7305:7321   */\n              add\n                /* \"#utility.yul\":7298:7325   */\n              mstore\n                /* \"#utility.yul\":7177:7331   */\n              pop\n              pop\n              pop\n              jump\t// out\n                /* \"#utility.yul\":7337:7749   */\n            tag_158:\n                /* \"#utility.yul\":7415:7420   */\n              0x00\n                /* \"#utility.yul\":7440:7506   */\n              tag_246\n                /* \"#utility.yul\":7456:7505   */\n              tag_247\n                /* \"#utility.yul\":7498:7504   */\n              dup5\n                /* \"#utility.yul\":7456:7505   */\n              tag_156\n              jump\t// in\n            tag_247:\n                /* \"#utility.yul\":7440:7506   */\n              tag_155\n              jump\t// in\n            tag_246:\n                /* \"#utility.yul\":7431:7506   */\n              swap1\n              pop\n                /* \"#utility.yul\":7529:7535   */\n              dup3\n                /* \"#utility.yul\":7522:7527   */\n              dup2\n                /* \"#utility.yul\":7515:7536   */\n              mstore\n                /* \"#utility.yul\":7567:7571   */\n              0x20\n                /* \"#utility.yul\":7560:7565   */\n              dup2\n                /* \"#utility.yul\":7556:7572   */\n              add\n                /* \"#utility.yul\":7605:7608   */\n              dup5\n                /* \"#utility.yul\":7596:7602   */\n              dup5\n                /* \"#utility.yul\":7591:7594   */\n              dup5\n                /* \"#utility.yul\":7587:7603   */\n              add\n                /* \"#utility.yul\":7584:7609   */\n              gt\n                /* \"#utility.yul\":7581:7693   */\n              iszero\n              tag_248\n              jumpi\n                /* \"#utility.yul\":7612:7691   */\n              tag_249\n              tag_152\n              jump\t// in\n            tag_249:\n                /* \"#utility.yul\":7581:7693   */\n            tag_248:\n                /* \"#utility.yul\":7702:7743   */\n              tag_250\n                /* \"#utility.yul\":7736:7742   */\n              dup5\n                /* \"#utility.yul\":7731:7734   */\n              dup3\n                /* \"#utility.yul\":7726:7729   */\n              dup6\n                /* \"#utility.yul\":7702:7743   */\n              tag_157\n              jump\t// in\n            tag_250:\n                /* \"#utility.yul\":7421:7749   */\n              pop\n                /* \"#utility.yul\":7337:7749   */\n              swap4\n              swap3\n              pop\n              pop\n              pop\n              jump\t// out\n                /* \"#utility.yul\":7769:8109   */\n            tag_159:\n                /* \"#utility.yul\":7825:7830   */\n              0x00\n                /* \"#utility.yul\":7874:7877   */\n              dup3\n                /* \"#utility.yul\":7867:7871   */\n              0x1f\n                /* \"#utility.yul\":7859:7865   */\n              dup4\n                /* \"#utility.yul\":7855:7872   */\n              add\n                /* \"#utility.yul\":7851:7878   */\n              slt\n                /* \"#utility.yul\":7841:7963   */\n              tag_252\n              jumpi\n                /* \"#utility.yul\":7882:7961   */\n              tag_253\n              tag_151\n              jump\t// in\n            tag_253:\n                /* \"#utility.yul\":7841:7963   */\n            tag_252:\n                /* \"#utility.yul\":7999:8005   */\n              dup2\n                /* \"#utility.yul\":7986:8006   */\n              calldataload\n                /* \"#utility.yul\":8024:8103   */\n              tag_254\n                /* \"#utility.yul\":8099:8102   */\n              dup5\n                /* \"#utility.yul\":8091:8097   */\n              dup3\n                /* \"#utility.yul\":8084:8088   */\n              0x20\n                /* \"#utility.yul\":8076:8082   */\n              dup7\n                /* \"#utility.yul\":8072:8089   */\n              add\n                /* \"#utility.yul\":8024:8103   */\n              tag_158\n              jump\t// in\n            tag_254:\n                /* \"#utility.yul\":8015:8103   */\n              swap2\n              pop\n                /* \"#utility.yul\":7831:8109   */\n              pop\n                /* \"#utility.yul\":7769:8109   */\n              swap3\n              swap2\n              pop\n              pop\n              jump\t// out\n                /* \"#utility.yul\":8115:8914   */\n            tag_60:\n                /* \"#utility.yul\":8202:8208   */\n              0x00\n                /* \"#utility.yul\":8210:8216   */\n              dup1\n                /* \"#utility.yul\":8218:8224   */\n              0x00\n                /* \"#utility.yul\":8267:8269   */\n              0x60\n                /* \"#utility.yul\":8255:8264   */\n              dup5\n                /* \"#utility.yul\":8246:8253   */\n              dup7\n                /* \"#utility.yul\":8242:8265   */\n              sub\n                /* \"#utility.yul\":8238:8270   */\n              slt\n                /* \"#utility.yul\":8235:8354   */\n              iszero\n              tag_256\n              jumpi\n                /* \"#utility.yul\":8273:8352   */\n              tag_257\n              tag_133\n              jump\t// in\n            tag_257:\n                /* \"#utility.yul\":8235:8354   */\n            tag_256:\n                /* \"#utility.yul\":8421:8422   */\n              0x00\n                /* \"#utility.yul\":8410:8419   */\n              dup5\n                /* \"#utility.yul\":8406:8423   */\n              add\n                /* \"#utility.yul\":8393:8424   */\n              calldataload\n                /* \"#utility.yul\":8451:8469   */\n              0xffffffffffffffff\n                /* \"#utility.yul\":8443:8449   */\n              dup2\n                /* \"#utility.yul\":8440:8470   */\n              gt\n                /* \"#utility.yul\":8437:8554   */\n              iszero\n              tag_258\n              jumpi\n                /* \"#utility.yul\":8473:8552   */\n              tag_259\n              tag_134\n              jump\t// in\n            tag_259:\n                /* \"#utility.yul\":8437:8554   */\n            tag_258:\n                /* \"#utility.yul\":8578:8641   */\n              tag_260\n                /* \"#utility.yul\":8633:8640   */\n              dup7\n                /* \"#utility.yul\":8624:8630   */\n              dup3\n                /* \"#utility.yul\":8613:8622   */\n              dup8\n                /* \"#utility.yul\":8609:8631   */\n              add\n                /* \"#utility.yul\":8578:8641   */\n              tag_159\n              jump\t// in\n            tag_260:\n                /* \"#utility.yul\":8568:8641   */\n              swap4\n              pop\n                /* \"#utility.yul\":8364:8651   */\n              pop\n                /* \"#utility.yul\":8690:8692   */\n              0x20\n                /* \"#utility.yul\":8716:8769   */\n              tag_261\n                /* \"#utility.yul\":8761:8768   */\n              dup7\n                /* \"#utility.yul\":8752:8758   */\n              dup3\n                /* \"#utility.yul\":8741:8750   */\n              dup8\n                /* \"#utility.yul\":8737:8759   */\n              add\n                /* \"#utility.yul\":8716:8769   */\n              tag_137\n              jump\t// in\n            tag_261:\n                /* \"#utility.yul\":8706:8769   */\n              swap3\n              pop\n                /* \"#utility.yul\":8661:8779   */\n              pop\n                /* \"#utility.yul\":8818:8820   */\n              0x40\n                /* \"#utility.yul\":8844:8897   */\n              tag_262\n                /* \"#utility.yul\":8889:8896   */\n              dup7\n                /* \"#utility.yul\":8880:8886   */\n              dup3\n                /* \"#utility.yul\":8869:8878   */\n              dup8\n                /* \"#utility.yul\":8865:8887   */\n              add\n                /* \"#utility.yul\":8844:8897   */\n              tag_141\n              jump\t// in\n            tag_262:\n                /* \"#utility.yul\":8834:8897   */\n              swap2\n              pop\n                /* \"#utility.yul\":8789:8907   */\n              pop\n                /* \"#utility.yul\":8115:8914   */\n              swap3\n              pop\n              swap3\n              pop\n              swap3\n              jump\t// out\n                /* \"#utility.yul\":8920:9100   */\n            tag_77:\n                /* \"#utility.yul\":8968:9045   */\n              0x4e487b7100000000000000000000000000000000000000000000000000000000\n                /* \"#utility.yul\":8965:8966   */\n              0x00\n                /* \"#utility.yul\":8958:9046   */\n              mstore\n                /* \"#utility.yul\":9065:9069   */\n              0x32\n                /* \"#utility.yul\":9062:9063   */\n              0x04\n                /* \"#utility.yul\":9055:9070   */\n              mstore\n                /* \"#utility.yul\":9089:9093   */\n              0x24\n                /* \"#utility.yul\":9086:9087   */\n              0x00\n                /* \"#utility.yul\":9079:9094   */\n              revert\n                /* \"#utility.yul\":9106:9286   */\n            tag_160:\n                /* \"#utility.yul\":9154:9231   */\n              0x4e487b7100000000000000000000000000000000000000000000000000000000\n                /* \"#utility.yul\":9151:9152   */\n              0x00\n                /* \"#utility.yul\":9144:9232   */\n              mstore\n                /* \"#utility.yul\":9251:9255   */\n              0x12\n                /* \"#utility.yul\":9248:9249   */\n              0x04\n                /* \"#utility.yul\":9241:9256   */\n              mstore\n                /* \"#utility.yul\":9275:9279   */\n              0x24\n                /* \"#utility.yul\":9272:9273   */\n              0x00\n                /* \"#utility.yul\":9265:9280   */\n              revert\n                /* \"#utility.yul\":9292:9472   */\n            tag_161:\n                /* \"#utility.yul\":9340:9417   */\n              0x4e487b7100000000000000000000000000000000000000000000000000000000\n                /* \"#utility.yul\":9337:9338   */\n              0x00\n                /* \"#utility.yul\":9330:9418   */\n              mstore\n                /* \"#utility.yul\":9437:9441   */\n              0x11\n                /* \"#utility.yul\":9434:9435   */\n              0x04\n                /* \"#utility.yul\":9427:9442   */\n              mstore\n                /* \"#utility.yul\":9461:9465   */\n              0x24\n                /* \"#utility.yul\":9458:9459   */\n              0x00\n                /* \"#utility.yul\":9451:9466   */\n              revert\n                /* \"#utility.yul\":9478:9663   */\n            tag_80:\n                /* \"#utility.yul\":9518:9519   */\n              0x00\n                /* \"#utility.yul\":9535:9555   */\n              tag_267\n                /* \"#utility.yul\":9553:9554   */\n              dup3\n                /* \"#utility.yul\":9535:9555   */\n              tag_135\n              jump\t// in\n            tag_267:\n                /* \"#utility.yul\":9530:9555   */\n              swap2\n              pop\n                /* \"#utility.yul\":9569:9589   */\n              tag_268\n                /* \"#utility.yul\":9587:9588   */\n              dup4\n                /* \"#utility.yul\":9569:9589   */\n              tag_135\n              jump\t// in\n            tag_268:\n                /* \"#utility.yul\":9564:9589   */\n              swap3\n              pop\n                /* \"#utility.yul\":9608:9609   */\n              dup3\n                /* \"#utility.yul\":9598:9633   */\n              tag_269\n              jumpi\n                /* \"#utility.yul\":9613:9631   */\n              tag_270\n              tag_160\n              jump\t// in\n            tag_270:\n                /* \"#utility.yul\":9598:9633   */\n            tag_269:\n                /* \"#utility.yul\":9655:9656   */\n              dup3\n                /* \"#utility.yul\":9652:9653   */\n              dup3\n                /* \"#utility.yul\":9648:9657   */\n              div\n                /* \"#utility.yul\":9643:9657   */\n              swap1\n              pop\n                /* \"#utility.yul\":9478:9663   */\n              swap3\n              swap2\n              pop\n              pop\n              jump\t// out\n                /* \"#utility.yul\":9669:9849   */\n            tag_162:\n                /* \"#utility.yul\":9717:9794   */\n              0x4e487b7100000000000000000000000000000000000000000000000000000000\n                /* \"#utility.yul\":9714:9715   */\n              0x00\n                /* \"#utility.yul\":9707:9795   */\n              mstore\n                /* \"#utility.yul\":9814:9818   */\n              0x22\n                /* \"#utility.yul\":9811:9812   */\n              0x04\n                /* \"#utility.yul\":9804:9819   */\n              mstore\n                /* \"#utility.yul\":9838:9842   */\n              0x24\n                /* \"#utility.yul\":9835:9836   */\n              0x00\n                /* \"#utility.yul\":9828:9843   */\n              revert\n                /* \"#utility.yul\":9855:10175   */\n            tag_88:\n                /* \"#utility.yul\":9899:9905   */\n              0x00\n                /* \"#utility.yul\":9936:9937   */\n              0x02\n                /* \"#utility.yul\":9930:9934   */\n              dup3\n                /* \"#utility.yul\":9926:9938   */\n              div\n                /* \"#utility.yul\":9916:9938   */\n              swap1\n              pop\n                /* \"#utility.yul\":9983:9984   */\n              0x01\n                /* \"#utility.yul\":9977:9981   */\n              dup3\n                /* \"#utility.yul\":9973:9985   */\n              and\n                /* \"#utility.yul\":10004:10022   */\n              dup1\n                /* \"#utility.yul\":9994:10075   */\n              tag_273\n              jumpi\n                /* \"#utility.yul\":10060:10064   */\n              0x7f\n                /* \"#utility.yul\":10052:10058   */\n              dup3\n                /* \"#utility.yul\":10048:10065   */\n              and\n                /* \"#utility.yul\":10038:10065   */\n              swap2\n              pop\n                /* \"#utility.yul\":9994:10075   */\n            tag_273:\n                /* \"#utility.yul\":10122:10124   */\n              0x20\n                /* \"#utility.yul\":10114:10120   */\n              dup3\n                /* \"#utility.yul\":10111:10125   */\n              lt\n                /* \"#utility.yul\":10091:10109   */\n              dup2\n                /* \"#utility.yul\":10088:10126   */\n              eq\n                /* \"#utility.yul\":10085:10169   */\n              iszero\n              tag_274\n              jumpi\n                /* \"#utility.yul\":10141:10159   */\n              tag_275\n              tag_162\n              jump\t// in\n            tag_275:\n                /* \"#utility.yul\":10085:10169   */\n            tag_274:\n                /* \"#utility.yul\":9906:10175   */\n              pop\n                /* \"#utility.yul\":9855:10175   */\n              swap2\n              swap1\n              pop\n              jump\t// out\n                /* \"#utility.yul\":10181:10414   */\n            tag_114:\n                /* \"#utility.yul\":10220:10223   */\n              0x00\n                /* \"#utility.yul\":10243:10267   */\n              tag_277\n                /* \"#utility.yul\":10261:10266   */\n              dup3\n                /* \"#utility.yul\":10243:10267   */\n              tag_135\n              jump\t// in\n            tag_277:\n                /* \"#utility.yul\":10234:10267   */\n              swap2\n              pop\n                /* \"#utility.yul\":10289:10355   */\n              0xffffffffffffffffffffffffffffffffffffffffffffffffffffffffffffffff\n                /* \"#utility.yul\":10282:10287   */\n              dup3\n                /* \"#utility.yul\":10279:10356   */\n              eq\n                /* \"#utility.yul\":10276:10379   */\n              iszero\n              tag_278\n              jumpi\n                /* \"#utility.yul\":10359:10377   */\n              tag_279\n              tag_161\n              jump\t// in\n            tag_279:\n                /* \"#utility.yul\":10276:10379   */\n            tag_278:\n                /* \"#utility.yul\":10406:10407   */\n              0x01\n                /* \"#utility.yul\":10399:10404   */\n              dup3\n                /* \"#utility.yul\":10395:10408   */\n              add\n                /* \"#utility.yul\":10388:10408   */\n              swap1\n              pop\n                /* \"#utility.yul\":10181:10414   */\n              swap2\n              swap1\n              pop\n              jump\t// out\n\n            auxdata: 0xa2646970667358221220774e03dfe4341af795a866d9dfb3eda94ad2ed86d3361ac8b1955ecad7a5fe2664736f6c63430008090033\n        }\n    }\n\n    auxdata: 0xa26469706673582212207e706083549237228b824a6432062c71eac585094f7ce98d65abe64fe7baa45564736f6c63430008090033\n}\n","bytecode":{"linkReferences":{},"object":"608060405234801561001057600080fd5b50611c33806100206000396000f3fe60806040523480156200001157600080fd5b5060043610620000465760003560e01c8063339d50a5146200004b5780634220d65614620000815780634acb9d4f14620000a1575b600080fd5b62000069600480360381019062000063919062000299565b620000c3565b60405162000078919062000310565b60405180910390f35b6200009f60048036038101906200009991906200048f565b62000103565b005b620000ab620001ac565b604051620000ba9190620005c3565b60405180910390f35b60008181548110620000d457600080fd5b906000526020600020016000915054906101000a900473ffffffffffffffffffffffffffffffffffffffff1681565b600082338360405162000116906200023c565b6200012493929190620006b0565b604051809103906000f08015801562000141573d6000803e3d6000fd5b5090506000819080600181540180825580915050600190039060005260206000200160009091909190916101000a81548173ffffffffffffffffffffffffffffffffffffffff021916908373ffffffffffffffffffffffffffffffffffffffff160217905550505050565b606060008054806020026020016040519081016040528092919081815260200182805480156200023257602002820191906000526020600020905b8160009054906101000a900473ffffffffffffffffffffffffffffffffffffffff1673ffffffffffffffffffffffffffffffffffffffff1681526020019060010190808311620001e7575b5050505050905090565b61150980620006f583390190565b6000604051905090565b600080fd5b600080fd5b6000819050919050565b62000273816200025e565b81146200027f57600080fd5b50565b600081359050620002938162000268565b92915050565b600060208284031215620002b257620002b162000254565b5b6000620002c28482850162000282565b91505092915050565b600073ffffffffffffffffffffffffffffffffffffffff82169050919050565b6000620002f882620002cb565b9050919050565b6200030a81620002eb565b82525050565b6000602082019050620003276000830184620002ff565b92915050565b600080fd5b600080fd5b6000601f19601f8301169050919050565b7f4e487b7100000000000000000000000000000000000000000000000000000000600052604160045260246000fd5b620003828262000337565b810181811067ffffffffffffffff82111715620003a457620003a362000348565b5b80604052505050565b6000620003b96200024a565b9050620003c7828262000377565b919050565b600067ffffffffffffffff821115620003ea57620003e962000348565b5b620003f58262000337565b9050602081019050919050565b82818337600083830152505050565b6000620004286200042284620003cc565b620003ad565b90508281526020810184848401111562000447576200044662000332565b5b6200045484828562000402565b509392505050565b600082601f8301126200047457620004736200032d565b5b81356200048684826020860162000411565b91505092915050565b60008060408385031215620004a957620004a862000254565b5b6000620004b98582860162000282565b925050602083013567ffffffffffffffff811115620004dd57620004dc62000259565b5b620004eb858286016200045c565b9150509250929050565b600081519050919050565b600082825260208201905092915050565b6000819050602082019050919050565b6200052c81620002eb565b82525050565b600062000540838362000521565b60208301905092915050565b6000602082019050919050565b60006200056682620004f5565b62000572818562000500565b93506200057f8362000511565b8060005b83811015620005b65781516200059a888262000532565b9750620005a7836200054c565b92505060018101905062000583565b5085935050505092915050565b60006020820190508181036000830152620005df818462000559565b905092915050565b620005f2816200025e565b82525050565b60006200060582620002cb565b9050919050565b6200061781620005f8565b82525050565b600081519050919050565b600082825260208201905092915050565b60005b83811015620006595780820151818401526020810190506200063c565b8381111562000669576000848401525b50505050565b60006200067c826200061d565b62000688818562000628565b93506200069a81856020860162000639565b620006a58162000337565b840191505092915050565b6000606082019050620006c76000830186620005e7565b620006d660208301856200060c565b8181036040830152620006ea81846200066f565b905094935050505056fe60806040523480156200001157600080fd5b50604051620015093803806200150983398181016040528101906200003791906200038e565b81600160006101000a81548173ffffffffffffffffffffffffffffffffffffffff021916908373ffffffffffffffffffffffffffffffffffffffff16021790555082600381905550806002908051906020019062000097929190620000a1565b505050506200046e565b828054620000af9062000438565b90600052602060002090601f016020900481019282620000d357600085556200011f565b82601f10620000ee57805160ff19168380011785556200011f565b828001600101855582156200011f579182015b828111156200011e57825182559160200191906001019062000101565b5b5090506200012e919062000132565b5090565b5b808211156200014d57600081600090555060010162000133565b5090565b6000604051905090565b600080fd5b600080fd5b6000819050919050565b6200017a8162000165565b81146200018657600080fd5b50565b6000815190506200019a816200016f565b92915050565b600073ffffffffffffffffffffffffffffffffffffffff82169050919050565b6000620001cd82620001a0565b9050919050565b620001df81620001c0565b8114620001eb57600080fd5b50565b600081519050620001ff81620001d4565b92915050565b600080fd5b600080fd5b6000601f19601f8301169050919050565b7f4e487b7100000000000000000000000000000000000000000000000000000000600052604160045260246000fd5b6200025a826200020f565b810181811067ffffffffffffffff821117156200027c576200027b62000220565b5b80604052505050565b60006200029162000151565b90506200029f82826200024f565b919050565b600067ffffffffffffffff821115620002c257620002c162000220565b5b620002cd826200020f565b9050602081019050919050565b60005b83811015620002fa578082015181840152602081019050620002dd565b838111156200030a576000848401525b50505050565b6000620003276200032184620002a4565b62000285565b9050828152602081018484840111156200034657620003456200020a565b5b62000353848285620002da565b509392505050565b600082601f83011262000373576200037262000205565b5b81516200038584826020860162000310565b91505092915050565b600080600060608486031215620003aa57620003a96200015b565b5b6000620003ba8682870162000189565b9350506020620003cd86828701620001ee565b925050604084015167ffffffffffffffff811115620003f157620003f062000160565b5b620003ff868287016200035b565b9150509250925092565b7f4e487b7100000000000000000000000000000000000000000000000000000000600052602260045260246000fd5b600060028204905060018216806200045157607f821691505b6020821081141562000468576200046762000409565b5b50919050565b61108b806200047e6000396000f3fe6080604052600436106100a75760003560e01c806381d12c581161006457806381d12c58146101c357806382fde093146102045780638a9cfd551461022f578063937e09b114610258578063d7bb99ba14610283578063d7d1bbdb1461028d576100a7565b806303441006146100ac5780630a144391146100d55780633410452a146101125780634051ddac1461013d578063481c6a751461016d5780637284e41614610198575b600080fd5b3480156100b857600080fd5b506100d360048036038101906100ce9190610a8a565b6102b6565b005b3480156100e157600080fd5b506100fc60048036038101906100f79190610b15565b6103ff565b6040516101099190610b5d565b60405180910390f35b34801561011e57600080fd5b5061012761041f565b6040516101349190610b87565b60405180910390f35b34801561014957600080fd5b5061015261042b565b60405161016496959493929190610c4a565b60405180910390f35b34801561017957600080fd5b50610182610507565b60405161018f9190610cb2565b60405180910390f35b3480156101a457600080fd5b506101ad61052d565b6040516101ba9190610ccd565b60405180910390f35b3480156101cf57600080fd5b506101ea60048036038101906101e59190610a8a565b6105bb565b6040516101fb959493929190610cef565b60405180910390f35b34801561021057600080fd5b506102196106b6565b6040516102269190610b87565b60405180910390f35b34801561023b57600080fd5b5061025660048036038101906102519190610e7e565b6106bc565b005b34801561026457600080fd5b5061026d6107cb565b60405161027a9190610b87565b60405180910390f35b61028b6107d1565b005b34801561029957600080fd5b506102b460048036038101906102af9190610a8a565b610851565b005b600160009054906101000a900473ffffffffffffffffffffffffffffffffffffffff1673ffffffffffffffffffffffffffffffffffffffff163373ffffffffffffffffffffffffffffffffffffffff161461031057600080fd5b600080828154811061032557610324610eed565b5b9060005260206000209060050201905060026005546103449190610f7a565b81600301541161035357600080fd5b8060020160149054906101000a900460ff161561036f57600080fd5b8060020160009054906101000a900473ffffffffffffffffffffffffffffffffffffffff1673ffffffffffffffffffffffffffffffffffffffff166108fc82600101549081150290604051600060405180830381858888f193505050501580156103dd573d6000803e3d6000fd5b5060018160020160146101000a81548160ff0219169083151502179055505050565b60046020528060005260406000206000915054906101000a900460ff1681565b60008080549050905090565b6000806000806000606060035447600080549050600554600160009054906101000a900473ffffffffffffffffffffffffffffffffffffffff16600280805461047390610fda565b80601f016020809104026020016040519081016040528092919081815260200182805461049f90610fda565b80156104ec5780601f106104c1576101008083540402835291602001916104ec565b820191906000526020600020905b8154815290600101906020018083116104cf57829003601f168201915b50505050509050955095509550955095509550909192939495565b600160009054906101000a900473ffffffffffffffffffffffffffffffffffffffff1681565b6002805461053a90610fda565b80601f016020809104026020016040519081016040528092919081815260200182805461056690610fda565b80156105b35780601f10610588576101008083540402835291602001916105b3565b820191906000526020600020905b81548152906001019060200180831161059657829003601f168201915b505050505081565b600081815481106105cb57600080fd5b90600052602060002090600502016000915090508060000180546105ee90610fda565b80601f016020809104026020016040519081016040528092919081815260200182805461061a90610fda565b80156106675780601f1061063c57610100808354040283529160200191610667565b820191906000526020600020905b81548152906001019060200180831161064a57829003601f168201915b5050505050908060010154908060020160009054906101000a900473ffffffffffffffffffffffffffffffffffffffff16908060020160149054906101000a900460ff16908060030154905085565b60055481565b600160009054906101000a900473ffffffffffffffffffffffffffffffffffffffff1673ffffffffffffffffffffffffffffffffffffffff163373ffffffffffffffffffffffffffffffffffffffff161461071657600080fd5b60008060018160018154018082558091505003906000526020600020906005020190508381600001908051906020019061075192919061099d565b50828160010181905550818160020160006101000a81548173ffffffffffffffffffffffffffffffffffffffff021916908373ffffffffffffffffffffffffffffffffffffffff16021790555060008160020160146101000a81548160ff0219169083151502179055506000816003018190555050505050565b60035481565b60035434116107df57600080fd5b6001600460003373ffffffffffffffffffffffffffffffffffffffff1673ffffffffffffffffffffffffffffffffffffffff16815260200190815260200160002060006101000a81548160ff0219169083151502179055506005600081548092919061084a9061100c565b9190505550565b600080828154811061086657610865610eed565b5b90600052602060002090600502019050600460003373ffffffffffffffffffffffffffffffffffffffff1673ffffffffffffffffffffffffffffffffffffffff16815260200190815260200160002060009054906101000a900460ff166108cc57600080fd5b8060040160003373ffffffffffffffffffffffffffffffffffffffff1673ffffffffffffffffffffffffffffffffffffffff16815260200190815260200160002060009054906101000a900460ff161561092557600080fd5b60018160040160003373ffffffffffffffffffffffffffffffffffffffff1673ffffffffffffffffffffffffffffffffffffffff16815260200190815260200160002060006101000a81548160ff0219169083151502179055508060030160008154809291906109949061100c565b91905055505050565b8280546109a990610fda565b90600052602060002090601f0160209004810192826109cb5760008555610a12565b82601f106109e457805160ff1916838001178555610a12565b82800160010185558215610a12579182015b82811115610a115782518255916020019190600101906109f6565b5b509050610a1f9190610a23565b5090565b5b80821115610a3c576000816000905550600101610a24565b5090565b6000604051905090565b600080fd5b600080fd5b6000819050919050565b610a6781610a54565b8114610a7257600080fd5b50565b600081359050610a8481610a5e565b92915050565b600060208284031215610aa057610a9f610a4a565b5b6000610aae84828501610a75565b91505092915050565b600073ffffffffffffffffffffffffffffffffffffffff82169050919050565b6000610ae282610ab7565b9050919050565b610af281610ad7565b8114610afd57600080fd5b50565b600081359050610b0f81610ae9565b92915050565b600060208284031215610b2b57610b2a610a4a565b5b6000610b3984828501610b00565b91505092915050565b60008115159050919050565b610b5781610b42565b82525050565b6000602082019050610b726000830184610b4e565b92915050565b610b8181610a54565b82525050565b6000602082019050610b9c6000830184610b78565b92915050565b610bab81610ad7565b82525050565b600081519050919050565b600082825260208201905092915050565b60005b83811015610beb578082015181840152602081019050610bd0565b83811115610bfa576000848401525b50505050565b6000601f19601f8301169050919050565b6000610c1c82610bb1565b610c268185610bbc565b9350610c36818560208601610bcd565b610c3f81610c00565b840191505092915050565b600060c082019050610c5f6000830189610b78565b610c6c6020830188610b78565b610c796040830187610b78565b610c866060830186610b78565b610c936080830185610ba2565b81810360a0830152610ca58184610c11565b9050979650505050505050565b6000602082019050610cc76000830184610ba2565b92915050565b60006020820190508181036000830152610ce78184610c11565b905092915050565b600060a0820190508181036000830152610d098188610c11565b9050610d186020830187610b78565b610d256040830186610ba2565b610d326060830185610b4e565b610d3f6080830184610b78565b9695505050505050565b600080fd5b600080fd5b7f4e487b7100000000000000000000000000000000000000000000000000000000600052604160045260246000fd5b610d8b82610c00565b810181811067ffffffffffffffff82111715610daa57610da9610d53565b5b80604052505050565b6000610dbd610a40565b9050610dc98282610d82565b919050565b600067ffffffffffffffff821115610de957610de8610d53565b5b610df282610c00565b9050602081019050919050565b82818337600083830152505050565b6000610e21610e1c84610dce565b610db3565b905082815260208101848484011115610e3d57610e3c610d4e565b5b610e48848285610dff565b509392505050565b600082601f830112610e6557610e64610d49565b5b8135610e75848260208601610e0e565b91505092915050565b600080600060608486031215610e9757610e96610a4a565b5b600084013567ffffffffffffffff811115610eb557610eb4610a4f565b5b610ec186828701610e50565b9350506020610ed286828701610a75565b9250506040610ee386828701610b00565b9150509250925092565b7f4e487b7100000000000000000000000000000000000000000000000000000000600052603260045260246000fd5b7f4e487b7100000000000000000000000000000000000000000000000000000000600052601260045260246000fd5b7f4e487b7100000000000000000000000000000000000000000000000000000000600052601160045260246000fd5b6000610f8582610a54565b9150610f9083610a54565b925082610fa057610f9f610f1c565b5b828204905092915050565b7f4e487b7100000000000000000000000000000000000000000000000000000000600052602260045260246000fd5b60006002820490506001821680610ff257607f821691505b6020821081141561100657611005610fab565b5b50919050565b600061101782610a54565b91507fffffffffffffffffffffffffffffffffffffffffffffffffffffffffffffffff82141561104a57611049610f4b565b5b60018201905091905056fea2646970667358221220774e03dfe4341af795a866d9dfb3eda94ad2ed86d3361ac8b1955ecad7a5fe2664736f6c63430008090033a26469706673582212207e706083549237228b824a6432062c71eac585094f7ce98d65abe64fe7baa45564736f6c63430008090033","opcodes":"PUSH1 0x80 PUSH1 0x40 MSTORE CALLVALUE DUP1 ISZERO PUSH2 0x10 JUMPI PUSH1 0x0 DUP1 REVERT JUMPDEST POP PUSH2 0x1C33 DUP1 PUSH2 0x20 PUSH1 0x0 CODECOPY PUSH1 0x0 RETURN INVALID PUSH1 0x80 PUSH1 0x40 MSTORE CALLVALUE DUP1 ISZERO PUSH3 0x11 JUMPI PUSH1 0x0 DUP1 REVERT JUMPDEST POP PUSH1 0x4 CALLDATASIZE LT PUSH3 0x46 JUMPI PUSH1 0x0 CALLDATALOAD PUSH1 0xE0 SHR DUP1 PUSH4 0x339D50A5 EQ PUSH3 0x4B JUMPI DUP1 PUSH4 0x4220D656 EQ PUSH3 0x81 JUMPI DUP1 PUSH4 0x4ACB9D4F EQ PUSH3 0xA1 JUMPI JUMPDEST PUSH1 0x0 DUP1 REVERT JUMPDEST PUSH3 0x69 PUSH1 0x4 DUP1 CALLDATASIZE SUB DUP2 ADD SWAP1 PUSH3 0x63 SWAP2 SWAP1 PUSH3 0x299 JUMP JUMPDEST PUSH3 0xC3 JUMP JUMPDEST PUSH1 0x40 MLOAD PUSH3 0x78 SWAP2 SWAP1 PUSH3 0x310 JUMP JUMPDEST PUSH1 0x40 MLOAD DUP1 SWAP2 SUB SWAP1 RETURN JUMPDEST PUSH3 0x9F PUSH1 0x4 DUP1 CALLDATASIZE SUB DUP2 ADD SWAP1 PUSH3 0x99 SWAP2 SWAP1 PUSH3 0x48F JUMP JUMPDEST PUSH3 0x103 JUMP JUMPDEST STOP JUMPDEST PUSH3 0xAB PUSH3 0x1AC JUMP JUMPDEST PUSH1 0x40 MLOAD PUSH3 0xBA SWAP2 SWAP1 PUSH3 0x5C3 JUMP JUMPDEST PUSH1 0x40 MLOAD DUP1 SWAP2 SUB SWAP1 RETURN JUMPDEST PUSH1 0x0 DUP2 DUP2 SLOAD DUP2 LT PUSH3 0xD4 JUMPI PUSH1 0x0 DUP1 REVERT JUMPDEST SWAP1 PUSH1 0x0 MSTORE PUSH1 0x20 PUSH1 0x0 KECCAK256 ADD PUSH1 0x0 SWAP2 POP SLOAD SWAP1 PUSH2 0x100 EXP SWAP1 DIV PUSH20 0xFFFFFFFFFFFFFFFFFFFFFFFFFFFFFFFFFFFFFFFF AND DUP2 JUMP JUMPDEST PUSH1 0x0 DUP3 CALLER DUP4 PUSH1 0x40 MLOAD PUSH3 0x116 SWAP1 PUSH3 0x23C JUMP JUMPDEST PUSH3 0x124 SWAP4 SWAP3 SWAP2 SWAP1 PUSH3 0x6B0 JUMP JUMPDEST PUSH1 0x40 MLOAD DUP1 SWAP2 SUB SWAP1 PUSH1 0x0 CREATE DUP1 ISZERO DUP1 ISZERO PUSH3 0x141 JUMPI RETURNDATASIZE PUSH1 0x0 DUP1 RETURNDATACOPY RETURNDATASIZE PUSH1 0x0 REVERT JUMPDEST POP SWAP1 POP PUSH1 0x0 DUP2 SWAP1 DUP1 PUSH1 0x1 DUP2 SLOAD ADD DUP1 DUP3 SSTORE DUP1 SWAP2 POP POP PUSH1 0x1 SWAP1 SUB SWAP1 PUSH1 0x0 MSTORE PUSH1 0x20 PUSH1 0x0 KECCAK256 ADD PUSH1 0x0 SWAP1 SWAP2 SWAP1 SWAP2 SWAP1 SWAP2 PUSH2 0x100 EXP DUP2 SLOAD DUP2 PUSH20 0xFFFFFFFFFFFFFFFFFFFFFFFFFFFFFFFFFFFFFFFF MUL NOT AND SWAP1 DUP4 PUSH20 0xFFFFFFFFFFFFFFFFFFFFFFFFFFFFFFFFFFFFFFFF AND MUL OR SWAP1 SSTORE POP POP POP POP JUMP JUMPDEST PUSH1 0x60 PUSH1 0x0 DUP1 SLOAD DUP1 PUSH1 0x20 MUL PUSH1 0x20 ADD PUSH1 0x40 MLOAD SWAP1 DUP2 ADD PUSH1 0x40 MSTORE DUP1 SWAP3 SWAP2 SWAP1 DUP2 DUP2 MSTORE PUSH1 0x20 ADD DUP3 DUP1 SLOAD DUP1 ISZERO PUSH3 0x232 JUMPI PUSH1 0x20 MUL DUP3 ADD SWAP2 SWAP1 PUSH1 0x0 MSTORE PUSH1 0x20 PUSH1 0x0 KECCAK256 SWAP1 JUMPDEST DUP2 PUSH1 0x0 SWAP1 SLOAD SWAP1 PUSH2 0x100 EXP SWAP1 DIV PUSH20 0xFFFFFFFFFFFFFFFFFFFFFFFFFFFFFFFFFFFFFFFF AND PUSH20 0xFFFFFFFFFFFFFFFFFFFFFFFFFFFFFFFFFFFFFFFF AND DUP2 MSTORE PUSH1 0x20 ADD SWAP1 PUSH1 0x1 ADD SWAP1 DUP1 DUP4 GT PUSH3 0x1E7 JUMPI JUMPDEST POP POP POP POP POP SWAP1 POP SWAP1 JUMP JUMPDEST PUSH2 0x1509 DUP1 PUSH3 0x6F5 DUP4 CODECOPY ADD SWAP1 JUMP JUMPDEST PUSH1 0x0 PUSH1 0x40 MLOAD SWAP1 POP SWAP1 JUMP JUMPDEST PUSH1 0x0 DUP1 REVERT JUMPDEST PUSH1 0x0 DUP1 REVERT JUMPDEST PUSH1 0x0 DUP2 SWAP1 POP SWAP2 SWAP1 POP JUMP JUMPDEST PUSH3 0x273 DUP2 PUSH3 0x25E JUMP JUMPDEST DUP2 EQ PUSH3 0x27F JUMPI PUSH1 0x0 DUP1 REVERT JUMPDEST POP JUMP JUMPDEST PUSH1 0x0 DUP2 CALLDATALOAD SWAP1 POP PUSH3 0x293 DUP2 PUSH3 0x268 JUMP JUMPDEST SWAP3 SWAP2 POP POP JUMP JUMPDEST PUSH1 0x0 PUSH1 0x20 DUP3 DUP5 SUB SLT ISZERO PUSH3 0x2B2 JUMPI PUSH3 0x2B1 PUSH3 0x254 JUMP JUMPDEST JUMPDEST PUSH1 0x0 PUSH3 0x2C2 DUP5 DUP3 DUP6 ADD PUSH3 0x282 JUMP JUMPDEST SWAP2 POP POP SWAP3 SWAP2 POP POP JUMP JUMPDEST PUSH1 0x0 PUSH20 0xFFFFFFFFFFFFFFFFFFFFFFFFFFFFFFFFFFFFFFFF DUP3 AND SWAP1 POP SWAP2 SWAP1 POP JUMP JUMPDEST PUSH1 0x0 PUSH3 0x2F8 DUP3 PUSH3 0x2CB JUMP JUMPDEST SWAP1 POP SWAP2 SWAP1 POP JUMP JUMPDEST PUSH3 0x30A DUP2 PUSH3 0x2EB JUMP JUMPDEST DUP3 MSTORE POP POP JUMP JUMPDEST PUSH1 0x0 PUSH1 0x20 DUP3 ADD SWAP1 POP PUSH3 0x327 PUSH1 0x0 DUP4 ADD DUP5 PUSH3 0x2FF JUMP JUMPDEST SWAP3 SWAP2 POP POP JUMP JUMPDEST PUSH1 0x0 DUP1 REVERT JUMPDEST PUSH1 0x0 DUP1 REVERT JUMPDEST PUSH1 0x0 PUSH1 0x1F NOT PUSH1 0x1F DUP4 ADD AND SWAP1 POP SWAP2 SWAP1 POP JUMP JUMPDEST PUSH32 0x4E487B7100000000000000000000000000000000000000000000000000000000 PUSH1 0x0 MSTORE PUSH1 0x41 PUSH1 0x4 MSTORE PUSH1 0x24 PUSH1 0x0 REVERT JUMPDEST PUSH3 0x382 DUP3 PUSH3 0x337 JUMP JUMPDEST DUP2 ADD DUP2 DUP2 LT PUSH8 0xFFFFFFFFFFFFFFFF DUP3 GT OR ISZERO PUSH3 0x3A4 JUMPI PUSH3 0x3A3 PUSH3 0x348 JUMP JUMPDEST JUMPDEST DUP1 PUSH1 0x40 MSTORE POP POP POP JUMP JUMPDEST PUSH1 0x0 PUSH3 0x3B9 PUSH3 0x24A JUMP JUMPDEST SWAP1 POP PUSH3 0x3C7 DUP3 DUP3 PUSH3 0x377 JUMP JUMPDEST SWAP2 SWAP1 POP JUMP JUMPDEST PUSH1 0x0 PUSH8 0xFFFFFFFFFFFFFFFF DUP3 GT ISZERO PUSH3 0x3EA JUMPI PUSH3 0x3E9 PUSH3 0x348 JUMP JUMPDEST JUMPDEST PUSH3 0x3F5 DUP3 PUSH3 0x337 JUMP JUMPDEST SWAP1 POP PUSH1 0x20 DUP2 ADD SWAP1 POP SWAP2 SWAP1 POP JUMP JUMPDEST DUP3 DUP2 DUP4 CALLDATACOPY PUSH1 0x0 DUP4 DUP4 ADD MSTORE POP POP POP JUMP JUMPDEST PUSH1 0x0 PUSH3 0x428 PUSH3 0x422 DUP5 PUSH3 0x3CC JUMP JUMPDEST PUSH3 0x3AD JUMP JUMPDEST SWAP1 POP DUP3 DUP2 MSTORE PUSH1 0x20 DUP2 ADD DUP5 DUP5 DUP5 ADD GT ISZERO PUSH3 0x447 JUMPI PUSH3 0x446 PUSH3 0x332 JUMP JUMPDEST JUMPDEST PUSH3 0x454 DUP5 DUP3 DUP6 PUSH3 0x402 JUMP JUMPDEST POP SWAP4 SWAP3 POP POP POP JUMP JUMPDEST PUSH1 0x0 DUP3 PUSH1 0x1F DUP4 ADD SLT PUSH3 0x474 JUMPI PUSH3 0x473 PUSH3 0x32D JUMP JUMPDEST JUMPDEST DUP2 CALLDATALOAD PUSH3 0x486 DUP5 DUP3 PUSH1 0x20 DUP7 ADD PUSH3 0x411 JUMP JUMPDEST SWAP2 POP POP SWAP3 SWAP2 POP POP JUMP JUMPDEST PUSH1 0x0 DUP1 PUSH1 0x40 DUP4 DUP6 SUB SLT ISZERO PUSH3 0x4A9 JUMPI PUSH3 0x4A8 PUSH3 0x254 JUMP JUMPDEST JUMPDEST PUSH1 0x0 PUSH3 0x4B9 DUP6 DUP3 DUP7 ADD PUSH3 0x282 JUMP JUMPDEST SWAP3 POP POP PUSH1 0x20 DUP4 ADD CALLDATALOAD PUSH8 0xFFFFFFFFFFFFFFFF DUP2 GT ISZERO PUSH3 0x4DD JUMPI PUSH3 0x4DC PUSH3 0x259 JUMP JUMPDEST JUMPDEST PUSH3 0x4EB DUP6 DUP3 DUP7 ADD PUSH3 0x45C JUMP JUMPDEST SWAP2 POP POP SWAP3 POP SWAP3 SWAP1 POP JUMP JUMPDEST PUSH1 0x0 DUP2 MLOAD SWAP1 POP SWAP2 SWAP1 POP JUMP JUMPDEST PUSH1 0x0 DUP3 DUP3 MSTORE PUSH1 0x20 DUP3 ADD SWAP1 POP SWAP3 SWAP2 POP POP JUMP JUMPDEST PUSH1 0x0 DUP2 SWAP1 POP PUSH1 0x20 DUP3 ADD SWAP1 POP SWAP2 SWAP1 POP JUMP JUMPDEST PUSH3 0x52C DUP2 PUSH3 0x2EB JUMP JUMPDEST DUP3 MSTORE POP POP JUMP JUMPDEST PUSH1 0x0 PUSH3 0x540 DUP4 DUP4 PUSH3 0x521 JUMP JUMPDEST PUSH1 0x20 DUP4 ADD SWAP1 POP SWAP3 SWAP2 POP POP JUMP JUMPDEST PUSH1 0x0 PUSH1 0x20 DUP3 ADD SWAP1 POP SWAP2 SWAP1 POP JUMP JUMPDEST PUSH1 0x0 PUSH3 0x566 DUP3 PUSH3 0x4F5 JUMP JUMPDEST PUSH3 0x572 DUP2 DUP6 PUSH3 0x500 JUMP JUMPDEST SWAP4 POP PUSH3 0x57F DUP4 PUSH3 0x511 JUMP JUMPDEST DUP1 PUSH1 0x0 JUMPDEST DUP4 DUP2 LT ISZERO PUSH3 0x5B6 JUMPI DUP2 MLOAD PUSH3 0x59A DUP9 DUP3 PUSH3 0x532 JUMP JUMPDEST SWAP8 POP PUSH3 0x5A7 DUP4 PUSH3 0x54C JUMP JUMPDEST SWAP3 POP POP PUSH1 0x1 DUP2 ADD SWAP1 POP PUSH3 0x583 JUMP JUMPDEST POP DUP6 SWAP4 POP POP POP POP SWAP3 SWAP2 POP POP JUMP JUMPDEST PUSH1 0x0 PUSH1 0x20 DUP3 ADD SWAP1 POP DUP2 DUP2 SUB PUSH1 0x0 DUP4 ADD MSTORE PUSH3 0x5DF DUP2 DUP5 PUSH3 0x559 JUMP JUMPDEST SWAP1 POP SWAP3 SWAP2 POP POP JUMP JUMPDEST PUSH3 0x5F2 DUP2 PUSH3 0x25E JUMP JUMPDEST DUP3 MSTORE POP POP JUMP JUMPDEST PUSH1 0x0 PUSH3 0x605 DUP3 PUSH3 0x2CB JUMP JUMPDEST SWAP1 POP SWAP2 SWAP1 POP JUMP JUMPDEST PUSH3 0x617 DUP2 PUSH3 0x5F8 JUMP JUMPDEST DUP3 MSTORE POP POP JUMP JUMPDEST PUSH1 0x0 DUP2 MLOAD SWAP1 POP SWAP2 SWAP1 POP JUMP JUMPDEST PUSH1 0x0 DUP3 DUP3 MSTORE PUSH1 0x20 DUP3 ADD SWAP1 POP SWAP3 SWAP2 POP POP JUMP JUMPDEST PUSH1 0x0 JUMPDEST DUP4 DUP2 LT ISZERO PUSH3 0x659 JUMPI DUP1 DUP3 ADD MLOAD DUP2 DUP5 ADD MSTORE PUSH1 0x20 DUP2 ADD SWAP1 POP PUSH3 0x63C JUMP JUMPDEST DUP4 DUP2 GT ISZERO PUSH3 0x669 JUMPI PUSH1 0x0 DUP5 DUP5 ADD MSTORE JUMPDEST POP POP POP POP JUMP JUMPDEST PUSH1 0x0 PUSH3 0x67C DUP3 PUSH3 0x61D JUMP JUMPDEST PUSH3 0x688 DUP2 DUP6 PUSH3 0x628 JUMP JUMPDEST SWAP4 POP PUSH3 0x69A DUP2 DUP6 PUSH1 0x20 DUP7 ADD PUSH3 0x639 JUMP JUMPDEST PUSH3 0x6A5 DUP2 PUSH3 0x337 JUMP JUMPDEST DUP5 ADD SWAP2 POP POP SWAP3 SWAP2 POP POP JUMP JUMPDEST PUSH1 0x0 PUSH1 0x60 DUP3 ADD SWAP1 POP PUSH3 0x6C7 PUSH1 0x0 DUP4 ADD DUP7 PUSH3 0x5E7 JUMP JUMPDEST PUSH3 0x6D6 PUSH1 0x20 DUP4 ADD DUP6 PUSH3 0x60C JUMP JUMPDEST DUP2 DUP2 SUB PUSH1 0x40 DUP4 ADD MSTORE PUSH3 0x6EA DUP2 DUP5 PUSH3 0x66F JUMP JUMPDEST SWAP1 POP SWAP5 SWAP4 POP POP POP POP JUMP INVALID PUSH1 0x80 PUSH1 0x40 MSTORE CALLVALUE DUP1 ISZERO PUSH3 0x11 JUMPI PUSH1 0x0 DUP1 REVERT JUMPDEST POP PUSH1 0x40 MLOAD PUSH3 0x1509 CODESIZE SUB DUP1 PUSH3 0x1509 DUP4 CODECOPY DUP2 DUP2 ADD PUSH1 0x40 MSTORE DUP2 ADD SWAP1 PUSH3 0x37 SWAP2 SWAP1 PUSH3 0x38E JUMP JUMPDEST DUP2 PUSH1 0x1 PUSH1 0x0 PUSH2 0x100 EXP DUP2 SLOAD DUP2 PUSH20 0xFFFFFFFFFFFFFFFFFFFFFFFFFFFFFFFFFFFFFFFF MUL NOT AND SWAP1 DUP4 PUSH20 0xFFFFFFFFFFFFFFFFFFFFFFFFFFFFFFFFFFFFFFFF AND MUL OR SWAP1 SSTORE POP DUP3 PUSH1 0x3 DUP2 SWAP1 SSTORE POP DUP1 PUSH1 0x2 SWAP1 DUP1 MLOAD SWAP1 PUSH1 0x20 ADD SWAP1 PUSH3 0x97 SWAP3 SWAP2 SWAP1 PUSH3 0xA1 JUMP JUMPDEST POP POP POP POP PUSH3 0x46E JUMP JUMPDEST DUP3 DUP1 SLOAD PUSH3 0xAF SWAP1 PUSH3 0x438 JUMP JUMPDEST SWAP1 PUSH1 0x0 MSTORE PUSH1 0x20 PUSH1 0x0 KECCAK256 SWAP1 PUSH1 0x1F ADD PUSH1 0x20 SWAP1 DIV DUP2 ADD SWAP3 DUP3 PUSH3 0xD3 JUMPI PUSH1 0x0 DUP6 SSTORE PUSH3 0x11F JUMP JUMPDEST DUP3 PUSH1 0x1F LT PUSH3 0xEE JUMPI DUP1 MLOAD PUSH1 0xFF NOT AND DUP4 DUP1 ADD OR DUP6 SSTORE PUSH3 0x11F JUMP JUMPDEST DUP3 DUP1 ADD PUSH1 0x1 ADD DUP6 SSTORE DUP3 ISZERO PUSH3 0x11F JUMPI SWAP2 DUP3 ADD JUMPDEST DUP3 DUP2 GT ISZERO PUSH3 0x11E JUMPI DUP3 MLOAD DUP3 SSTORE SWAP2 PUSH1 0x20 ADD SWAP2 SWAP1 PUSH1 0x1 ADD SWAP1 PUSH3 0x101 JUMP JUMPDEST JUMPDEST POP SWAP1 POP PUSH3 0x12E SWAP2 SWAP1 PUSH3 0x132 JUMP JUMPDEST POP SWAP1 JUMP JUMPDEST JUMPDEST DUP1 DUP3 GT ISZERO PUSH3 0x14D JUMPI PUSH1 0x0 DUP2 PUSH1 0x0 SWAP1 SSTORE POP PUSH1 0x1 ADD PUSH3 0x133 JUMP JUMPDEST POP SWAP1 JUMP JUMPDEST PUSH1 0x0 PUSH1 0x40 MLOAD SWAP1 POP SWAP1 JUMP JUMPDEST PUSH1 0x0 DUP1 REVERT JUMPDEST PUSH1 0x0 DUP1 REVERT JUMPDEST PUSH1 0x0 DUP2 SWAP1 POP SWAP2 SWAP1 POP JUMP JUMPDEST PUSH3 0x17A DUP2 PUSH3 0x165 JUMP JUMPDEST DUP2 EQ PUSH3 0x186 JUMPI PUSH1 0x0 DUP1 REVERT JUMPDEST POP JUMP JUMPDEST PUSH1 0x0 DUP2 MLOAD SWAP1 POP PUSH3 0x19A DUP2 PUSH3 0x16F JUMP JUMPDEST SWAP3 SWAP2 POP POP JUMP JUMPDEST PUSH1 0x0 PUSH20 0xFFFFFFFFFFFFFFFFFFFFFFFFFFFFFFFFFFFFFFFF DUP3 AND SWAP1 POP SWAP2 SWAP1 POP JUMP JUMPDEST PUSH1 0x0 PUSH3 0x1CD DUP3 PUSH3 0x1A0 JUMP JUMPDEST SWAP1 POP SWAP2 SWAP1 POP JUMP JUMPDEST PUSH3 0x1DF DUP2 PUSH3 0x1C0 JUMP JUMPDEST DUP2 EQ PUSH3 0x1EB JUMPI PUSH1 0x0 DUP1 REVERT JUMPDEST POP JUMP JUMPDEST PUSH1 0x0 DUP2 MLOAD SWAP1 POP PUSH3 0x1FF DUP2 PUSH3 0x1D4 JUMP JUMPDEST SWAP3 SWAP2 POP POP JUMP JUMPDEST PUSH1 0x0 DUP1 REVERT JUMPDEST PUSH1 0x0 DUP1 REVERT JUMPDEST PUSH1 0x0 PUSH1 0x1F NOT PUSH1 0x1F DUP4 ADD AND SWAP1 POP SWAP2 SWAP1 POP JUMP JUMPDEST PUSH32 0x4E487B7100000000000000000000000000000000000000000000000000000000 PUSH1 0x0 MSTORE PUSH1 0x41 PUSH1 0x4 MSTORE PUSH1 0x24 PUSH1 0x0 REVERT JUMPDEST PUSH3 0x25A DUP3 PUSH3 0x20F JUMP JUMPDEST DUP2 ADD DUP2 DUP2 LT PUSH8 0xFFFFFFFFFFFFFFFF DUP3 GT OR ISZERO PUSH3 0x27C JUMPI PUSH3 0x27B PUSH3 0x220 JUMP JUMPDEST JUMPDEST DUP1 PUSH1 0x40 MSTORE POP POP POP JUMP JUMPDEST PUSH1 0x0 PUSH3 0x291 PUSH3 0x151 JUMP JUMPDEST SWAP1 POP PUSH3 0x29F DUP3 DUP3 PUSH3 0x24F JUMP JUMPDEST SWAP2 SWAP1 POP JUMP JUMPDEST PUSH1 0x0 PUSH8 0xFFFFFFFFFFFFFFFF DUP3 GT ISZERO PUSH3 0x2C2 JUMPI PUSH3 0x2C1 PUSH3 0x220 JUMP JUMPDEST JUMPDEST PUSH3 0x2CD DUP3 PUSH3 0x20F JUMP JUMPDEST SWAP1 POP PUSH1 0x20 DUP2 ADD SWAP1 POP SWAP2 SWAP1 POP JUMP JUMPDEST PUSH1 0x0 JUMPDEST DUP4 DUP2 LT ISZERO PUSH3 0x2FA JUMPI DUP1 DUP3 ADD MLOAD DUP2 DUP5 ADD MSTORE PUSH1 0x20 DUP2 ADD SWAP1 POP PUSH3 0x2DD JUMP JUMPDEST DUP4 DUP2 GT ISZERO PUSH3 0x30A JUMPI PUSH1 0x0 DUP5 DUP5 ADD MSTORE JUMPDEST POP POP POP POP JUMP JUMPDEST PUSH1 0x0 PUSH3 0x327 PUSH3 0x321 DUP5 PUSH3 0x2A4 JUMP JUMPDEST PUSH3 0x285 JUMP JUMPDEST SWAP1 POP DUP3 DUP2 MSTORE PUSH1 0x20 DUP2 ADD DUP5 DUP5 DUP5 ADD GT ISZERO PUSH3 0x346 JUMPI PUSH3 0x345 PUSH3 0x20A JUMP JUMPDEST JUMPDEST PUSH3 0x353 DUP5 DUP3 DUP6 PUSH3 0x2DA JUMP JUMPDEST POP SWAP4 SWAP3 POP POP POP JUMP JUMPDEST PUSH1 0x0 DUP3 PUSH1 0x1F DUP4 ADD SLT PUSH3 0x373 JUMPI PUSH3 0x372 PUSH3 0x205 JUMP JUMPDEST JUMPDEST DUP2 MLOAD PUSH3 0x385 DUP5 DUP3 PUSH1 0x20 DUP7 ADD PUSH3 0x310 JUMP JUMPDEST SWAP2 POP POP SWAP3 SWAP2 POP POP JUMP JUMPDEST PUSH1 0x0 DUP1 PUSH1 0x0 PUSH1 0x60 DUP5 DUP7 SUB SLT ISZERO PUSH3 0x3AA JUMPI PUSH3 0x3A9 PUSH3 0x15B JUMP JUMPDEST JUMPDEST PUSH1 0x0 PUSH3 0x3BA DUP7 DUP3 DUP8 ADD PUSH3 0x189 JUMP JUMPDEST SWAP4 POP POP PUSH1 0x20 PUSH3 0x3CD DUP7 DUP3 DUP8 ADD PUSH3 0x1EE JUMP JUMPDEST SWAP3 POP POP PUSH1 0x40 DUP5 ADD MLOAD PUSH8 0xFFFFFFFFFFFFFFFF DUP2 GT ISZERO PUSH3 0x3F1 JUMPI PUSH3 0x3F0 PUSH3 0x160 JUMP JUMPDEST JUMPDEST PUSH3 0x3FF DUP7 DUP3 DUP8 ADD PUSH3 0x35B JUMP JUMPDEST SWAP2 POP POP SWAP3 POP SWAP3 POP SWAP3 JUMP JUMPDEST PUSH32 0x4E487B7100000000000000000000000000000000000000000000000000000000 PUSH1 0x0 MSTORE PUSH1 0x22 PUSH1 0x4 MSTORE PUSH1 0x24 PUSH1 0x0 REVERT JUMPDEST PUSH1 0x0 PUSH1 0x2 DUP3 DIV SWAP1 POP PUSH1 0x1 DUP3 AND DUP1 PUSH3 0x451 JUMPI PUSH1 0x7F DUP3 AND SWAP2 POP JUMPDEST PUSH1 0x20 DUP3 LT DUP2 EQ ISZERO PUSH3 0x468 JUMPI PUSH3 0x467 PUSH3 0x409 JUMP JUMPDEST JUMPDEST POP SWAP2 SWAP1 POP JUMP JUMPDEST PUSH2 0x108B DUP1 PUSH3 0x47E PUSH1 0x0 CODECOPY PUSH1 0x0 RETURN INVALID PUSH1 0x80 PUSH1 0x40 MSTORE PUSH1 0x4 CALLDATASIZE LT PUSH2 0xA7 JUMPI PUSH1 0x0 CALLDATALOAD PUSH1 0xE0 SHR DUP1 PUSH4 0x81D12C58 GT PUSH2 0x64 JUMPI DUP1 PUSH4 0x81D12C58 EQ PUSH2 0x1C3 JUMPI DUP1 PUSH4 0x82FDE093 EQ PUSH2 0x204 JUMPI DUP1 PUSH4 0x8A9CFD55 EQ PUSH2 0x22F JUMPI DUP1 PUSH4 0x937E09B1 EQ PUSH2 0x258 JUMPI DUP1 PUSH4 0xD7BB99BA EQ PUSH2 0x283 JUMPI DUP1 PUSH4 0xD7D1BBDB EQ PUSH2 0x28D JUMPI PUSH2 0xA7 JUMP JUMPDEST DUP1 PUSH4 0x3441006 EQ PUSH2 0xAC JUMPI DUP1 PUSH4 0xA144391 EQ PUSH2 0xD5 JUMPI DUP1 PUSH4 0x3410452A EQ PUSH2 0x112 JUMPI DUP1 PUSH4 0x4051DDAC EQ PUSH2 0x13D JUMPI DUP1 PUSH4 0x481C6A75 EQ PUSH2 0x16D JUMPI DUP1 PUSH4 0x7284E416 EQ PUSH2 0x198 JUMPI JUMPDEST PUSH1 0x0 DUP1 REVERT JUMPDEST CALLVALUE DUP1 ISZERO PUSH2 0xB8 JUMPI PUSH1 0x0 DUP1 REVERT JUMPDEST POP PUSH2 0xD3 PUSH1 0x4 DUP1 CALLDATASIZE SUB DUP2 ADD SWAP1 PUSH2 0xCE SWAP2 SWAP1 PUSH2 0xA8A JUMP JUMPDEST PUSH2 0x2B6 JUMP JUMPDEST STOP JUMPDEST CALLVALUE DUP1 ISZERO PUSH2 0xE1 JUMPI PUSH1 0x0 DUP1 REVERT JUMPDEST POP PUSH2 0xFC PUSH1 0x4 DUP1 CALLDATASIZE SUB DUP2 ADD SWAP1 PUSH2 0xF7 SWAP2 SWAP1 PUSH2 0xB15 JUMP JUMPDEST PUSH2 0x3FF JUMP JUMPDEST PUSH1 0x40 MLOAD PUSH2 0x109 SWAP2 SWAP1 PUSH2 0xB5D JUMP JUMPDEST PUSH1 0x40 MLOAD DUP1 SWAP2 SUB SWAP1 RETURN JUMPDEST CALLVALUE DUP1 ISZERO PUSH2 0x11E JUMPI PUSH1 0x0 DUP1 REVERT JUMPDEST POP PUSH2 0x127 PUSH2 0x41F JUMP JUMPDEST PUSH1 0x40 MLOAD PUSH2 0x134 SWAP2 SWAP1 PUSH2 0xB87 JUMP JUMPDEST PUSH1 0x40 MLOAD DUP1 SWAP2 SUB SWAP1 RETURN JUMPDEST CALLVALUE DUP1 ISZERO PUSH2 0x149 JUMPI PUSH1 0x0 DUP1 REVERT JUMPDEST POP PUSH2 0x152 PUSH2 0x42B JUMP JUMPDEST PUSH1 0x40 MLOAD PUSH2 0x164 SWAP7 SWAP6 SWAP5 SWAP4 SWAP3 SWAP2 SWAP1 PUSH2 0xC4A JUMP JUMPDEST PUSH1 0x40 MLOAD DUP1 SWAP2 SUB SWAP1 RETURN JUMPDEST CALLVALUE DUP1 ISZERO PUSH2 0x179 JUMPI PUSH1 0x0 DUP1 REVERT JUMPDEST POP PUSH2 0x182 PUSH2 0x507 JUMP JUMPDEST PUSH1 0x40 MLOAD PUSH2 0x18F SWAP2 SWAP1 PUSH2 0xCB2 JUMP JUMPDEST PUSH1 0x40 MLOAD DUP1 SWAP2 SUB SWAP1 RETURN JUMPDEST CALLVALUE DUP1 ISZERO PUSH2 0x1A4 JUMPI PUSH1 0x0 DUP1 REVERT JUMPDEST POP PUSH2 0x1AD PUSH2 0x52D JUMP JUMPDEST PUSH1 0x40 MLOAD PUSH2 0x1BA SWAP2 SWAP1 PUSH2 0xCCD JUMP JUMPDEST PUSH1 0x40 MLOAD DUP1 SWAP2 SUB SWAP1 RETURN JUMPDEST CALLVALUE DUP1 ISZERO PUSH2 0x1CF JUMPI PUSH1 0x0 DUP1 REVERT JUMPDEST POP PUSH2 0x1EA PUSH1 0x4 DUP1 CALLDATASIZE SUB DUP2 ADD SWAP1 PUSH2 0x1E5 SWAP2 SWAP1 PUSH2 0xA8A JUMP JUMPDEST PUSH2 0x5BB JUMP JUMPDEST PUSH1 0x40 MLOAD PUSH2 0x1FB SWAP6 SWAP5 SWAP4 SWAP3 SWAP2 SWAP1 PUSH2 0xCEF JUMP JUMPDEST PUSH1 0x40 MLOAD DUP1 SWAP2 SUB SWAP1 RETURN JUMPDEST CALLVALUE DUP1 ISZERO PUSH2 0x210 JUMPI PUSH1 0x0 DUP1 REVERT JUMPDEST POP PUSH2 0x219 PUSH2 0x6B6 JUMP JUMPDEST PUSH1 0x40 MLOAD PUSH2 0x226 SWAP2 SWAP1 PUSH2 0xB87 JUMP JUMPDEST PUSH1 0x40 MLOAD DUP1 SWAP2 SUB SWAP1 RETURN JUMPDEST CALLVALUE DUP1 ISZERO PUSH2 0x23B JUMPI PUSH1 0x0 DUP1 REVERT JUMPDEST POP PUSH2 0x256 PUSH1 0x4 DUP1 CALLDATASIZE SUB DUP2 ADD SWAP1 PUSH2 0x251 SWAP2 SWAP1 PUSH2 0xE7E JUMP JUMPDEST PUSH2 0x6BC JUMP JUMPDEST STOP JUMPDEST CALLVALUE DUP1 ISZERO PUSH2 0x264 JUMPI PUSH1 0x0 DUP1 REVERT JUMPDEST POP PUSH2 0x26D PUSH2 0x7CB JUMP JUMPDEST PUSH1 0x40 MLOAD PUSH2 0x27A SWAP2 SWAP1 PUSH2 0xB87 JUMP JUMPDEST PUSH1 0x40 MLOAD DUP1 SWAP2 SUB SWAP1 RETURN JUMPDEST PUSH2 0x28B PUSH2 0x7D1 JUMP JUMPDEST STOP JUMPDEST CALLVALUE DUP1 ISZERO PUSH2 0x299 JUMPI PUSH1 0x0 DUP1 REVERT JUMPDEST POP PUSH2 0x2B4 PUSH1 0x4 DUP1 CALLDATASIZE SUB DUP2 ADD SWAP1 PUSH2 0x2AF SWAP2 SWAP1 PUSH2 0xA8A JUMP JUMPDEST PUSH2 0x851 JUMP JUMPDEST STOP JUMPDEST PUSH1 0x1 PUSH1 0x0 SWAP1 SLOAD SWAP1 PUSH2 0x100 EXP SWAP1 DIV PUSH20 0xFFFFFFFFFFFFFFFFFFFFFFFFFFFFFFFFFFFFFFFF AND PUSH20 0xFFFFFFFFFFFFFFFFFFFFFFFFFFFFFFFFFFFFFFFF AND CALLER PUSH20 0xFFFFFFFFFFFFFFFFFFFFFFFFFFFFFFFFFFFFFFFF AND EQ PUSH2 0x310 JUMPI PUSH1 0x0 DUP1 REVERT JUMPDEST PUSH1 0x0 DUP1 DUP3 DUP2 SLOAD DUP2 LT PUSH2 0x325 JUMPI PUSH2 0x324 PUSH2 0xEED JUMP JUMPDEST JUMPDEST SWAP1 PUSH1 0x0 MSTORE PUSH1 0x20 PUSH1 0x0 KECCAK256 SWAP1 PUSH1 0x5 MUL ADD SWAP1 POP PUSH1 0x2 PUSH1 0x5 SLOAD PUSH2 0x344 SWAP2 SWAP1 PUSH2 0xF7A JUMP JUMPDEST DUP2 PUSH1 0x3 ADD SLOAD GT PUSH2 0x353 JUMPI PUSH1 0x0 DUP1 REVERT JUMPDEST DUP1 PUSH1 0x2 ADD PUSH1 0x14 SWAP1 SLOAD SWAP1 PUSH2 0x100 EXP SWAP1 DIV PUSH1 0xFF AND ISZERO PUSH2 0x36F JUMPI PUSH1 0x0 DUP1 REVERT JUMPDEST DUP1 PUSH1 0x2 ADD PUSH1 0x0 SWAP1 SLOAD SWAP1 PUSH2 0x100 EXP SWAP1 DIV PUSH20 0xFFFFFFFFFFFFFFFFFFFFFFFFFFFFFFFFFFFFFFFF AND PUSH20 0xFFFFFFFFFFFFFFFFFFFFFFFFFFFFFFFFFFFFFFFF AND PUSH2 0x8FC DUP3 PUSH1 0x1 ADD SLOAD SWAP1 DUP2 ISZERO MUL SWAP1 PUSH1 0x40 MLOAD PUSH1 0x0 PUSH1 0x40 MLOAD DUP1 DUP4 SUB DUP2 DUP6 DUP9 DUP9 CALL SWAP4 POP POP POP POP ISZERO DUP1 ISZERO PUSH2 0x3DD JUMPI RETURNDATASIZE PUSH1 0x0 DUP1 RETURNDATACOPY RETURNDATASIZE PUSH1 0x0 REVERT JUMPDEST POP PUSH1 0x1 DUP2 PUSH1 0x2 ADD PUSH1 0x14 PUSH2 0x100 EXP DUP2 SLOAD DUP2 PUSH1 0xFF MUL NOT AND SWAP1 DUP4 ISZERO ISZERO MUL OR SWAP1 SSTORE POP POP POP JUMP JUMPDEST PUSH1 0x4 PUSH1 0x20 MSTORE DUP1 PUSH1 0x0 MSTORE PUSH1 0x40 PUSH1 0x0 KECCAK256 PUSH1 0x0 SWAP2 POP SLOAD SWAP1 PUSH2 0x100 EXP SWAP1 DIV PUSH1 0xFF AND DUP2 JUMP JUMPDEST PUSH1 0x0 DUP1 DUP1 SLOAD SWAP1 POP SWAP1 POP SWAP1 JUMP JUMPDEST PUSH1 0x0 DUP1 PUSH1 0x0 DUP1 PUSH1 0x0 PUSH1 0x60 PUSH1 0x3 SLOAD SELFBALANCE PUSH1 0x0 DUP1 SLOAD SWAP1 POP PUSH1 0x5 SLOAD PUSH1 0x1 PUSH1 0x0 SWAP1 SLOAD SWAP1 PUSH2 0x100 EXP SWAP1 DIV PUSH20 0xFFFFFFFFFFFFFFFFFFFFFFFFFFFFFFFFFFFFFFFF AND PUSH1 0x2 DUP1 DUP1 SLOAD PUSH2 0x473 SWAP1 PUSH2 0xFDA JUMP JUMPDEST DUP1 PUSH1 0x1F ADD PUSH1 0x20 DUP1 SWAP2 DIV MUL PUSH1 0x20 ADD PUSH1 0x40 MLOAD SWAP1 DUP2 ADD PUSH1 0x40 MSTORE DUP1 SWAP3 SWAP2 SWAP1 DUP2 DUP2 MSTORE PUSH1 0x20 ADD DUP3 DUP1 SLOAD PUSH2 0x49F SWAP1 PUSH2 0xFDA JUMP JUMPDEST DUP1 ISZERO PUSH2 0x4EC JUMPI DUP1 PUSH1 0x1F LT PUSH2 0x4C1 JUMPI PUSH2 0x100 DUP1 DUP4 SLOAD DIV MUL DUP4 MSTORE SWAP2 PUSH1 0x20 ADD SWAP2 PUSH2 0x4EC JUMP JUMPDEST DUP3 ADD SWAP2 SWAP1 PUSH1 0x0 MSTORE PUSH1 0x20 PUSH1 0x0 KECCAK256 SWAP1 JUMPDEST DUP2 SLOAD DUP2 MSTORE SWAP1 PUSH1 0x1 ADD SWAP1 PUSH1 0x20 ADD DUP1 DUP4 GT PUSH2 0x4CF JUMPI DUP3 SWAP1 SUB PUSH1 0x1F AND DUP3 ADD SWAP2 JUMPDEST POP POP POP POP POP SWAP1 POP SWAP6 POP SWAP6 POP SWAP6 POP SWAP6 POP SWAP6 POP SWAP6 POP SWAP1 SWAP2 SWAP3 SWAP4 SWAP5 SWAP6 JUMP JUMPDEST PUSH1 0x1 PUSH1 0x0 SWAP1 SLOAD SWAP1 PUSH2 0x100 EXP SWAP1 DIV PUSH20 0xFFFFFFFFFFFFFFFFFFFFFFFFFFFFFFFFFFFFFFFF AND DUP2 JUMP JUMPDEST PUSH1 0x2 DUP1 SLOAD PUSH2 0x53A SWAP1 PUSH2 0xFDA JUMP JUMPDEST DUP1 PUSH1 0x1F ADD PUSH1 0x20 DUP1 SWAP2 DIV MUL PUSH1 0x20 ADD PUSH1 0x40 MLOAD SWAP1 DUP2 ADD PUSH1 0x40 MSTORE DUP1 SWAP3 SWAP2 SWAP1 DUP2 DUP2 MSTORE PUSH1 0x20 ADD DUP3 DUP1 SLOAD PUSH2 0x566 SWAP1 PUSH2 0xFDA JUMP JUMPDEST DUP1 ISZERO PUSH2 0x5B3 JUMPI DUP1 PUSH1 0x1F LT PUSH2 0x588 JUMPI PUSH2 0x100 DUP1 DUP4 SLOAD DIV MUL DUP4 MSTORE SWAP2 PUSH1 0x20 ADD SWAP2 PUSH2 0x5B3 JUMP JUMPDEST DUP3 ADD SWAP2 SWAP1 PUSH1 0x0 MSTORE PUSH1 0x20 PUSH1 0x0 KECCAK256 SWAP1 JUMPDEST DUP2 SLOAD DUP2 MSTORE SWAP1 PUSH1 0x1 ADD SWAP1 PUSH1 0x20 ADD DUP1 DUP4 GT PUSH2 0x596 JUMPI DUP3 SWAP1 SUB PUSH1 0x1F AND DUP3 ADD SWAP2 JUMPDEST POP POP POP POP POP DUP2 JUMP JUMPDEST PUSH1 0x0 DUP2 DUP2 SLOAD DUP2 LT PUSH2 0x5CB JUMPI PUSH1 0x0 DUP1 REVERT JUMPDEST SWAP1 PUSH1 0x0 MSTORE PUSH1 0x20 PUSH1 0x0 KECCAK256 SWAP1 PUSH1 0x5 MUL ADD PUSH1 0x0 SWAP2 POP SWAP1 POP DUP1 PUSH1 0x0 ADD DUP1 SLOAD PUSH2 0x5EE SWAP1 PUSH2 0xFDA JUMP JUMPDEST DUP1 PUSH1 0x1F ADD PUSH1 0x20 DUP1 SWAP2 DIV MUL PUSH1 0x20 ADD PUSH1 0x40 MLOAD SWAP1 DUP2 ADD PUSH1 0x40 MSTORE DUP1 SWAP3 SWAP2 SWAP1 DUP2 DUP2 MSTORE PUSH1 0x20 ADD DUP3 DUP1 SLOAD PUSH2 0x61A SWAP1 PUSH2 0xFDA JUMP JUMPDEST DUP1 ISZERO PUSH2 0x667 JUMPI DUP1 PUSH1 0x1F LT PUSH2 0x63C JUMPI PUSH2 0x100 DUP1 DUP4 SLOAD DIV MUL DUP4 MSTORE SWAP2 PUSH1 0x20 ADD SWAP2 PUSH2 0x667 JUMP JUMPDEST DUP3 ADD SWAP2 SWAP1 PUSH1 0x0 MSTORE PUSH1 0x20 PUSH1 0x0 KECCAK256 SWAP1 JUMPDEST DUP2 SLOAD DUP2 MSTORE SWAP1 PUSH1 0x1 ADD SWAP1 PUSH1 0x20 ADD DUP1 DUP4 GT PUSH2 0x64A JUMPI DUP3 SWAP1 SUB PUSH1 0x1F AND DUP3 ADD SWAP2 JUMPDEST POP POP POP POP POP SWAP1 DUP1 PUSH1 0x1 ADD SLOAD SWAP1 DUP1 PUSH1 0x2 ADD PUSH1 0x0 SWAP1 SLOAD SWAP1 PUSH2 0x100 EXP SWAP1 DIV PUSH20 0xFFFFFFFFFFFFFFFFFFFFFFFFFFFFFFFFFFFFFFFF AND SWAP1 DUP1 PUSH1 0x2 ADD PUSH1 0x14 SWAP1 SLOAD SWAP1 PUSH2 0x100 EXP SWAP1 DIV PUSH1 0xFF AND SWAP1 DUP1 PUSH1 0x3 ADD SLOAD SWAP1 POP DUP6 JUMP JUMPDEST PUSH1 0x5 SLOAD DUP2 JUMP JUMPDEST PUSH1 0x1 PUSH1 0x0 SWAP1 SLOAD SWAP1 PUSH2 0x100 EXP SWAP1 DIV PUSH20 0xFFFFFFFFFFFFFFFFFFFFFFFFFFFFFFFFFFFFFFFF AND PUSH20 0xFFFFFFFFFFFFFFFFFFFFFFFFFFFFFFFFFFFFFFFF AND CALLER PUSH20 0xFFFFFFFFFFFFFFFFFFFFFFFFFFFFFFFFFFFFFFFF AND EQ PUSH2 0x716 JUMPI PUSH1 0x0 DUP1 REVERT JUMPDEST PUSH1 0x0 DUP1 PUSH1 0x1 DUP2 PUSH1 0x1 DUP2 SLOAD ADD DUP1 DUP3 SSTORE DUP1 SWAP2 POP POP SUB SWAP1 PUSH1 0x0 MSTORE PUSH1 0x20 PUSH1 0x0 KECCAK256 SWAP1 PUSH1 0x5 MUL ADD SWAP1 POP DUP4 DUP2 PUSH1 0x0 ADD SWAP1 DUP1 MLOAD SWAP1 PUSH1 0x20 ADD SWAP1 PUSH2 0x751 SWAP3 SWAP2 SWAP1 PUSH2 0x99D JUMP JUMPDEST POP DUP3 DUP2 PUSH1 0x1 ADD DUP2 SWAP1 SSTORE POP DUP2 DUP2 PUSH1 0x2 ADD PUSH1 0x0 PUSH2 0x100 EXP DUP2 SLOAD DUP2 PUSH20 0xFFFFFFFFFFFFFFFFFFFFFFFFFFFFFFFFFFFFFFFF MUL NOT AND SWAP1 DUP4 PUSH20 0xFFFFFFFFFFFFFFFFFFFFFFFFFFFFFFFFFFFFFFFF AND MUL OR SWAP1 SSTORE POP PUSH1 0x0 DUP2 PUSH1 0x2 ADD PUSH1 0x14 PUSH2 0x100 EXP DUP2 SLOAD DUP2 PUSH1 0xFF MUL NOT AND SWAP1 DUP4 ISZERO ISZERO MUL OR SWAP1 SSTORE POP PUSH1 0x0 DUP2 PUSH1 0x3 ADD DUP2 SWAP1 SSTORE POP POP POP POP POP JUMP JUMPDEST PUSH1 0x3 SLOAD DUP2 JUMP JUMPDEST PUSH1 0x3 SLOAD CALLVALUE GT PUSH2 0x7DF JUMPI PUSH1 0x0 DUP1 REVERT JUMPDEST PUSH1 0x1 PUSH1 0x4 PUSH1 0x0 CALLER PUSH20 0xFFFFFFFFFFFFFFFFFFFFFFFFFFFFFFFFFFFFFFFF AND PUSH20 0xFFFFFFFFFFFFFFFFFFFFFFFFFFFFFFFFFFFFFFFF AND DUP2 MSTORE PUSH1 0x20 ADD SWAP1 DUP2 MSTORE PUSH1 0x20 ADD PUSH1 0x0 KECCAK256 PUSH1 0x0 PUSH2 0x100 EXP DUP2 SLOAD DUP2 PUSH1 0xFF MUL NOT AND SWAP1 DUP4 ISZERO ISZERO MUL OR SWAP1 SSTORE POP PUSH1 0x5 PUSH1 0x0 DUP2 SLOAD DUP1 SWAP3 SWAP2 SWAP1 PUSH2 0x84A SWAP1 PUSH2 0x100C JUMP JUMPDEST SWAP2 SWAP1 POP SSTORE POP JUMP JUMPDEST PUSH1 0x0 DUP1 DUP3 DUP2 SLOAD DUP2 LT PUSH2 0x866 JUMPI PUSH2 0x865 PUSH2 0xEED JUMP JUMPDEST JUMPDEST SWAP1 PUSH1 0x0 MSTORE PUSH1 0x20 PUSH1 0x0 KECCAK256 SWAP1 PUSH1 0x5 MUL ADD SWAP1 POP PUSH1 0x4 PUSH1 0x0 CALLER PUSH20 0xFFFFFFFFFFFFFFFFFFFFFFFFFFFFFFFFFFFFFFFF AND PUSH20 0xFFFFFFFFFFFFFFFFFFFFFFFFFFFFFFFFFFFFFFFF AND DUP2 MSTORE PUSH1 0x20 ADD SWAP1 DUP2 MSTORE PUSH1 0x20 ADD PUSH1 0x0 KECCAK256 PUSH1 0x0 SWAP1 SLOAD SWAP1 PUSH2 0x100 EXP SWAP1 DIV PUSH1 0xFF AND PUSH2 0x8CC JUMPI PUSH1 0x0 DUP1 REVERT JUMPDEST DUP1 PUSH1 0x4 ADD PUSH1 0x0 CALLER PUSH20 0xFFFFFFFFFFFFFFFFFFFFFFFFFFFFFFFFFFFFFFFF AND PUSH20 0xFFFFFFFFFFFFFFFFFFFFFFFFFFFFFFFFFFFFFFFF AND DUP2 MSTORE PUSH1 0x20 ADD SWAP1 DUP2 MSTORE PUSH1 0x20 ADD PUSH1 0x0 KECCAK256 PUSH1 0x0 SWAP1 SLOAD SWAP1 PUSH2 0x100 EXP SWAP1 DIV PUSH1 0xFF AND ISZERO PUSH2 0x925 JUMPI PUSH1 0x0 DUP1 REVERT JUMPDEST PUSH1 0x1 DUP2 PUSH1 0x4 ADD PUSH1 0x0 CALLER PUSH20 0xFFFFFFFFFFFFFFFFFFFFFFFFFFFFFFFFFFFFFFFF AND PUSH20 0xFFFFFFFFFFFFFFFFFFFFFFFFFFFFFFFFFFFFFFFF AND DUP2 MSTORE PUSH1 0x20 ADD SWAP1 DUP2 MSTORE PUSH1 0x20 ADD PUSH1 0x0 KECCAK256 PUSH1 0x0 PUSH2 0x100 EXP DUP2 SLOAD DUP2 PUSH1 0xFF MUL NOT AND SWAP1 DUP4 ISZERO ISZERO MUL OR SWAP1 SSTORE POP DUP1 PUSH1 0x3 ADD PUSH1 0x0 DUP2 SLOAD DUP1 SWAP3 SWAP2 SWAP1 PUSH2 0x994 SWAP1 PUSH2 0x100C JUMP JUMPDEST SWAP2 SWAP1 POP SSTORE POP POP POP JUMP JUMPDEST DUP3 DUP1 SLOAD PUSH2 0x9A9 SWAP1 PUSH2 0xFDA JUMP JUMPDEST SWAP1 PUSH1 0x0 MSTORE PUSH1 0x20 PUSH1 0x0 KECCAK256 SWAP1 PUSH1 0x1F ADD PUSH1 0x20 SWAP1 DIV DUP2 ADD SWAP3 DUP3 PUSH2 0x9CB JUMPI PUSH1 0x0 DUP6 SSTORE PUSH2 0xA12 JUMP JUMPDEST DUP3 PUSH1 0x1F LT PUSH2 0x9E4 JUMPI DUP1 MLOAD PUSH1 0xFF NOT AND DUP4 DUP1 ADD OR DUP6 SSTORE PUSH2 0xA12 JUMP JUMPDEST DUP3 DUP1 ADD PUSH1 0x1 ADD DUP6 SSTORE DUP3 ISZERO PUSH2 0xA12 JUMPI SWAP2 DUP3 ADD JUMPDEST DUP3 DUP2 GT ISZERO PUSH2 0xA11 JUMPI DUP3 MLOAD DUP3 SSTORE SWAP2 PUSH1 0x20 ADD SWAP2 SWAP1 PUSH1 0x1 ADD SWAP1 PUSH2 0x9F6 JUMP JUMPDEST JUMPDEST POP SWAP1 POP PUSH2 0xA1F SWAP2 SWAP1 PUSH2 0xA23 JUMP JUMPDEST POP SWAP1 JUMP JUMPDEST JUMPDEST DUP1 DUP3 GT ISZERO PUSH2 0xA3C JUMPI PUSH1 0x0 DUP2 PUSH1 0x0 SWAP1 SSTORE POP PUSH1 0x1 ADD PUSH2 0xA24 JUMP JUMPDEST POP SWAP1 JUMP JUMPDEST PUSH1 0x0 PUSH1 0x40 MLOAD SWAP1 POP SWAP1 JUMP JUMPDEST PUSH1 0x0 DUP1 REVERT JUMPDEST PUSH1 0x0 DUP1 REVERT JUMPDEST PUSH1 0x0 DUP2 SWAP1 POP SWAP2 SWAP1 POP JUMP JUMPDEST PUSH2 0xA67 DUP2 PUSH2 0xA54 JUMP JUMPDEST DUP2 EQ PUSH2 0xA72 JUMPI PUSH1 0x0 DUP1 REVERT JUMPDEST POP JUMP JUMPDEST PUSH1 0x0 DUP2 CALLDATALOAD SWAP1 POP PUSH2 0xA84 DUP2 PUSH2 0xA5E JUMP JUMPDEST SWAP3 SWAP2 POP POP JUMP JUMPDEST PUSH1 0x0 PUSH1 0x20 DUP3 DUP5 SUB SLT ISZERO PUSH2 0xAA0 JUMPI PUSH2 0xA9F PUSH2 0xA4A JUMP JUMPDEST JUMPDEST PUSH1 0x0 PUSH2 0xAAE DUP5 DUP3 DUP6 ADD PUSH2 0xA75 JUMP JUMPDEST SWAP2 POP POP SWAP3 SWAP2 POP POP JUMP JUMPDEST PUSH1 0x0 PUSH20 0xFFFFFFFFFFFFFFFFFFFFFFFFFFFFFFFFFFFFFFFF DUP3 AND SWAP1 POP SWAP2 SWAP1 POP JUMP JUMPDEST PUSH1 0x0 PUSH2 0xAE2 DUP3 PUSH2 0xAB7 JUMP JUMPDEST SWAP1 POP SWAP2 SWAP1 POP JUMP JUMPDEST PUSH2 0xAF2 DUP2 PUSH2 0xAD7 JUMP JUMPDEST DUP2 EQ PUSH2 0xAFD JUMPI PUSH1 0x0 DUP1 REVERT JUMPDEST POP JUMP JUMPDEST PUSH1 0x0 DUP2 CALLDATALOAD SWAP1 POP PUSH2 0xB0F DUP2 PUSH2 0xAE9 JUMP JUMPDEST SWAP3 SWAP2 POP POP JUMP JUMPDEST PUSH1 0x0 PUSH1 0x20 DUP3 DUP5 SUB SLT ISZERO PUSH2 0xB2B JUMPI PUSH2 0xB2A PUSH2 0xA4A JUMP JUMPDEST JUMPDEST PUSH1 0x0 PUSH2 0xB39 DUP5 DUP3 DUP6 ADD PUSH2 0xB00 JUMP JUMPDEST SWAP2 POP POP SWAP3 SWAP2 POP POP JUMP JUMPDEST PUSH1 0x0 DUP2 ISZERO ISZERO SWAP1 POP SWAP2 SWAP1 POP JUMP JUMPDEST PUSH2 0xB57 DUP2 PUSH2 0xB42 JUMP JUMPDEST DUP3 MSTORE POP POP JUMP JUMPDEST PUSH1 0x0 PUSH1 0x20 DUP3 ADD SWAP1 POP PUSH2 0xB72 PUSH1 0x0 DUP4 ADD DUP5 PUSH2 0xB4E JUMP JUMPDEST SWAP3 SWAP2 POP POP JUMP JUMPDEST PUSH2 0xB81 DUP2 PUSH2 0xA54 JUMP JUMPDEST DUP3 MSTORE POP POP JUMP JUMPDEST PUSH1 0x0 PUSH1 0x20 DUP3 ADD SWAP1 POP PUSH2 0xB9C PUSH1 0x0 DUP4 ADD DUP5 PUSH2 0xB78 JUMP JUMPDEST SWAP3 SWAP2 POP POP JUMP JUMPDEST PUSH2 0xBAB DUP2 PUSH2 0xAD7 JUMP JUMPDEST DUP3 MSTORE POP POP JUMP JUMPDEST PUSH1 0x0 DUP2 MLOAD SWAP1 POP SWAP2 SWAP1 POP JUMP JUMPDEST PUSH1 0x0 DUP3 DUP3 MSTORE PUSH1 0x20 DUP3 ADD SWAP1 POP SWAP3 SWAP2 POP POP JUMP JUMPDEST PUSH1 0x0 JUMPDEST DUP4 DUP2 LT ISZERO PUSH2 0xBEB JUMPI DUP1 DUP3 ADD MLOAD DUP2 DUP5 ADD MSTORE PUSH1 0x20 DUP2 ADD SWAP1 POP PUSH2 0xBD0 JUMP JUMPDEST DUP4 DUP2 GT ISZERO PUSH2 0xBFA JUMPI PUSH1 0x0 DUP5 DUP5 ADD MSTORE JUMPDEST POP POP POP POP JUMP JUMPDEST PUSH1 0x0 PUSH1 0x1F NOT PUSH1 0x1F DUP4 ADD AND SWAP1 POP SWAP2 SWAP1 POP JUMP JUMPDEST PUSH1 0x0 PUSH2 0xC1C DUP3 PUSH2 0xBB1 JUMP JUMPDEST PUSH2 0xC26 DUP2 DUP6 PUSH2 0xBBC JUMP JUMPDEST SWAP4 POP PUSH2 0xC36 DUP2 DUP6 PUSH1 0x20 DUP7 ADD PUSH2 0xBCD JUMP JUMPDEST PUSH2 0xC3F DUP2 PUSH2 0xC00 JUMP JUMPDEST DUP5 ADD SWAP2 POP POP SWAP3 SWAP2 POP POP JUMP JUMPDEST PUSH1 0x0 PUSH1 0xC0 DUP3 ADD SWAP1 POP PUSH2 0xC5F PUSH1 0x0 DUP4 ADD DUP10 PUSH2 0xB78 JUMP JUMPDEST PUSH2 0xC6C PUSH1 0x20 DUP4 ADD DUP9 PUSH2 0xB78 JUMP JUMPDEST PUSH2 0xC79 PUSH1 0x40 DUP4 ADD DUP8 PUSH2 0xB78 JUMP JUMPDEST PUSH2 0xC86 PUSH1 0x60 DUP4 ADD DUP7 PUSH2 0xB78 JUMP JUMPDEST PUSH2 0xC93 PUSH1 0x80 DUP4 ADD DUP6 PUSH2 0xBA2 JUMP JUMPDEST DUP2 DUP2 SUB PUSH1 0xA0 DUP4 ADD MSTORE PUSH2 0xCA5 DUP2 DUP5 PUSH2 0xC11 JUMP JUMPDEST SWAP1 POP SWAP8 SWAP7 POP POP POP POP POP POP POP JUMP JUMPDEST PUSH1 0x0 PUSH1 0x20 DUP3 ADD SWAP1 POP PUSH2 0xCC7 PUSH1 0x0 DUP4 ADD DUP5 PUSH2 0xBA2 JUMP JUMPDEST SWAP3 SWAP2 POP POP JUMP JUMPDEST PUSH1 0x0 PUSH1 0x20 DUP3 ADD SWAP1 POP DUP2 DUP2 SUB PUSH1 0x0 DUP4 ADD MSTORE PUSH2 0xCE7 DUP2 DUP5 PUSH2 0xC11 JUMP JUMPDEST SWAP1 POP SWAP3 SWAP2 POP POP JUMP JUMPDEST PUSH1 0x0 PUSH1 0xA0 DUP3 ADD SWAP1 POP DUP2 DUP2 SUB PUSH1 0x0 DUP4 ADD MSTORE PUSH2 0xD09 DUP2 DUP9 PUSH2 0xC11 JUMP JUMPDEST SWAP1 POP PUSH2 0xD18 PUSH1 0x20 DUP4 ADD DUP8 PUSH2 0xB78 JUMP JUMPDEST PUSH2 0xD25 PUSH1 0x40 DUP4 ADD DUP7 PUSH2 0xBA2 JUMP JUMPDEST PUSH2 0xD32 PUSH1 0x60 DUP4 ADD DUP6 PUSH2 0xB4E JUMP JUMPDEST PUSH2 0xD3F PUSH1 0x80 DUP4 ADD DUP5 PUSH2 0xB78 JUMP JUMPDEST SWAP7 SWAP6 POP POP POP POP POP POP JUMP JUMPDEST PUSH1 0x0 DUP1 REVERT JUMPDEST PUSH1 0x0 DUP1 REVERT JUMPDEST PUSH32 0x4E487B7100000000000000000000000000000000000000000000000000000000 PUSH1 0x0 MSTORE PUSH1 0x41 PUSH1 0x4 MSTORE PUSH1 0x24 PUSH1 0x0 REVERT JUMPDEST PUSH2 0xD8B DUP3 PUSH2 0xC00 JUMP JUMPDEST DUP2 ADD DUP2 DUP2 LT PUSH8 0xFFFFFFFFFFFFFFFF DUP3 GT OR ISZERO PUSH2 0xDAA JUMPI PUSH2 0xDA9 PUSH2 0xD53 JUMP JUMPDEST JUMPDEST DUP1 PUSH1 0x40 MSTORE POP POP POP JUMP JUMPDEST PUSH1 0x0 PUSH2 0xDBD PUSH2 0xA40 JUMP JUMPDEST SWAP1 POP PUSH2 0xDC9 DUP3 DUP3 PUSH2 0xD82 JUMP JUMPDEST SWAP2 SWAP1 POP JUMP JUMPDEST PUSH1 0x0 PUSH8 0xFFFFFFFFFFFFFFFF DUP3 GT ISZERO PUSH2 0xDE9 JUMPI PUSH2 0xDE8 PUSH2 0xD53 JUMP JUMPDEST JUMPDEST PUSH2 0xDF2 DUP3 PUSH2 0xC00 JUMP JUMPDEST SWAP1 POP PUSH1 0x20 DUP2 ADD SWAP1 POP SWAP2 SWAP1 POP JUMP JUMPDEST DUP3 DUP2 DUP4 CALLDATACOPY PUSH1 0x0 DUP4 DUP4 ADD MSTORE POP POP POP JUMP JUMPDEST PUSH1 0x0 PUSH2 0xE21 PUSH2 0xE1C DUP5 PUSH2 0xDCE JUMP JUMPDEST PUSH2 0xDB3 JUMP JUMPDEST SWAP1 POP DUP3 DUP2 MSTORE PUSH1 0x20 DUP2 ADD DUP5 DUP5 DUP5 ADD GT ISZERO PUSH2 0xE3D JUMPI PUSH2 0xE3C PUSH2 0xD4E JUMP JUMPDEST JUMPDEST PUSH2 0xE48 DUP5 DUP3 DUP6 PUSH2 0xDFF JUMP JUMPDEST POP SWAP4 SWAP3 POP POP POP JUMP JUMPDEST PUSH1 0x0 DUP3 PUSH1 0x1F DUP4 ADD SLT PUSH2 0xE65 JUMPI PUSH2 0xE64 PUSH2 0xD49 JUMP JUMPDEST JUMPDEST DUP2 CALLDATALOAD PUSH2 0xE75 DUP5 DUP3 PUSH1 0x20 DUP7 ADD PUSH2 0xE0E JUMP JUMPDEST SWAP2 POP POP SWAP3 SWAP2 POP POP JUMP JUMPDEST PUSH1 0x0 DUP1 PUSH1 0x0 PUSH1 0x60 DUP5 DUP7 SUB SLT ISZERO PUSH2 0xE97 JUMPI PUSH2 0xE96 PUSH2 0xA4A JUMP JUMPDEST JUMPDEST PUSH1 0x0 DUP5 ADD CALLDATALOAD PUSH8 0xFFFFFFFFFFFFFFFF DUP2 GT ISZERO PUSH2 0xEB5 JUMPI PUSH2 0xEB4 PUSH2 0xA4F JUMP JUMPDEST JUMPDEST PUSH2 0xEC1 DUP7 DUP3 DUP8 ADD PUSH2 0xE50 JUMP JUMPDEST SWAP4 POP POP PUSH1 0x20 PUSH2 0xED2 DUP7 DUP3 DUP8 ADD PUSH2 0xA75 JUMP JUMPDEST SWAP3 POP POP PUSH1 0x40 PUSH2 0xEE3 DUP7 DUP3 DUP8 ADD PUSH2 0xB00 JUMP JUMPDEST SWAP2 POP POP SWAP3 POP SWAP3 POP SWAP3 JUMP JUMPDEST PUSH32 0x4E487B7100000000000000000000000000000000000000000000000000000000 PUSH1 0x0 MSTORE PUSH1 0x32 PUSH1 0x4 MSTORE PUSH1 0x24 PUSH1 0x0 REVERT JUMPDEST PUSH32 0x4E487B7100000000000000000000000000000000000000000000000000000000 PUSH1 0x0 MSTORE PUSH1 0x12 PUSH1 0x4 MSTORE PUSH1 0x24 PUSH1 0x0 REVERT JUMPDEST PUSH32 0x4E487B7100000000000000000000000000000000000000000000000000000000 PUSH1 0x0 MSTORE PUSH1 0x11 PUSH1 0x4 MSTORE PUSH1 0x24 PUSH1 0x0 REVERT JUMPDEST PUSH1 0x0 PUSH2 0xF85 DUP3 PUSH2 0xA54 JUMP JUMPDEST SWAP2 POP PUSH2 0xF90 DUP4 PUSH2 0xA54 JUMP JUMPDEST SWAP3 POP DUP3 PUSH2 0xFA0 JUMPI PUSH2 0xF9F PUSH2 0xF1C JUMP JUMPDEST JUMPDEST DUP3 DUP3 DIV SWAP1 POP SWAP3 SWAP2 POP POP JUMP JUMPDEST PUSH32 0x4E487B7100000000000000000000000000000000000000000000000000000000 PUSH1 0x0 MSTORE PUSH1 0x22 PUSH1 0x4 MSTORE PUSH1 0x24 PUSH1 0x0 REVERT JUMPDEST PUSH1 0x0 PUSH1 0x2 DUP3 DIV SWAP1 POP PUSH1 0x1 DUP3 AND DUP1 PUSH2 0xFF2 JUMPI PUSH1 0x7F DUP3 AND SWAP2 POP JUMPDEST PUSH1 0x20 DUP3 LT DUP2 EQ ISZERO PUSH2 0x1006 JUMPI PUSH2 0x1005 PUSH2 0xFAB JUMP JUMPDEST JUMPDEST POP SWAP2 SWAP1 POP JUMP JUMPDEST PUSH1 0x0 PUSH2 0x1017 DUP3 PUSH2 0xA54 JUMP JUMPDEST SWAP2 POP PUSH32 0xFFFFFFFFFFFFFFFFFFFFFFFFFFFFFFFFFFFFFFFFFFFFFFFFFFFFFFFFFFFFFFFF DUP3 EQ ISZERO PUSH2 0x104A JUMPI PUSH2 0x1049 PUSH2 0xF4B JUMP JUMPDEST JUMPDEST PUSH1 0x1 DUP3 ADD SWAP1 POP SWAP2 SWAP1 POP JUMP INVALID LOG2 PUSH5 0x6970667358 0x22 SLT KECCAK256 PUSH24 0x4E03DFE4341AF795A866D9DFB3EDA94AD2ED86D3361AC8B1 SWAP6 0x5E 0xCA 0xD7 0xA5 INVALID 0x26 PUSH5 0x736F6C6343 STOP ADDMOD MULMOD STOP CALLER LOG2 PUSH5 0x6970667358 0x22 SLT KECCAK256 PUSH31 0x706083549237228B824A6432062C71EAC585094F7CE98D65ABE64FE7BAA455 PUSH5 0x736F6C6343 STOP ADDMOD MULMOD STOP CALLER "},"gasEstimates":{"creation":{"codeDepositCost":"1443800","executionCost":"1506","totalCost":"1445306"},"external":{"createCampaign(uint256,string)":"infinite","deployedCampaigns(uint256)":"4934","getDeployedCampaigns()":"infinite"}},"methodIdentifiers":{"createCampaign(uint256,string)":"4220d656","deployedCampaigns(uint256)":"339d50a5","getDeployedCampaigns()":"4acb9d4f"}},"storageLayout":{"storage":[{"astId":4,"contract":"Campaign.sol:CampaignFactory","label":"deployedCampaigns","offset":0,"slot":"0","type":"t_array(t_address_payable)dyn_storage"}],"types":{"t_address_payable":{"encoding":"inplace","label":"address payable","numberOfBytes":"20"},"t_array(t_address_payable)dyn_storage":{"base":"t_address_payable","encoding":"dynamic_array","label":"address payable[]","numberOfBytes":"32"}}},"userdoc":{"kind":"user","methods":{},"version":1}}